:020000040800F2
:1000000030090020FD0100085F340008F1330008CA
:100010005D340008491E00082D380008000000006B
:100020000000000000000000000000006334000831
:10003000831E0008000000006134000865340008D9
:10004000170200081702000817020008170200082C
:10005000170200081702000817020008170200081C
:10006000170200081702000817020008170200080C
:1000700017020008170200084D1E000817020008AA
:1000800017020008170200081702000817020008EC
:1000900017020008170200081702000817020008DC
:1000A00017020008170200081702000817020008CC
:1000B00017020008C93400081702000817020008D8
:1000C00017020008170200081702000817020008AC
:1000D000170200082138000817020008170200085C
:1000E000170200081702000817020008170200088C
:1000F000170200081702000817020008170200087C
:10010000170200081702000817020008170200086B
:100110001702000817020008D5340008170200086B
:10012000170200081702000817020008170200084B
:1001300000F002F800F052F80AA090E8000C8244A7
:100140008344AAF10107DA4501D100F047F8AFF284
:10015000090EBAE80F0013F0010F18BFFB1A43F0A5
:1001600001031847483D0000683D0000103A24BFD5
:1001700078C878C1FAD8520724BF30C830C144BF0C
:1001800004680C607047000000230024002500264E
:10019000103A28BF78C1FBD8520728BF30C148BFEA
:1001A0000B607047662903F01986642900F06880A7
:1001B000002070471FB59DE8030001F073F800F0C0
:1001C00035FC04000020002103F0A0FCE06000F0FA
:1001D00031FD1FBD10B500F096FD10BD00F0FEFD15
:1001E0001146FFF7E7FF03F0CBFB00F0EDFF03B490
:1001F000FFF7F0FF03BC01F0C7F900000948804792
:1002000009480047FEE7FEE7FEE7FEE7FEE7FEE7F8
:10021000FEE7FEE7FEE7FEE704480549054A064B10
:1002200070470000C7340008310100083003002087
:100230003009002030050020300500200FB40449AB
:1002400010B503AA029800F0DFFB10BC5DF814FBA8
:10025000280200200FB41CB5084B06AA7B4469464F
:100260000090059800F0B7FB04460020694600F0B6
:10027000C5FB20461CBC5DF814FB00009D07000078
:100280002DE9F0410646002410687529314616A56F
:1002900010D0AFF30080002802DA404213A507E037
:1002A00031688A0701D512A502E0490704D511A5D6
:1002B000012401E0AFF3008000210A2206F12407A7
:1002C00009E0B0FBF2FCB0FBF2F302FB1C003030A3
:1002D00078541846491C0028F3D123462A46304654
:1002E000BDE8F04100F00AB9000000002D00000058
:1002F0002B000000200000002DE9F0474FF0000A1D
:1003000089460446C0F820A02046E16888470028B6
:1003100076D0252806D0D4E901219047206A401CD8
:100320002062F1E7E168204600258847C4F81CA058
:1003300006460027C4F818A02A2E09D0304603F03C
:100340000BFB38B304EB8708303EC8F8186019E09F
:1003500059F8041B204604EB87029161E168884745
:10036000012F064618D1E069002820DA25F0200583
:100370001DE0D8F8180000EB800006EB4000303894
:10038000C8F818002046E1688847064603F0E4FAFA
:100390000028EED1012F0AD02E2E08D12046E16888
:1003A00088477F1C0646022F45F02005C4DBA06964
:1003B000002803DA404245F00105A061E80701D0BA
:1003C00025F01005B6B1A6F14100192802D8203653
:1003D00045F400654A463146204625604D46FFF704
:1003E000E1FE58B1012806D0ED1D25F0070000F10F
:1003F000080989E704E005F1040985E730468AE742
:10040000206ABDE8F08710B5431C02E010F8011B1C
:1004100071B18107FAD14FF0013202C88C1A8C43B6
:1004200014EAC211F9D0C01A0A0603D0C01E10BDCA
:10043000C01A10BD0A0401D0801E10BD0902FCD0F4
:10044000401E10BD10B5203AC0F00B80B1E8185026
:10045000203AA0E81850B1E81850A0E81850BFF4AE
:10046000F5AF5FEA027C24BFB1E81850A0E818504D
:1004700044BF18C918C0BDE810405FEA827C24BFA1
:1004800051F8043B40F8043B08BF7047D20728BF2F
:1004900031F8023B48BF11F8012B28BF20F8023B7E
:1004A00048BF00F8012B70474FF0000200B513461B
:1004B00094469646203922BFA0E80C50A0E80C5084
:1004C000B1F12001BFF4F7AF090728BFA0E80C5035
:1004D00048BF0CC05DF804EB890028BF40F8042B2E
:1004E00008BF704748BF20F8022B11F0804F18BF9B
:1004F00000F8012B70477047704770472DE9F047AF
:100500000D4699469246044600F124080168880683
:1005100004D5E06921F01001216000E00120A8422B
:1005200001DD471B00E00027A1697A1902EB0900F1
:10053000081AA0612078C00602D42046AFF30080DC
:10054000002608E0D4E901211AF806009047206A45
:10055000401C761C20624E45F4DB2078C0060AD58C
:100560002046AFF3008006E0D4E901213020904717
:10057000206A401C2062381EA7F10107F4DC07E066
:10058000D4E9012118F805009047206A401C206238
:10059000281EA5F10105F3DC2046AFF3008020788A
:1005A000000602D50220BDE8F0870120FBE7704776
:1005B0002DE9FF4F0C461E464FF0FF378BB0D2E9B6
:1005C0000001DDF860800A908A46C1F30A5505B93A
:1005D0003D46002108464FF00000BAF1000F00F43C
:1005E000400005DA00EB80004FF4400101EA5000C2
:1005F0004FEA9059B9F1010F00DDB9460A9850EA67
:100600004A000ED044F61050A5F2FF3545432F1492
:10061000B8F1000F1ED07542291E1EDDC9F100027F
:100620001CE0B8F1010F4FF0000001D0302103E0D1
:10063000F24305E02154401CB042FBDB304600226F
:10064000002121540B99C1F80880C1E900200FB0A6
:10065000BDE8F08FBD1B6D1CDEE74A4600DA69423B
:1006600006A800F071FA06AB93E8070003AB83E835
:10067000070050460A9901F01FF88DE80700A0F521
:1006800000501F3800900398002D0ADD42F21F0130
:100690004A460844002303A90390684601F088FAFB
:1006A00009E0A0F500504A461F38002303A9039033
:1006B000684601F092FA8DE807000004000C03D0B0
:1006C0004FF0FF30410800E01046B8F1000F03D0B2
:1006D0000022009215461EE0751E05D400F0AEF90A
:1006E000303262556D1EF9D5B3460122084302D05F
:1006F00000227F1C04E02078302801D100227F1ED8
:10070000002A099784D01DE0112D07DA00F096F930
:10071000303262556D1C50EA0102F5D1084302D017
:100720000098C8B10EE00021681E05E0235C625C01
:1007300063542254401E491C8142F7DBAB46A81B80
:10074000401E0990002004F80B000B98099AC0F88D
:100750000880C0E9002B7AE711264FF0000857E720
:100760002DE9F04F88460446D21D22F0070191B0D2
:10077000D1E90001CDE90A0103F0CAF802460B985D
:10078000C00F01D02D2007E02068810701D52B2064
:1007900002E0202101EAC000032A099001D0072AC3
:1007A00005DB03464146204600F08EF90BE1207838
:1007B000800601D5E06900E00620B8F1650F8146AA
:1007C00006D0B8F1660F18D0B8F1670F70D131E0DC
:1007D0000020B9F1110F009001DB112301E009F1B4
:1007E00001030AAA01A90CA8FFF7E2FEDDE90C70DB
:1007F000002609F10105834647E001204B460090A1
:100800004FF000470AAA01A90CA8FFF7D1FEDDE9C5
:100810000DB00C995D46002610B909F101000D18C4
:10082000B9EB050003D4C0F1FF3609F10105A5EBD2
:1008300009002BE0B9F1010F01DA4FF001090020A6
:10084000B9F1110F0090484601DD112300E0034685
:100850000AAA01A90CA8FFF7ABFEDDE90C704D4612
:1008600000268346207800070AD4AB4500DA5D46AF
:1008700001A8012D04DD411911F8011C302907D010
:100880004F4502DA17F1040F04DA012082460FE027
:100890006D1EEEE7002F02DCED1B3E4403E0781CEA
:1008A000A84200DD7D1CB81B00F1010A4FF0004793
:1008B0002078000703D4AA4501DB4FF0FF3A00215E
:1008C000B7F1004F0DF143088DF8431024D00220FA
:1008D0002B23002F01DA7F422D230A21021EA0F1D3
:1008E000010000DC5FB197FBF1FC97FBF1F201FB2B
:1008F0001C7C17460CF1300C08F801CDEEE7A8F18E
:10090000010003702188090501D5452100E065211A
:10091000A0F1010800F8011C09980FA9A1EB080734
:10092000FF1D00B10120411901EBEA70A1693844B3
:10093000081A401EA0612078C00602D42046AFF3FA
:100940000080099828B1D4E901219047206A401C11
:1009500020622078C00622D52046AFF300801EE03A
:10096000002E04DBB34502DD01A8805D00E03020ED
:10097000D4E901219047206A401C2062761CAAF12C
:1009800001005FEA000A0AD100F050F8C06801686F
:10099000405CD4E901219047206A401C2062281E57
:1009A000A5F10105DCDC07E0D4E9012118F8010B11
:1009B0009047206A401C2062381EA7F10107F3DC33
:1009C0002046AFF30080032011B041E601694A1CC4
:1009D00002610878704700B58FB0CDE90131002180
:1009E000059105497944CDE9031011466846FFF7A2
:1009F00083FC0FB000BD0000E5FFFFFF0A6802F8AE
:100A0000010B0A6070470000074B70B50D467B4430
:100A1000FFF7E1FF0446284600F008F910B14FF057
:100A2000FF3070BD204670BD552F00000048704754
:100A3000F002002000487047D002002030B5B0F12D
:100A40000A024FEA900E71F100034EEA817EB0EB8C
:100A50000E0061EB91014FEA101E4EEA017E10EB91
:100A60000E0041EB11114FEA102E4EEA016E10EB11
:100A70000E0041EB11214FEA104E4EEA014E10EBF1
:100A80000E0041EB1141401841F100014FEAD00046
:100A900040EA41704FEAD10110EB80054FEA810432
:100AA00044EA907444EB01046D1944EB0404521BB6
:100AB000A3414FF0000348BF0A3200D530BD401CAF
:100AC00041F1000130BD00002DE9F0411F46044610
:100AD00003260168072A01F4006004DB08B116A5AB
:100AE00005E016A503E008B115A500E015A521F065
:100AF00010002060A069C01EA0610FB1401EA0615F
:100B00002046AFF300804FB1D4E901213846904729
:100B1000206A401C2062C01C206206E0206AFAE7BE
:100B2000D4E9012115F8010B9047761EF8D2204632
:100B3000AFF30080BDE8F0814E414E006E616E0063
:100B4000494E4600696E66002DE9F047814616461B
:100B50008AB0354878440DC88DE80D003248784495
:100B6000801C03AC0DC884E80D0041F69B3008449E
:100B7000372190FBF1F290FBF1F5A5F1800501FB27
:100B800012041B3C02D56442012000E00020DFF883
:100B900098A080460027FA44AAF1BE0A0EE0E007BA
:100BA0000AD03246684607EB470101230AEB810170
:100BB00001F013F88DE8070064107F1C002CEED1C3
:100BC000194F7F44AE3F19E0E80715D007EB04103A
:100BD0000DF1180A90E80E008AE80E00C068F04295
:100BE00001D1981908903246012306A903A800F004
:100BF000F4FF03AB83E807006D10641C002DE3D104
:100C00004FF0010332466946B8F1000F03A802D045
:100C100000F0CEFF01E000F0E0FFC9E90001C9F8F3
:100C200008200AB0BDE8F08730330000007B00F0F8
:100C30008000704710B542485421FFF735FC414809
:100C40005421FFF731FC40485421FFF72DFC3F4968
:100C50003B483C4A3F4B08603D490A603A491960AD
:100C6000531C0365481C1065012008653B48344A45
:100C700039A1784400F00CFA20B9384878440A3891
:100C800000F0ABFA37482F4A35A1784400F000FA5B
:100C900020B9344878440A3800F09FFA32482A4A8A
:100CA0002FA1784400F0F4F920B92F4878440A388D
:100CB00000F093FA40232248DC000021224600F095
:100CC000C4F920B125487844543800F086FA1D480C
:100CD00022464023002100F0B8F920B12148784491
:100CE000543800F07AFA184822461023002100F008
:100CF000ACF9002806D01C487844BDE810405638AE
:100D000000F06BBA10BD104870B5006D20F0010402
:100D10000B4800F033FA0B4800F030FA0A4800F0B4
:100D20002DFA09E0206D20F00105204600F026FA9A
:100D3000204600F078F82C46002CF3D170BD00005E
:100D4000D4010020280200207C020020380000206E
:100D50003C00002040000020720000002A32000009
:100D60007700000016320000023200000EB5CDE917
:100D70000001FFF748FB029069460120ABBE0EBDA3
:100D800008B5694600900220ABBE08BD1FB58DE8CE
:100D9000070069460520ABBE04B010BD1FB58DE845
:100DA0000F0069460620ABBEF6E708B5694600901D
:100DB0000920ABBE08BD1CB5CDE9000169460A207B
:100DC000ABBE1CBD704708B5694600900C20ABBE99
:100DD00008BD000000487047D00200207546FFF7AC
:100DE000F9FFAE4605006946534620F007008546E8
:100DF00018B020B5FFF710FABDE820404FF000060C
:100E00004FF000074FF000084FF0000B21F00701F2
:100E1000AC46ACE8C009ACE8C009ACE8C009ACE835
:100E2000C0098D46704770B50446051F00F01EFAD4
:100E30000068002C14BF446870BD002C18BFAC4281
:100E40003CBF20466468F8D301680A18AA4218BF5C
:100E5000456003D12A68054611440160286841199C
:100E6000A1421CBF6C6070BD616869602168084464
:100E7000286070BD2DE9F04705460C46C86820F48F
:100E8000201040F48000C860800602D5084600F0BB
:100E90003AFBE06841F282014FF0FF39014002293C
:100EA00003D0204600F0D8FAB5E000F42041B1F5B7
:100EB000004F0FD1C00306D56168E06A884200D8B0
:100EC0000846606006E02069E06260606069FFF7E4
:100ED0007AFFA061A0680022EEB200280DDAE16876
:100EE0008B050AD4C043A06041F490302260E060DA
:100EF0006068411C61600670A5E0E0689046226071
:100F000040F40050E060206968BB6069FFF74DFF66
:100F1000012704F12405A0B1A08910F4407F08D076
:100F2000E06900F0EEF9206118B1E06840F400607B
:100F300016E0E7612561E06820F4407040F48060CD
:100F40000EE0E06900F0DDF900282061F1D0E068F2
:100F500040F4006010F4407FE06002D140F4807003
:100F6000E06020696060E06825696FF0010AC105F2
:100F70001FD56168E06A884200D80846411B04D04A
:100F80002246284600F072FAF0BBE068010203D561
:100F9000E562C4E9015854E0691CE1626160E169FD
:100FA00040F48030491EC4E9021030462E70BDE87E
:100FB000F087010202D500F480320AE06068411C2B
:100FC00061600670E0680A2E40F48030E06006D070
:100FD0000022E16A6068814203D90B4602E00122E7
:100FE000F7E70346A7895B1B7F0503D4E7699F42A8
:100FF00000DDE2B1814200D80146E5620F1AC4E982
:101000000158002B09DD00E005E02246194628467C
:1010100000F02CFA08B14846C9E747B1A069E5627B
:101020006560C01BA061E06840F01000E060E0680F
:10103000000208D56168A069E562491B0844656043
:10104000A0615046B3E73046B1E770B5C468A50764
:1010500013D0650211D4B2F5807F09D0B2F5007FBC
:1010600006D0B2F5806F08D1012300F1240106E01B
:101070005D1E6FF07F46B54201D3012070BD016156
:10108000C361416024F470611143C160002070BDF0
:101090002DE9F0410C4607461646104600F06EF862
:1010A0002078611C61280AD0722802D077283CD1B0
:1010B00002E00125002405E00225042402E00824C2
:1010C00048F2020511F8010B2B2806D0622809D03E
:1010D00011F8010C74280AD00BE045F0030544F028
:1010E0000204EFE745F0040544F00104EAE744F0A8
:1010F000100438462146FFF739FE411C15D0002167
:10110000316171604FF40071F560F1617061200729
:1011100004D530460222002100F022F9306D40F063
:10112000010030653046BDE8F0810020FBE72DE985
:10113000F0410D460646104C206DC10704D0410811
:1011400004D020F00104F7E722460EE0542000F01E
:10115000D8F807000ED0206D47F001010843542154
:1011600020653846FFF7A0F93A4629463046BDE8E3
:10117000F0418DE70020D6E7D40100202DE9F047AB
:1011800004464FF000094FF0FF37C568D4E90486E4
:10119000A80707D0204600F093F93046FFF7F0FD8E
:1011A000002802DA3846BDE8F087280502D5404617
:1011B000FFF739FE4C212046FFF776F9206D20F02D
:1011C000010020654846EEE710B50446AFF3008005
:1011D0002046BDE81040FFF70AB810B500F0BAF994
:1011E000BDE8104000F0B0B94FF0013C50F8042BBE
:1011F00051F8043B9A4221D1A2EB0C03934313EA2A
:10120000CC1317D150F8042B51F8043B9A4215D156
:10121000A2EB0C03934313EACC130BD150F8042B2D
:1012200051F8043B9A4209D1A2EB0C03934313EA11
:10123000CC13DBD04FF00000704700BFD01A01BACA
:10124000B1FA81F101F0180122FA01F0CB40C1F1AD
:101250002001DBB2C0B2C01A2CFA01F3D11A9143BB
:1012600011EAC311E6D1704770470000004870478B
:10127000D8020020704770477047704738B5044661
:101280000A4600206946AFF30080002808BF38BD39
:1012900002460099204600F084F9012038BD012063
:1012A00000F0D3B9F8B5AFF30080054600200C4636
:1012B000102000BF0646A819A0420DD93246694643
:1012C0000020AFF30080070008BF00F0BEF90098CF
:1012D000A04218BF0546C419FFF7C8FF05600746BE
:1012E000F01D20F007004619284600F053F9B442DB
:1012F00008BFF8BDA21B31463868BDE8F84000F0D1
:1013000050B970B50646FFF7B1FF056806F10B004E
:1013100020F00704B4429CBF002070BD2B466A68D1
:10132000BAB11068A04210D304F1080188423CBF52
:101330005068586007D35168101941601168091B43
:10134000016058601460101D70BD13465268002A79
:10135000E7D121462846FFF791FF0028DED170BD76
:101360002DE9F041044616460D464769007B80078B
:101370002ED03846FFF719FD50BB3EB3012E02D0E8
:10138000022E25D104E0204600F025F905441DE099
:101390003846FFF718FDE168002841F01001E160D0
:1013A00005DA204600F058F80120BDE8F081C903B5
:1013B0000BD56268E16A914200D81146A2691144D6
:1013C0002269891A814200DD08460544002D01DAB0
:1013D0000220EAE7E16A6068E268814206D291038E
:1013E000E06203D522F4003141F01002A669002723
:1013F000AE4213DCE16A814201D90B4600E00346AC
:1014000003EB060C2369ACEB030CAC4506DD814213
:1014100001D98C4600E084469C4505D1A760276031
:1014200042F02000A5620DE0AD1BE669AE1B8142D3
:10143000A66000D90846C01A281A206058196060B2
:1014400022F0200003490840E060002084F8487042
:10145000ABE70000BFCFD7FFC16821F4001141F016
:101460008001C16000218160016070472DE9F04773
:10147000814614460E464FF0FF383248D56857690A
:10148000054209D03846A169FFF795FC002811DB19
:101490002C48C0430540E5602B4632464946384655
:1014A000FFF774FCA16920F00042B21A1144002831
:1014B000A16103D02046FFF7CFFF4046BDE8F0878B
:1014C00070B504460569C06A6168884200D808465C
:1014D000E16821F42011E160C90312D5A84208D0C7
:1014E0002246411B2846FFF7C1FF10B14FF0FF30E5
:1014F00070BD0020E562C4E90150E06820F480304E
:10150000E060002070BD10B50446C06820F02000E7
:10151000E060A16AA06988420DD02046FFF7D0FFA5
:10152000E06820F4405040F01000E060A06AA06144
:101530002069E062606044F24001E0688843E06056
:1015400010BD000010000200002801D000F01CB8FF
:101550007047000010B5014602A000F05DF80120C0
:1015600010BD000053494752545245443A20526539
:101570006469726563743A2063616E2774206F70CA
:10158000656E3A200000000001491820ABBEFEE75E
:101590002600020000210160C0E901107047102000
:1015A0007047034640688C46002818BF88423CBFFD
:1015B00003464068F8D318681844884207D00CF1F5
:1015C000030020F00700001D411A521A0146081DB1
:1015D0000A60FFF728BC10B50146C268900703D027
:1015E000900607D5886A0AE0FFF724FA0121016016
:1015F000881E10BD8B69486818440B69C01A91F8A1
:1016000048301BB191F84910401A10BD1103FCD5A8
:101610000028FADD401E10BD70B505460C460A20B4
:1016200000E06D1C00F018F835B128780028F8D1DA
:1016300002E0641C00F010F814B120780028F8D102
:10164000BDE870400A2000F007B810B500F00CF8B3
:10165000BDE81040FFF778BF08B569468DF8000077
:101660000320ABBE08BD000010B5012805D0002145
:1016700003A0FFF7D1FF012010BD09A1F8E700008A
:1016800053494752544D454D3A204F7574206F666B
:101690002068656170206D656D6F727900000000D3
:1016A0003A2048656170206D656D6F727920636FB7
:1016B00072727570746564005FEA400C08BF91F047
:1016C000000F4FEA8C234FEAC12243EA51514FEAFF
:1016D0001C5018BF00F5F0404FEA300018BF41F031
:1016E00000415FEA6C5C00F02980BCF1FF3F08BF5D
:1016F00040F080407047130C06BF12044FF0100CEE
:101700004FF0000C130E04BF12020CF1080C130F63
:1017100004BF12010CF1040C930F04BF92000CF1F2
:10172000020CD30F04BF52000CF1010C11464FF014
:101730000002A0F11F00A0EB0C00704711F0004F59
:1017400008BF704731F000413FF4D5AF0B0C06BF26
:1017500009044FF0100C4FF0000C0B0E04BF0902EF
:101760000CF1080C0B0F04BF09010CF1040C8B0FDA
:1017700004BF89000CF1020CCB0F04BF49000CF12F
:10178000010CCCF12003A0EB0C0022FA03F302FAC7
:101790000CF241EA030100F10100704720F07F4C98
:1017A00080EA030023F07F47ACEB070303F57C538B
:1017B00000F0004003F1FF032DE980494FEA154B8B
:1017C00009B44FEA144325EA0B4E24EA03480FF20A
:1017D000042606EB132749083E785FEA320203FB32
:1017E0000667C7F5000707FB06F64FEA54374FEACE
:1017F000D64606F1020607FB066CCCF1005C4FEA08
:101800001C472CEA074C07FB06F40CFB06F504EB1F
:1018100015464FEA961634BF00204FF000404FEABD
:10182000D13706FB07FC4FEA1C4C0CFB0BF7D21B15
:1018300003FB0CF761EB07010CFB0EF7B0EB074065
:1018400072EB17420CFB08F734BFA2EB0742B2EB76
:10185000074261EB17414FEA0C444FEA910706FB40
:1018600007FC4FEA1C4C0CFB0BF7B0EBC74072EBCC
:10187000573203FB0CF734BFA2EBC742B2EBC742AF
:1018800061EB57310CFB0EF7B0EBC70072EB5772F0
:101890000CFB08F734BFA2EBC702B2EBC70261EB47
:1018A0005771039F4FEA816141EA921104EBCC0426
:1018B0004FEAD1374FEA826206FB07FC42EA9012F8
:1018C0004FEA80604FEA1C4C0CFB0BF7D21B03FB6A
:1018D0000CF761EB07010CFB0EF7B0EB074072EB66
:1018E00017420CFB08F734BFA2EB0742B2EB0742EA
:1018F00061EB17414FEA8C554FEA910704EB9C24AA
:1019000006FB07FC4FEA1C4C0CFB0BF7B0EBC74087
:1019100072EB573203FB0CF734BFA2EBC742B2EBBA
:10192000C74261EB57310CFB0EF7B0EBC70072EB0F
:1019300057720CFB08F734BFA2EBC702B2EBC70229
:1019400061EB577115EB4C254FEA816141EA921129
:101950004FEA82624FEAD13742EA901206FB07FC57
:1019600044F100044FEA80604FEA1C4C0CFB0BF77B
:10197000D21B03FB0CF761EB07010CFB0EF7B0EB7E
:10198000074072EB17420CFB08F734BFA2EB07428B
:10199000B2EB074261EB174115EB1C154FEA8131A1
:1019A00041EA92414FEA823242EA90424FEA803065
:1019B0004FEA0C7644F1000448EA03434EEA0B4830
:1019C0004FF0000EB2EB080C71EB030724BF624628
:1019D00039464EEB0E0E4FF0000B001852414941B4
:1019E0004BEB0B0BB2EB080C71EB03077BF1000B1D
:1019F00024BF624639464EEB0E0E4FF0000B001826
:101A0000524149414BEB0B0BB2EB080C71EB030756
:101A10007BF1000B24BF624639464EEB0E0E51EAB5
:101A2000020718BF46F0010616EB0E7655F10002CC
:101A300054F1000103D5BDE88901BDE80088BDE887
:101A40008901BDE80048B619524141EB0101A3F1FB
:101A50000103704780807F7E7D7C7B7A7978777602
:101A600076757473727171706F6E6E6D6C6C6B6A7B
:101A70006A69686867666665646463636261616019
:101A8000605F5F5E5E5D5D5C5C5B5B5A5A59595896
:101A90005857575656555555545453535252525100
:101AA000515050504F4F4F4E4E4D4D4D4C4C4C4B56
:101AB0004B4B4A4A4A49494948484847474747469D
:101AC00046464545454444444443434343424242D9
:101AD00042414141002B9C4630D477002BD01CB5AD
:101AE0004FEA370703B44FF010004FF01001BAF17E
:101AF000000F06D0BCF1000FDCBF40F0080040F042
:101B000008014FF000000FBCBDE810400BF1010BC5
:101B1000BBF1010F08BF5FEA170722BF12F10102F4
:101B200011F101014FF0004143F1000300F00040CA
:101B300043EA00007047F9D35708D0E746EA064663
:101B400013F1400F4FEA16461FDD13F1200FDFBFE0
:101B500016430A46002120335B42BED0C3F1200762
:101B600046EA064602FA07F74FEA164646EA07062D
:101B7000C3F1200722FA03F201FA07F721FA03F171
:101B80004FF0000342EA0702A7E746EA020646EAE8
:101B900006464FEA164646EA0106BCBF46EA064636
:101BA000360C4FF000034FF000024FF0000194E7B5
:101BB0002DE9804C9A46934670B491E8380007C8E6
:101BC00031EA400C48BF34EA430C03D5FFF7E6FD89
:101BD000FFF780FFF0BCBDE8008C2DE9804C9A46F1
:101BE000934670B491E8380007C810F0804F08BFE2
:101BF00013F0804F03D100F005F8FFF76BFFF0BC46
:101C0000BDE8008C20F07F4780EA030023F07F4C82
:101C100007EB0C03A3F57C5300F00040A3F1FE0397
:101C200092F0000F00F0B38095F0000F00F0778085
:101C30002DE901494FEA11404FEA144621EA0048D4
:101C400000FB06FC24EA064708FB06F607FB08F83B
:101C500000FB07F718EB06484CEB164C4FEA124B0B
:101C600018EB07484FEA15464CEB174022EA0B4E9B
:101C70000BFB06FC25EA06470EFB06F607FB0EFEED
:101C80000BFB07F71EEB064E4CEB164C4FF0000615
:101C90001EEB074E4CEB174B18EB0B0840F1000006
:101CA00018EB0E0B58EB000840F100008F1A4FF0B4
:101CB00000013CBFC943661B14BFB5EB040C0021F7
:101CC0003CBFC943F61B4FEA17444EEA8E0E27EA83
:101CD00004454FEA1C4704FB07622CEA074C05FB4E
:101CE00007F70CFB05F604FB0CFC16EB074642EB72
:101CF000174216EB0C4642EB1C421BEB060658EB58
:101D00000202414146EA9E0601D5BDE80189B619A5
:101D1000524141EB0101A3F10103BDE801894FEA02
:101D200014454FEA114724EA054621EA074C05FB12
:101D300007F406FB07F70CFB06F105FB0CFC11EBA7
:101D4000074144EB17444FEA124711EB0C4144EBB7
:101D50001C4422EA074C05FB07F206FB07F70CFBC5
:101D600006F605FB0CFC16EB074642EB174216EB9A
:101D70000C4642EB1C456A1854F1000148BF7047FD
:101D8000B619524141EB0101A3F10103704795F0EF
:101D9000000F37D04FEA11424FEA144721EA0246BA
:101DA00024EA074C02FB07F106FB07F70CFB06F4DD
:101DB00002FB0CFC14EB074441EB17414FEA1547BB
:101DC00014EB0C4441EB1C4125EA074C02FB07F5E0
:101DD00006FB07F70CFB06F602FB0CFC16EB0746AE
:101DE00045EB174516EB0C4645EB1C42121951F119
:101DF000000148BF7047B619524141EB0101A3F100
:101E0000010370474FEA14454FEA114724EA05469B
:101E100021EA074C05FB07F106FB07F70CFB06F26E
:101E20004FF0000605FB0CFC12EB074241EB17419B
:101E300012EB0C4251EB1C4148BF7047921841EB2A
:101E40000101A3F101037047FEE70000014800F023
:101E5000D7B800009001002030B590F84050012420
:101E6000AC40C56B6C60046863604368102B03680A
:101E700003D099600068C26030BD9A600068C1609C
:101E800030BD704772B6FEE710B590F82110002201
:101E9000022905D00421816380F82020012010BD93
:101EA00001680B6823F00E030B6001680B6823F0D8
:101EB00001030B6090F84030C46B012101FA03F379
:101EC000636080F8211080F82020104610BD0000CB
:101ED0002DE9F05F90F821100024022903D004219D
:101EE0008163012485E001680A6822F00E020A601D
:101EF00001680A6822F001020A603F4E3E4FB215A7
:101F0000DFF8F4C0DFF8F090DFF8ECA0DFF8E8B01D
:101F1000DFF8E4E00168783F13011502ACF1640CCE
:101F2000A9F15009AAF13C0AABF1280BAEF1140E4D
:101F30004FF48018B14227D9B9420ED0614512D072
:101F400049451DD0514518D0594518D0714501D18A
:101F5000424615E0294EB14201D1012210E0274E40
:101F60001436B14201D110220AE0244E2836B14283
:101F700006D0224A3C32914201D11A4600E02A465C
:101F80001E49091F0A602BE0B94213D0614517D0E2
:101F9000494522D051451DD059451DD0714501D12B
:101FA00042461AE0B14202D14FF0807215E0134E62
:101FB000B14201D1012210E0104E1436B14201D1DC
:101FC00010220AE00D4E2836B14206D00B4A3C32B0
:101FD000914201D11A4600E02A46074980394A60F9
:101FE000012180F82110002180F82010416B01B1FF
:101FF00088472046BDE8F09F800002400804024068
:102000002DE9F05FC16B0A6801680B68046C4FF042
:10201000040808FA04F8844D844E854FDFF814C292
:10202000DFF81492DFF814A2DFF814B2DFF814E23C
:1020300018EA020F65D05FEA437862D50A68920613
:1020400003D40A6822F004020A60DFF8F0814FF43A
:102050008062016808F1140813011402414524D973
:10206000A9420DD0B1420FD0B9421AD0614515D066
:10207000494515D0514501D1120312E0594501D10E
:1020800004220EE0714501D140220AE06D4D143565
:10209000A94206D06B4A2832914201D11A4600E08B
:1020A00022466749091F0A6029E0A94213D0B142BC
:1020B00015D0B94220D061451BD049451BD05145B0
:1020C00002D14FF4800217E0414502D14FF0806207
:1020D00012E0594501D104220EE0714501D14022A0
:1020E0000AE0584D1435A94206D0564A283291428A
:1020F00001D11A4600E022464B4908394A60C16ABC
:1021000071E04FF0020808FA04F818EA020F70D0E4
:102110005FEA83786DD50A68920606D40A6822F0D1
:102120000A020A60012180F82110DFF810814FF4C3
:102130000072016808F1140813011402414524D902
:10214000A9420DD0B1420FD0B9421AD0614515D085
:10215000494515D0514501D1120312E0594501D12D
:1021600002220EE0714501D120220AE0354D1435DE
:10217000A94206D0334A2832914201D11A4600E0E2
:1021800022462F49091F0A6029E0A94213D0B14213
:1021900015D0B94220D061451BD049451BD05145CF
:1021A00002D14FF4001217E0414502D14FF0007206
:1021B00012E0594501D102220EE0714501D12022E1
:1021C0000AE0204D1435A94206D01E4A2832914219
:1021D00001D11A4600E02246134908394A6000211D
:1021E00080F82010816A00291CD0BDE8F05F084704
:1021F000FFE70825A540154214D01A0712D50A6832
:1022000022F00E020A6090F84020C36B012101FA0F
:1022100002F25A60816380F82110002180F82010BA
:10222000016BE0E7BDE8F09F080002401C0002409F
:102230003000024044000240580002406C0002405E
:10224000080402401C04024030B560B11A4B026819
:1022500014219A4209D2194B1344B3FBF1F18900BE
:10226000016417490AE0012030BD134B5B4213445F
:10227000B3FBF1F1890001640F490839C163022100
:1022800080F82110136843F6F0718B43F0E90114D4
:102290002143D0E902452C43214304692143446989
:1022A00021438469214319431160002141630122C4
:1022B00042770177084630BD08040240F8FFFDBFB1
:1022C0000000024070B5044690F820000025012867
:1022D0000CD0012084F8200094F821600020012E09
:1022E00006D084F820000225284670BD022070BD6B
:1022F000022684F82160A0632068066826F00106A3
:1023000006602046FFF7A8FDE06A00282068016803
:1023100002D041F00E0106E021F0040101602068C6
:10232000016841F00A0101602068016841F0010183
:102330000160D9E72DE9F84FDFF8C8910024A9F131
:10234000040B23460F2709F1040AABF1040ED1E078
:102350000125A54006EA0502AA4276D1DFF8A8C108
:102360004E68A6EB0C0866452BD00DDC032E34D04E
:1023700005DC36B3012E19D0022E2FD11BE0112E11
:1023800016D0122E2AD119E0B8F5881F19D006DC14
:10239000B8F5803F15D0B8F5801F1FD111E0B8F512
:1023A000001F0ED0B8F5041F18D10AE0CB6815E065
:1023B000CB681B1D12E0CB6808330FE0CB680C33F1
:1023C0000CE08B682BB1012B4FF0080303D0456163
:1023D00004E0042302E0056100E00023FF2A01D8A5
:1023E000064601E000F104064FEA840501D9A5F193
:1023F0002005D6F8008007FA05FC28EA0C0803FA45
:1024000005F548EA0508C6F800804D68ED0070D56E
:102410003E4DAE6946F00106AE61AD6924F003069B
:1024200005F0010500953A4D06EB050CDCF8085067
:10243000A607360F07FA06F825EA0805DFF8D48064
:10244000404503D14FF0000825E052E0DFF8C88096
:10245000404502D14FF001081DE0DFF8C080404543
:1024600002D14FF0020816E0DFF8B480404502D1F7
:102470004FF003080FE0DFF8AC80404502D14FF089
:10248000040808E0DFF8A080404502D14FF00508BD
:1024900001E04FF0060808FA06F848EA0508CCF80B
:1024A00008804D68D9F80060ED024D4601D516430D
:1024B00000E096432E604D68DAF80060AD025546A4
:1024C00001D5164300E096432E604D68DBF80060AE
:1024D000AD035D4601D5164300E096432E604D687E
:1024E000DEF80060ED03754601D5164300E0964323
:1024F0002E60641C0A681646E2407FF429AFBDE8EE
:10250000F88F000008040140000011100010024084
:102510000000014000080140000C01400010014093
:102520000014014000180140001C0140014880686F
:10253000704700002800002002488168027811449A
:102540008160704728000020074810B5016841F0FD
:1025500010010160032000F075F80F2000F006F86C
:1025600000F024F8002010BD0020024070B50D4D91
:1025700004464FF47A712878B1FBF0F00A490968F3
:10258000B1FBF0F000F0DCFA48B9102C07D20022C1
:102590002146501E00F036F800206C6070BD01200E
:1025A00070BD000028000020340000200C4808B551
:1025B000816941F001018161816901F001010091AE
:1025C000C16941F08051C161C06900F08050009044
:1025D0000448416821F0E06141F00071416008BDAC
:1025E0000010024000000140002809DB00F01F023B
:1025F000012191404009800000F1E020C0F8001165
:1026000070470000F0B40E4B1B680C46C3F3022366
:10261000C3F10705042D00D90425191D072901D28E
:10262000002300E0DB1E012606FA05F1491E2140C9
:1026300099409E40761E16403143F0BC01F07CB9B3
:102640000CED00E0064900F0070208684FF6FF03B2
:10265000184040EA0220034A104308607047000017
:102660000CED00E00000FA052DE9F0470F460500EB
:1026700061D0434E306800F00700B84209D230689C
:1026800020F0070038433060306800F00700B8429F
:1026900051D128683B4C810712D5400703D56068AB
:1026A00040F4E06060602878000703D5606840F47B
:1026B000605060606068A96820F0F00008436060C6
:1026C0002878C00728D06868012810D0216802281F
:1026D00010D0890700292EDA616821F00301014337
:1026E0006160FFF723FF804641F288390DE02168E1
:1026F0008903EFE78901EDE7FFF718FFA0EB080179
:10270000494502D90320BDE8F0876068696800F098
:102710000C00B0EB810FEFD1306800F00700B84239
:102720000BD9306820F0070038433060306800F083
:102730000700B84201D00120E5E72878400705D519
:102740006068E96820F4E06008436060287800076A
:1027500006D56068296920F4605040EAC1006060D5
:1027600000F038F86168084AC1F30311515CC840B1
:102770000649086006480068FFF7F8FE0020C2E737
:102780000020024000100240F23D0008340000200A
:102790002C0000200448054900684968044AC1F338
:1027A0000221515CC84070473400002000100240F4
:1027B000023E00080448054900684968044AC1F31C
:1027C000C221515CC8407047340000200010024014
:1027D000023E00080E4A51680E4801F00C03042B1B
:1027E00011D0082B0FD10C48C1F38343C903C05C3F
:1027F0000AD55168084AC1F34041921E515C054A0E
:102800005043B0FBF1F07047044948437047000063
:102810000010024000127A00E23D000800093D006D
:102820002DE9F84F040070D02078C04DC00749D082
:102830006868C0F38100012807D06868C0F3810090
:10284000022809D16868C00306D52868800339D5F5
:1028500060680028E7D035E06068B0F5803F0BD0B5
:1028600010B1B0F5A02F11D0286820F48030286076
:10287000286820F4802002E0286840F48030286036
:10288000606890B1FFF752FE06460AE0286840F4FF
:1028900080202860F0E700BFFFF748FE801B642817
:1028A00073D828688003F7D50CE0FFF73FFE064693
:1028B00005E000BFFFF73AFE801B6428F0D82868C7
:1028C0008003F7D420789A4E80074FF001094FF02B
:1028D000000839D5686810F00C0F07D06868C0F39D
:1028E0008100022809D16868C00306D428688007DF
:1028F00014D52069012808D110E02069B0B1C6F8CC
:102900000090FFF713FE074605E00AE1FFF70EFE11
:10291000C01B0228C4D828688007F7D528686169D9
:1029200020F0F80040EAC10028600DE0C6F8008001
:10293000FFF7FCFD074604E0FFF7F8FDC01B022887
:1029400023D828688007F7D4207800072CD5794849
:10295000A169D9B1C0F80090FFF7E8FD074604E08F
:10296000FFF7E4FDC01B02280FD8686A8007F7D57F
:1029700071484FF4FA510068B0FBF1F0009000BFCD
:102980000098411E0091FAD20EE080E0C0F800806D
:10299000FFF7CCFD074604E0FFF7C8FDC01B022887
:1029A00075D8686A8007F7D42078400760D5E86951
:1029B0000027C00008D4E86940F08050E861E86969
:1029C000012700F0805000905C480168C90513D4CD
:1029D0000168834641F480710160FFF7A7FD8246DC
:1029E00006E000BFFFF7A2FDA0EB0A0064284ED866
:1029F000DBF80000C005F5D5E06801280AD008B171
:102A0000052813D0286A20F001002862286A20F0E7
:102A1000040002E0286A40F001002862E06841F208
:102A2000883B98B1FFF782FD82460BE0286A40F0B0
:102A300004002862EEE700BFFFF778FDA0EB0A0173
:102A400059455AD8286A8007F6D50CE0FFF76EFD85
:102A5000824605E0FFF76AFDA0EB0A0159454CD814
:102A6000286A8007F6D41FB1E86920F08050E86139
:102A7000E06988B36968C1F38101022944D0022862
:102A8000C6F8608004D0FFF751FD044638E034E01A
:102A9000FFF74CFD074604E0FFF748FDC01B022886
:102AA0002BD828688001F7D4206AB0F5803F05D183
:102AB0006868A16820F4003008436860D4E9080120
:102AC0000843696821F4741108436860C6F860908F
:102AD000FFF72CFD044606E025E000BFFFF726FDCA
:102AE000001B022809D828688001F7D51BE000BF29
:102AF000FFF71CFD001B022802D90320BDE8F88F58
:102B000028688001F4D40EE00128F7D06868226AB2
:102B100000F48031914204D1616A00F4701088425F
:102B200001D00120EAE70020E8E7000000100240A1
:102B30000000424280044242340000200070004005
:102B400010B5401EB0F1807F01D3012010BD4FF0C1
:102B5000E02460610F21601700F0EEFE0020A0610C
:102B600007202061002010BD7047704770B590F8B5
:102B70003C20012A2CD0012480F83C40022280F81D
:102B80003D2003685A689D6822F070060A68324347
:102B90005A60104B02689A420ED00F4B9A420BD0EB
:102BA000B2F1804F08D00D4B9A4205D00C4B9A429F
:102BB00002D00C4B9A4204D1496825F08003194396
:102BC000916080F83D40002180F83C10084670BDBF
:102BD000022070BD002C0140003401400004004080
:102BE00000080040000C004010B5040003D094F829
:102BF0003D0010B107E0012010BD002084F83C002A
:102C0000204600F01FF8022084F83D00211D2068B6
:102C100000F066FC012084F8460084F83E0084F849
:102C20003F0084F8400084F8410084F8420084F8B2
:102C3000430084F8440084F8450084F83D000020F7
:102C400010BD000008B500680B49884212D10B483E
:102C5000C16941F01001C161C069002200F010009B
:102C6000009011463620FFF7CDFCBDE80840362025
:102C7000FFF7BABC08BD0000001000400010024081
:102C800090F83D10012901D001207047022180F801
:102C90003D100168CA6842F00102CA6000680E492E
:102CA00088420ED00D4988420BD0B0F1804F08D039
:102CB0000B49884205D00B49884202D00A49884214
:102CC00004D1816801F00701062903D0016841F0B1
:102CD0000101016000207047002C014000340140D8
:102CE0000004004000080040000C00402DE9F041C5
:102CF0000D46040003D094F83D0018B108E001200F
:102D0000BDE8F081002084F83C00204600F040F847
:102D1000022084F83D002068816844F20702914354
:102D20008160211D206800F0DBFB226890689169BA
:102D3000166A2B68AF69034340F20330814341EACE
:102D40000721A868EF6908434FF6FC418843E9680A
:102D500040EA0720014328692F6A000140EA073052
:102D6000084369686D6926F0220646EA051529437D
:102D700093602268906154F8460B0162012004F8C8
:102D80001F09E0752076E0762077A0750020B7E770
:102D900000B585B000210091019102910391006876
:102DA000114988421ED11148C16941F00201C16137
:102DB000C16901F002010491816941F0040181615E
:102DC0008069694600F004000490C0200090084823
:102DD000FFF7B0FA002211461D20FFF713FC1D205B
:102DE000FFF702FC05B000BD0004004000100240E7
:102DF0000008014070B590F83E60044690F83F50DE
:102E000090F8423090F84320022021B104290ED0DE
:102E1000012E1BD114E0012E18D1012B16D184F8FC
:102E20003E0084F8420001220021206820E0012DAC
:102E30000CD1012A0AD184F83F0084F8430014E041
:102E4000012D03D1012B01D1012A01D0012070BD38
:102E500084F83E0084F83F0084F8420084F8430080
:102E600001220021206800F089FB01220421206852
:102E700000F084FB2068016841F00101016000203E
:102E800070BD70472DE9F04104460068C6680569C9
:102E90004FF00007A90713D5B10711D5F91E01613D
:102EA00001202077206880698007204602D0FFF744
:102EB000E8FF04E000F07EF8204600F07CF8277779
:102EC000680716D5700714D521686FF004000861F3
:102ED000022020772068806910F4407F204602D0CD
:102EE000FFF7CFFF04E000F065F8204600F063F83C
:102EF0002777280715D5300713D521686FF008000C
:102F00000861042020772068C0698007204602D02D
:102F1000FFF7B7FF04E000F04DF8204600F04BF853
:102F20002777E80616D5F00614D521686FF0100053
:102F30000861082020772068C06910F4407F20468F
:102F400002D0FFF79EFF04E000F034F8204600F0C6
:102F500032F82777E80708D0F00706D021686FF02D
:102F600001000861204600F027F8280608D5300641
:102F700006D521686FF0800008612046FFF7F4FD58
:102F8000680608D5700606D521686FF04000086114
:102F9000204600F027F8A8060AD5B00608D5216813
:102FA0006FF0200008612046BDE8F041FFF7DDBD6D
:102FB000BDE8F081704770470068074988420AD130
:102FC0000648006800680649C206086801D5401E28
:102FD00000E0401C086070470004004044000020EE
:102FE000000000207047704770470000F8B5016886
:102FF00004460868CA684B6910F00F0F4FF00005CF
:1030000059D003F0010602F49077374365D0C10729
:1030100005D0D10503D5616C41F001016164410720
:1030200005D5D90703D0616C41F0020161648107C5
:1030300005D5D90703D0616C41F004016164010733
:1030400007D502F02001314303D0616C41F0080143
:103050006164616C00293AD0800604D5900602D5DF
:10306000204600F020FB20684069616CC0F38010AE
:10307000090700D460B3204600F0E0FA20684069F8
:10308000400621D52068143050E8001F21F040018F
:1030900040E80012002AF5D1E06BA8B16D49416308
:1030A000E06BFEF715FF002811D0E06B416B01B01B
:1030B000BDE8F040084783060FD593060DD520469E
:1030C000BDE8F84000F0EFBA2046FFF78DFFF8BDED
:1030D0002046FFF789FF6564F8BD266B2023012E8B
:1030E0007CD1C6067AD5D60678D50868486800909F
:1030F00048694FF00206400640D5E16B0868406819
:103100000004000CE8D0A28D8242E5D9E0858869F0
:1031100020282DD020680C3050E8001F21F4807149
:1031200040E80012002AF5D12068143050E8001F52
:1031300021F0010140E80012002AF5D12068143086
:1031400050E8001F21F0400140E80012002AF5D1AC
:1031500084F84230256320680C3050E8001F21F0CD
:10316000100140E80012002AF5D1E06BFEF78CFE5A
:103170006663A08DE18D401A81B22AE0A08DE18DB9
:10318000401A81B2E08D0028A6D00029A4D0226880
:103190000C3252E8000F20F4907042E80007002F34
:1031A000F5D12068143050E8002F22F0010240E8E9
:1031B0000027002FF5D184F84230256320680C30B9
:1031C00050E8002F22F0100240E80023002BF5D138
:1031D00066632046FFF707FFF8BDFFE705062BD51E
:1031E000150629D594F841002128F5D1A068B0F53D
:1031F000805F01D12069B0B1206A411C2162216841
:1032000000784860E08C401E0004000CE084E3D1AC
:103210002068C16821F08001C1602068C16841F068
:103220004001C160D8E7206A0088C0F30800486008
:10323000206A801C2062E5E74006CDD55006CBD53C
:10324000CA68204622F04002CA6084F8413000F08B
:10325000CDF8C1E79735000870B5040004D094F8A4
:103260004100002510B106E0012070BD84F84050F7
:10327000204600F023F8242084F841002068C1682B
:1032800021F40051C160204600F06EFA2068016907
:1032900021F4904101612068416921F02A014161D6
:1032A0002068C16841F40051C1606564202084F841
:1032B000410084F842006563002070BD70B586B09F
:1032C000002506460095019502950395006823495F
:1032D000884240D12249886940F4804088618869E9
:1032E00000F480400490886940F004008861886997
:1032F0001C4C00F00400049048150090022001903E
:103300000320039069462046FFF714F82015CDE905
:103310000005694620460295FFF70CF8134C124849
:1033200020601020C4E901058020C4E903054001A4
:103330006561C4E906502046FEF786FF08B1FEF736
:10334000A1FDB4630022114625206662FFF75AF9F9
:103350002520FFF749F906B070BD00000038014094
:10336000001002400008014044000240900100208B
:103370007047000070B5044690F84100202801D045
:10338000022070BD49B342B32162A284E2840020CE
:103390006064212384F84130A56B114BAB62A56BAF
:1033A000104BEB62A56B104B2B63A36B5863256826
:1033B00013462A1DA06BFEF785FF21686FF04000C1
:1033C00008602068143050E8001F41F0800140E898
:1033D0000012002AF5D1002070BD012070BD000050
:1033E000F135000833360008A735000870477047EC
:1033F000FEE7000010B58CB024216846FDF754F8B4
:1034000000241548099413490A94C0E900144FF6A2
:10341000FF71C0E90241046184610120CDE900042B
:10342000CDE902040494CDE90540079469460A48B1
:103430000894FFF75BFC08B172B6FEE7099409A98E
:1034400005480A94FFF792FB002801D072B6FEE708
:103450000CB010BD0004004044000020FEE7FEE771
:1034600070477047FFF768B830B58FB028216846BD
:10347000FDF71AF814210AA8FDF716F8012108042F
:10348000CDE900100024029402250491CDE90750F3
:103490004FF4E01009906846FFF7C2F908B172B620
:1034A000FEE70F20CDE90A054FF48060CDE90C401E
:1034B00002210AA80E94FFF7D7F8002801D072B6AF
:1034C000FEE70FB030BD70470148FFF7DBBC0000DE
:1034D000440000200148FFF7D5BC00008C0000200C
:1034E000F0B50268204C214D214E224F224B4FF067
:1034F000804CA04209D0984207D0604505D0A84230
:1035000003D0B04201D0B84204D122F0700E4A6814
:1035100042EA0E02A04209D0984207D0604505D089
:10352000A84203D0B04201D0B84203D122F4407582
:10353000CA682A434D6922F080022A4302608A68E1
:10354000C2620A688262A04201D0984201D1096930
:103550000163012141610169C90703D0016921F0BB
:1035600001010161F0BD0000002C01400004004099
:1035700000080040000C00400034014010B501F08C
:103580001F030121046A99408C430462016A9A4036
:103590001143016210BD10B5406A0021C185C1848C
:1035A000FFF722FD10BD70B5446A2068406994F8A9
:1035B0004110C0F3C0100025212904D118B1E584C1
:1035C000204600F062F82068406994F84210C0F389
:1035D0008010222904D118B1E585204600F02EF88C
:1035E000606C40F0100060642046FFF7FDFC70BD89
:1035F00010B50146406A09680968890616D4002199
:10360000C1840168143151E8002F22F0800241E8A2
:103610000023002BF5D101680C3151E8002F42F056
:10362000400241E80023002BF5D110BDFFF7DEFE7C
:1036300010BD10B5406AFFF7DAFE10BD01680C310D
:1036400051E8002F22F4907241E80023002BF5D1BD
:103650000168143151E8002F22F0010241E80023F3
:10366000002BF5D1016B012909D101680C3151E81A
:10367000002F22F0100241E80023002BF5D1202179
:1036800080F8421000210163704701680C3151E855
:10369000002F22F0C00241E80023002BF5D12021A9
:1036A00080F84110704708B590F84210222901D0E7
:1036B000022008BD82684FF480539A4201D101690B
:1036C00021B1816A9A421BD04AB10AE00268816A3C
:1036D0005268C2F308020A80816A891C08E0026904
:1036E00072B10268526802F07F020A70816A491C56
:1036F0008162C18D491E0904090CC18503D01BE0FC
:1037000002685268F1E70168CA6822F02002CA60C4
:103710000168CA6822F48072CA6001684A6922F0AE
:1037200001024A61202180F8421000214163026BAE
:10373000012A03D0FFF71CFE002008BD01630168C9
:103740000C3151E8002F22F0100241E80023002B39
:10375000F5D101680A68D20602D50A684968009165
:10376000818DFFF740FCE7E770B50446006801690A
:10377000E26821F44051114301612169A0680843C6
:10378000616908432168CA6841F20C639A430243A5
:10379000CA6020684169A26921F440711143416106
:1037A0001E492068884202D1FFF704F801E0FEF7C5
:1037B000F1FF00EBC00101EB0012606864218000A2
:1037C000B2FBF0F3B3FBF1F36FF018067343B2FBF7
:1037D000F0F5B2FBF0F605EB8305322303EB05159C
:1037E000B5FBF1F5B6FBF1F605F0F00505EB0615B6
:1037F000B2FBF0F6B2FBF0F0B0FBF1F06FF01802A4
:10380000504306EB800003EB0010B0FBF1F02168A1
:1038100000F00F002844886070BD000000380140AF
:103820000148FFF7E3BB0000D4000020FEE70000E2
:103830002DE9F047164F86B004460FC70D461646D1
:10384000184600F07FF981468A46304600F07AF942
:1038500006468846284600F075F905460F4620467C
:1038600000F070F9CDE9005702AC024684E8400749
:1038700007480B4607A16438FCF7ECFC06B0044986
:10388000BDE8F04782B26439A1F14800FFF772BD8C
:1038900080010020416E676C653A252E32662C52FD
:1038A00065766F6C7574696F6E733A252E32662C6F
:1038B00053706565643A252E32662C54696D653AFD
:1038C000252E32660D0A000000B589B0202207A11E
:1038D0006846FCF7B7FD6846FCF795FD82B269467D
:1038E0000A48FFF747FD09B000BD00002D2D2D56F9
:1038F0004F4641204D4F544F5220454E434F444573
:103900005220444154412D2D2D0D0A00D400002099
:10391000490050EAC12018BF04204A0D18BF40F0EA
:10392000010040F2FF72B2EB515F08BF40F00200AD
:10393000012808BF052070470907090E002804DB8D
:1039400000F1E02080F80014704700F00F0000F153
:10395000E02080F8141D704730380A2801D2012079
:103960007047002070478A68002A01DCFDF782BAA0
:10397000521E8A604A68C0B2531C4B601070704778
:103980001CB5FEF7E1FDFFF76FFD4448816941F08A
:1039900020018161816901F020010091816941F07C
:1039A00004018161816901F004010091416941F0E4
:1039B000010141614069002200F0010000901146C0
:1039C0000E20FEF71FFE0E20FEF70EFE354834498E
:1039D000002401604FF4E131C0E901140C21C460FE
:1039E000C0E904418461C461FFF736FC08B172B6D6
:1039F000FEE7FFF7FFFC2B48009448382A49019462
:103A0000016041F61F41C0E9011463218461C16076
:103A1000FFF7EAF808B172B6FEE72248009469465B
:103A200048380194FFF7A2F808B172B6FEE71D48C6
:103A30003C219038FFF7DEF91A489038FFF720F95B
:103A400018484838FFF71CF91648FFF705FCFFF740
:103A50003BFF16A0FCF7F2FB042322224FF4FA717D
:103A60001BA0FCF7EBFB274C274D00BFFEF75EFDCC
:103A70006169401A3228F9D3FEF758FD00F050F979
:103A8000294600F08BF8034604F1080007C8FFF749
:103A9000CFFEFEF74BFD6061E8E70000001002403A
:103AA00000380140D40000200010004053544D3332
:103AB0003220456E636F64657220416E676C6520CD
:103AC0005265616465722053746172740D0A00005E
:103AD000456E636F646572205050523A2025642C05
:103AE000204765617220526174696F3A2025642C09
:103AF000204D756C7469706C6965723A2025640D8F
:103B00000A0000000000002000007A4410B50029DF
:103B10000AD00878002807D005487844FDF764FBF0
:103B2000002801D0002010BD0248784410BD0000DC
:103B3000B2030000AA0300000808A0F500114FEA34
:103B40003101704743004FEAD30C4FEA3C0C43402D
:103B50001FBF40070CF1605113F0FE4F70471CF07F
:103B6000006F03D100200CF0004170470CF00043BF
:103B700043EA507010B540EACC0000F0E4F800BF12
:103B8000000000924FEA0001FFF7D6BF4FF000415E
:103B90004FF00000A1F50021704700004FF47F0CAA
:103BA0001CEAD0121EBF1CEAD11392EA0C0F93EA52
:103BB0000C0F00F0858090EA010F48BF42F480723C
:103BC00040F4000C41F400002CF07F4120F07F40D5
:103BD00000B58142A2EB03020FF2081CACEB504E81
:103BE000C0F100009EF800E04FEA4E0E00FB0EFC14
:103BF00038BF49004FEA2C1C02F5FA020CFB0EF309
:103C00004FEACE1E4FEA112C4FEAC1210EEB635E44
:103C100042EB22420EFB0CFC4FEA1C5300FB03114B
:103C20004FEA112C4FEA01310EFB0CFC4FEADC4C41
:103C300000FB0C11C14228BF09184CEB03335DF89F
:103C400004EB10EB410143EBC250B2F57C0F38BFDF
:103C5000704729D512F0F00F1CBF00F1C04000F0F2
:103C600000407047008182838485868788898B8C99
:103C70008D8E8F919293959697999A9C9D9FA0A2D5
:103C8000A3A5A7A8AAACAEB0B2B3B5B7B9BCBEC025
:103C9000C2C5C7C9CCCED1D4D7D9DCDFE2E6E9ECC6
:103CA000F0F3F7FAFE0000004FEA400C0CF1807CC4
:103CB000BCF17E4F28BF7047B0F1C04000F089B81A
:103CC00090EA010F0CEAD11348BF42F480726245BA
:103CD00038BF634507D213F47F0F16D080EA010086
:103CE00000F00040704710B500F02DF8097EFC3E52
:103CF00000F005B880EA010000F00040704780EA5B
:103D0000010000F0004000F064B812F47F0F04BF1F
:103D10000248704780EA010000F05BB80000C07FF5
:103D2000B0FA80F310FA03F2C3F19D030AD0D9056B
:103D300001EB1220530638BF704700F1010008BFA5
:103D400020F0010070470EF1020E2EF0030E5EF817
:103D5000044B244204D44FEA4102B2F17F4F11D800
:103D60004FEA4003B3F17F4F0CD80ED14FEAD07C1D
:103D7000B2F17F4F0CEB4C0C0CF1020C08BF4CEB7A
:103D8000D17C04E04FF0080C01E04FEAD17C0CEB51
:103D90004C0324FA03F404F00704B4F1040C06D233
:103DA0000EEB840CBDE810404CF0010C6047DFE8DE
:103DB0000CF0070802024FF00040A0F5800010BD93
:103DC0000846420018BFD2F1807288BF00F0004060
:103DD00010BDFF2141EAD050C0057047FCF7C0BCC0
:103DE000010202030405060708090A0B0C0D0E0F59
:103DF000101000000000000000000102030406078C
:103E00000809000000000102030400000240000055
:103E1000000000A00000000005400000000000C8F5
:103E2000000000000C4000000000409C000000006A
:103E3000194000000020BCBE00000000344000001B
:103E4000BFC91B8E00000004B5400000504BCFD00E
:103E50006607E2CF010000006C4100003E8251AADB
:103E6000DFEEA73401000000D9420000DCB5A0E27B
:103E70003A301F97FFFFFFFFB4450000FD25A0C8A3
:103E8000E9A3C14FFFFFFFFFFF3F000000000080DC
:103E900000000000FF3F0000000000800000000064
:103EA0003A7474003A7474003A747400E83E00087E
:103EB00000000020440000006C0100082C3F0008B6
:103EC00044000020EC080000880100081C000000ED
:103ED00043000000F8FFFFFF0C0000000E00000090
:103EE0000F0000002E000000000000000000000095
:103EF00000000000000000000000000000000000C2
:103F000000000000000000000000000000000000B1
:103F100001000000100000000000000000127A0004
:0C3F200000000000000000000000000095
:0400000508000131BD
:00000001FF
