:020000040800F2
:100000000009002015020008B5430008D34100088C
:1000100019430008092D0008BD4E0008000000002B
:1000200000000000000000000000000081490008FE
:100030000B2D000800000000DD4400088349000883
:100040002F0200082F0200082F0200082F020008CC
:100050002F0200082F0200082F0200082F020008BC
:100060002F0200082F0200082F0200082F020008AC
:100070002F0200082F0200082F0200082F0200089C
:100080002F0200082F0200082F0200082F0200088C
:100090002F0200082F0200082F0200082F0200087C
:1000A0002F0200082F0200082F0200082F0200086C
:1000B0002F020008E94900082F0200082F0200085B
:1000C0002F0200082F0200082F0200082F0200084C
:1000D0002F020008B14E00082F0200082F0200086E
:1000E0002F0200082F0200082F0200082F0200082C
:1000F0002F0200082F0200082F0200082F0200081C
:100100002F0200082F0200082F0200082F0200080B
:100110002F0200082F0200082F0200082F020008FB
:100120002F0200082F0200082F0200082F020008EB
:1001300000F002F800F05EF80AA090E8000C82449B
:100140008344AAF10107DA4501D100F053F8AFF278
:10015000090EBAE80F0013F0010F18BFFB1A43F0A5
:1001600001031847905E0000B05E0000103A24BF03
:1001700078C878C1FAD8520724BF30C830C144BF0C
:1001800004680C607047000000230024002500264E
:10019000103A28BF78C1FBD8520728BF30C148BFEA
:1001A0000B607047662905F0EF85642900F08880B0
:1001B000752900F08580732900F04984002070477C
:1001C0001FB59DE8030001F01FFF00F009FF0400C8
:1001D0000020002105F02CF9401C60600020002167
:1001E00005F010F9E06001F0D9F91FBD10B501F07C
:1001F0003EFA10BD01F0A6FA1146FFF7E1FF04F048
:1002000099FF01F0D3FE03B4FFF7F0FF03BC02F047
:10021000AFF800000948804709480047FEE7FEE7BD
:10022000FEE7FEE7FEE7FEE7FEE7FEE7FEE7FEE7A6
:1002300004480549054A064B70470000E549000897
:100240003101000800030020000900200005002003
:10025000000500200FB4044910B503AA029800F06D
:10026000FBFB10BC5DF814FBF801002070B50C46D8
:100270000546012A05D02878800600D5EA690023C2
:1002800002E0012305E05B1C934202D2E05C0028FF
:10029000F9D1A869E618C01AA861286A184428622A
:1002A0002846AFF3008004E0D5E9012114F8010BE2
:1002B0009047B442F8D32846AFF3008070BD0000E9
:1002C0002DE9F0410646002410687529314616A52F
:1002D00010D0AFF30080002802DA404213A507E0F7
:1002E00031688A0701D512A502E0490704D511A596
:1002F000012401E0AFF3008000210A2206F1240767
:1003000009E0B0FBF2FCB0FBF2F302FB1C00303062
:1003100078541846491C0028F3D123462A46304613
:10032000BDE8F04100F019B9000000002D00000008
:100330002B000000200000002DE9F0474FF0000ADC
:1003400089460446C0F820A02046E1688847002876
:1003500076D0252806D0D4E901219047206A401C98
:100360002062F1E7E168204600258847C4F81CA018
:1003700006460027C4F818A02A2E09D0304604F0FB
:100380005EFE38B304EB8708303EC8F8186019E009
:1003900059F8041B204604EB87029161E168884705
:1003A000012F064618D1E069002820DA25F0200543
:1003B0001DE0D8F8180000EB800006EB4000303854
:1003C000C8F818002046E1688847064604F037FE62
:1003D0000028EED1012F0AD02E2E08D12046E16848
:1003E00088477F1C0646022F45F02005C4DBA06924
:1003F000002803DA404245F00105A061E80701D07A
:1004000025F01005B6B1A6F14100192802D8203612
:1004100045F400654A463146204625604D46FFF7C3
:10042000C1FE58B1012806D0ED1D25F0070000F1EE
:10043000080989E704E005F1040985E730468AE701
:10044000206ABDE8F08700000FB400B58DB010A998
:10045000099000910B904FF0FF300A9000200C9013
:10046000064878440690064878446A4607900F99F3
:1004700009A800F085FD0DB05DF814FB3B0B0000F2
:10048000530B00004FF0000200B513469446964609
:10049000203922BFA0E80C50A0E80C50B1F1200197
:1004A000BFF4F7AF090728BFA0E80C5048BF0CC045
:1004B0005DF804EB890028BF40F8042B08BF7047A3
:1004C00048BF20F8022B11F0804F18BF00F8012B15
:1004D000704700004FF0013C50F8042B51F8043BEA
:1004E0009A4221D1A2EB0C03934313EACC1317D108
:1004F00050F8042B51F8043B9A4215D1A2EB0C039F
:10050000934313EACC130BD150F8042B51F8043B5E
:100510009A4209D1A2EB0C03934313EACC13DBD02C
:100520004FF00000704700BFD01A01BAB1FA81F154
:1005300001F0180122FA01F0CB40C1F12001DBB239
:10054000C0B2C01A2CFA01F3D11A914311EAC311B7
:10055000E6D170477047704770472DE9F0470D4668
:1005600099469246044600F124080168880604D59D
:10057000E06921F01001216000E00120A84201DDC6
:10058000471B00E00027A1697A1902EB0900081A4D
:10059000A0612078C00602D42046AFF30080002678
:1005A00008E0D4E901211AF806009047206A401CAF
:1005B000761C20624E45F4DB2078C0060AD5204622
:1005C000AFF3008006E0D4E9012130209047206A93
:1005D000401C2062381EA7F10107F4DC07E0D4E9D3
:1005E000012118F805009047206A401C2062281E4F
:1005F000A5F10105F3DC2046AFF30080207800066A
:1006000002D50220BDE8F0870120FBE770472DE905
:10061000FF4F0C461E464FF0FF378BB0D2E900016A
:10062000DDF860800A908A46C1F30A5505B93D4657
:10063000002108464FF00000BAF1000F00F440001E
:1006400005DA00EB80004FF4400101EA50004FEA68
:100650009059B9F1010F00DDB9460A9850EA4A00F5
:100660000ED044F61050A5F2FF3545432F14B8F1D3
:10067000000F1ED07542291E1EDDC9F100021CE0CC
:10068000B8F1010F4FF0000001D0302103E0F24338
:1006900005E02154401CB042FBDB30460022002123
:1006A00021540B99C1F80880C1E900200FB0BDE8C2
:1006B000F08FBD1B6D1CDEE74A4600DA694206A8D2
:1006C00000F0F6FE06AB93E8070003AB83E80700F3
:1006D00050460A9901F0E4FE8DE80700A0F50050AD
:1006E0001F3800900398002D0ADD42F21F014A4690
:1006F0000844002303A90390684602F08FF909E03B
:10070000A0F500504A461F38002303A9039068460D
:1007100002F0AEF98DE807000004000C03D04FF0A2
:10072000FF30410800E01046B8F1000F03D000226E
:10073000009215461EE0751E05D400F059FC3032BB
:1007400062556D1EF9D5B3460122084302D000223E
:100750007F1C04E02078302801D100227F1E002A6F
:10076000099784D01DE0112D07DA00F041FC3032EA
:1007700062556D1C50EA0102F5D1084302D0009881
:10078000C8B10EE00021681E05E0235C625C635482
:100790002254401E491C8142F7DBAB46A81B401E79
:1007A0000990002004F80B000B98099AC0F8088003
:1007B000C0E9002B7AE711264FF0000857E72DE932
:1007C000F04F88460446D21D22F0070191B0D1E9CE
:1007D0000001CDE90A0104F08DFB02460B98C00F21
:1007E00001D02D2007E02068810701D52B2002E0F1
:1007F000202101EAC000032A099001D0072A05DB65
:1008000003464146204600F059FC0BE12078800663
:1008100001D5E06900E00620B8F1650F814606D0F9
:10082000B8F1660F18D0B8F1670F70D131E0002031
:10083000B9F1110F009001DB112301E009F101036F
:100840000AAA01A90CA8FFF7E2FEDDE90C70002658
:1008500009F10105834647E001204B4600904FF027
:1008600000470AAA01A90CA8FFF7D1FEDDE90DB0E7
:100870000C995D46002610B909F101000D18B9EB7D
:10088000050003D4C0F1FF3609F10105A5EB09000D
:100890002BE0B9F1010F01DA4FF001090020B9F1A5
:1008A000110F0090484601DD112300E003460AAA1B
:1008B00001A90CA8FFF7ABFEDDE90C704D46002640
:1008C0008346207800070AD4AB4500DA5D4601A8CC
:1008D000012D04DD411911F8011C302907D04F45C5
:1008E00002DA17F1040F04DA012082460FE06D1ED0
:1008F000EEE7002F02DCED1B3E4403E0781CA8422B
:1009000000DD7D1CB81B00F1010A4FF00047207884
:10091000000703D4AA4501DB4FF0FF3A0021B7F1ED
:10092000004F0DF143088DF8431024D002202B23F3
:10093000002F01DA7F422D230A21021EA0F10100BF
:1009400000DC5FB197FBF1FC97FBF1F201FB1C7C33
:1009500017460CF1300C08F801CDEEE7A8F10100C4
:1009600003702188090501D5452100E06521A0F12A
:10097000010800F8011C09980FA9A1EB0807FF1D49
:1009800000B10120411901EBEA70A1693844081A4D
:10099000401EA0612078C00602D42046AFF300803C
:1009A000099828B1D4E901219047206A401C2062AF
:1009B0002078C00622D52046AFF300801EE0002E2E
:1009C00004DBB34502DD01A8805D00E03020D4E9FE
:1009D00001219047206A401C2062761CAAF1010088
:1009E0005FEA000A0AD100F0FBFAC0680168405CC7
:1009F000D4E901219047206A401C2062281EA5F1FD
:100A00000105DCDC07E0D4E9012118F8010B90476F
:100A1000206A401C2062381EA7F10107F3DC204643
:100A2000AFF30080032011B041E610B5436913B164
:100A3000AFF3008001E0FFF719FC012010BD127830
:100A400000F124010A7000224A700122EDE71168CA
:100A50004FF0FF32E9E70000074B70B50D467B44CD
:100A600000F019FB0446284600F094FD10B14FF049
:100A7000FF3070BD204670BDEB4500002DE9FF4FF3
:100A800006468BB00878FF2806D0491C2D2805D0D3
:100A900000244FF0000908E000200CE00124F8E7F2
:100AA00009EB8903491C00EB43090878FF28F7D1BB
:100AB00014B1C9F100008146107800252C46AA46E1
:100AC00029462D2801D02B2804D1521C2D2813D0C3
:100AD000002082468B461078FF280FD04FF0000C84
:100AE0000A21521CA5FB017804FB018105FB0C11B6
:100AF000C5194BEB0104EEE70120EAE700210846A7
:100B00004FF00000BAF1000F02D000EB8000400867
:100B1000C0F38157012F01DD4FF0FF370E9955EAE1
:100B2000040009EB01080BD04FF0020918F5FA7F19
:100B300016DA4FEACA70002F706008DD012007E066
:100B40004FEACA70C6E900B00FB0BDE8F08F0020D0
:100B5000306000F049FAC0F800901821084616E00D
:100B6000B8F5FA7F18DD002F02DAF748784401E083
:100B7000F6487844D0E90010C6E9001040EACA708F
:100B8000706000F031FAC0F80090142108460FB0F0
:100B9000BDE8F04F05F0F5B8002108464FF0000021
:100BA000B8F10001099002DAC7F1000200E03A460C
:100BB00001DAC8F1000106A800F07AFC06AB93E860
:100BC000070003AB83E8070044F23E005BEA040140
:100BD0000090584604D144F21E012C465D46009117
:100BE000210C0904014306D10099240444EA154468
:100BF0002D041039009104F07F41014306D1009982
:100C0000240244EA15642D020839009104F0704171
:100C1000014306D10099240144EA15742D01091FEE
:100C2000009104F04041014306D10099A40044EA38
:100C30009574AD00891E009104F00041084304D171
:100C400000986D196441401E00904FF001033A4630
:100C50006846B8F1000FCDE9014503A902DD01F0B6
:100C60001CFF01E001F0EFFEBAF1000F04460D4653
:100C700001D084F00044002108464FF0000009999B
:100C800040F2FF77484010F00C0F07D124F00040ED
:100C9000284303D0C4F30A50B84212D100F0A4F99B
:100CA000C0F80090C4F30A50B8420AD1A84878446A
:100CB000D0E90010C6E9001004F00041084370605C
:100CC00042E7C6E900543FE72DE9FF4F1F464FF0CA
:100CD000000A4FF0FF38454691B0D7E90146CDF8FC
:100CE0003CA000F07DF9C0680168405C1090B969D3
:100CF00012986D1C8847396A814688470028F6D1CA
:100D0000B9F1FF3F0AD0002E24F4D06411DDB9F10F
:100D10002B0F08D0B9F12D0F0BD102E0404615B0D2
:100D200013E744F48064B96912986D1C8847761EF5
:100D30008146600504A901D52D2000E02B20002E5E
:100D400001F1010B0DF130088DF810003FDDB9F114
:100D5000690F08D0B9F1490F05D0B9F16E0F02D073
:100D6000B9F14E0F1CD13B4601A8009580E8500216
:100D7000DDE912126FF0020005F06CF8C11CCED153
:100D80000EE0B96912986D1C884781461398761E4B
:100D900044F4007405600F98401C002E0F9016DD7F
:100DA000B9F1300FEDD0B9F1780F02D0B9F1580F89
:100DB0000DD10F9801280AD13B46CDE90054DDE959
:100DC0001212001F029605F043F8C11CA7D110991A
:100DD00089453ED144F0800406E01399681CAAF1CD
:100DE000010A44F400740860B9696D1C1298761EFB
:100DF000884730288146F0D02BE01099894505D1ED
:100E0000200603D4761E44F0800418E0484604F01F
:100E100016F908B3761E0DF123018B4544F40074D6
:100E200008D2A9F130000BF8010B200607D5AAF172
:100E3000010003E0200602D40AF101008246A00569
:100E400002D51399681C0860B96912986D1C88470F
:100E50008146002ED1DC53E0002E51DDB9F1650F43
:100E600002D0B9F1450F4BD1A00549D5B9696D1C28
:100E70001298761E24F440748847002E81460CDDBB
:100E80002B2804D0B9F12D0F07D144F48074B9692F
:100E900012986D1C8847761E8146E00501D52D21EC
:100EA00000E02B2108F8011BCDF8008021E0761E20
:100EB0000DF13901884544F400740CD2A9F13000D9
:100EC00010F0FF0088F8000002D10099884509D988
:100ED00008F1010806E0E00501D51E4801E042F2F4
:100EE0000F708246B96912986D1C88478146139825
:100EF0000560002E04DD484604F0A1F80028D6D194
:100F0000F96912988847FF2053468BF8000088F84B
:100F1000000000200A900B9004AA0CA90AA8FFF771
:100F2000ADFDA00502D46FF00100F8E614F0240F27
:100F300012D0E0071CD13868DDE90A12031D3B60BE
:100F40000068C0E9001213E0AC5400009E54000099
:100F500062530000F1D8FFFF0AA9684603F0FEFFC4
:100F6000E00705D13868009A011D39600068026009
:100F70002846D4E602681144137801601846704789
:100F8000D1600549794451610449794411620021D5
:100F90001161114600F0D2B8EDFFFFFFED00000037
:100FA000426842B1016811F8013B23B1521EC0E909
:100FB0000012184670470121C160881E70474268C0
:100FC0005AB1C368016843B983688B4205D0491E92
:100FD000521CC0E90012002070474FF0FF307047EC
:100FE00000487047C002002000487047A00200205F
:100FF00030B5B0F10A024FEA900E71F100034EEAEB
:10100000817EB0EB0E0061EB91014FEA101E4EEABB
:10101000017E10EB0E0041EB11114FEA102E4EEA4B
:10102000016E10EB0E0041EB11214FEA104E4EEA1B
:10103000014E10EB0E0041EB1141401841F100014F
:101040004FEAD00040EA41704FEAD10110EB800531
:101050004FEA810444EA907444EB01046D1944EBB7
:101060000404521BA3414FF0000348BF0A3200D5CD
:1010700030BD401C41F1000130BD10B5044600F008
:1010800087FB0068005D00F0010010BD01694A1C8B
:1010900002610878704700B58FB0CDE901310021B9
:1010A000059105497944CDE9031011466846FFF7DB
:1010B00043F90FB000BD0000E5FFFFFF2DE9F0414F
:1010C0001F46044603260168072A01F4006004DB7A
:1010D00008B116A505E016A503E008B115A500E0C6
:1010E00015A521F010002060A069C01EA0610FB1FD
:1010F000401EA0612046AFF300804FB1D4E901212A
:1011000038469047206A401C2062C01C206206E0DE
:10111000206AFAE7D4E9012115F8010B9047761E01
:10112000F8D22046AFF30080BDE8F0814E414E007A
:101130006E616E00494E4600696E66002DE9F34F00
:101140004FF0000A0C4656468DB001200C9001F17C
:101150000C000B9062690B9801219047051E2DD061
:10116000252D2CD0216A8847C0B162690B980121D6
:101170009047216A88470028F7D16269411E0B9881
:10118000904700E0761CA1690D988847216A88473E
:101190000028F7D1E1690D988847DBE7A1690D9830
:1011A0008847A842074601D1761CD3E7E1690D982C
:1011B00088477F1C02D1BAF1000F6FD06CE16269E1
:1011C0000B9800273D46394690472A2804D162698A
:1011D0000B98012190470125DFF8D08262690B98B6
:1011E00001219047A0F130010A290AD24745E5DCE8
:1011F00007EB870100EB4107303FDFD445F01005D6
:10120000ECE7E90601D46FF000476C280AD04C28BF
:1012100014D0682815D06A280DD074281CD07A28DC
:101220001AD01DE062690B98012190476C2802D00A
:1012300045F0040514E045F002050DE045F02005F9
:101240000AE062690B9801219047682802D045F0B6
:10125000080505E045F4006562690B980121904797
:10126000C4E9015765283DD019DC58287AD00CDC38
:10127000452837D004DC252826D041289ED131E0EE
:1012800046282FD0472899D12CE05B2877D06128B9
:1012900028D063287CD0642823D15AE0F7E06F2857
:1012A00048D008DC66281DD067281BD0692821D0CB
:1012B0006E2816D127E0702845D0732868D075288D
:1012C00047D078280DD14DE0A1690D988847252891
:1012D00005463FF469AFE1690D9888476D1C3FF4FE
:1012E0006AAFD9E00D9923466A466FF0010004F019
:1012F000ADFDC6E045F0400023464FF000026060BF
:10130000A80736D43EE0E8077FF447AF2068011D08
:1013100021600068290501D506701BE7290701D562
:10132000068017E7A90703D5F117C0E9006111E7A7
:1013300006600FE745F0400023464FF0080260606A
:10134000A80716D41EE040F60E0125EA01006060F1
:1013500016E045F0400023464FF00A026060A807FF
:1013600007D40FE045F040006060A80708D5234689
:1013700010220D996FF00100AFF3008081E007E0CB
:10138000102223460D996FF00100AFF3008078E042
:101390004FF0000963284F46C8464B46CB4602D063
:1013A0005B2807D039E02079C00601D40120A06075
:1013B000012732E06269D4F80CB00B980121904704
:1013C0005E2807D14FF0010949466269D4F80CB094
:1013D0000B989047216939B900210A4603AB43F8BD
:1013E0002120491C0829FADBD8B3216949B308F147
:1013F000010862690B98012190475D28F4D1B9F189
:10140000000F09D0002003A951F82020D24341F851
:101410002020401C0828F7DB03AB20690028207936
:101420004FEA40701ED05B462246CDF80080CDE9E1
:1014300001970D9900286FF0010020DAAFF30080CA
:101440001FE0C11703AA00EBD1614B1121F01F016E
:1014500002EB8302411A13680120884003431360A2
:10146000C7E719E00D99224600286FF001000097A8
:1014700002DAAFF3008004E0AFF3008001E0AFF3E5
:10148000008000280ADA401C06D10C9820B14FF0E9
:10149000FF300FB0BDE8F08F5046FAE7E90701D101
:1014A0000AF1010A064400200C9053E6CCCCCC0C87
:1014B0002DE9F047814616468AB0354878440DC874
:1014C0008DE80D0032487844801C03AC0DC884E8D8
:1014D0000D0041F69B300844372190FBF1F290FB60
:1014E000F1F5A5F1800501FB12041B3C02D5644215
:1014F000012000E00020DFF898A080460027FA4491
:10150000AAF1BE0A0EE0E0070AD03246684607EBB1
:10151000470101230AEB810101F0AAFA8DE80700D7
:1015200064107F1C002CEED1194F7F44AE3F19E0B0
:10153000E80715D007EB04100DF1180A90E80E002B
:101540008AE80E00C068F04201D19819089032462E
:10155000012306A903A801F08BFA03AB83E8070077
:101560006D10641C002DE3D14FF001033246694633
:10157000B8F1000F03A802D001F050FA01E001F029
:1015800077FAC9E90001C9F808200AB0BDE8F08778
:10159000704A0000007B00F08000704710B54248A0
:1015A0005421FEF76FFF41485421FEF76BFF40487E
:1015B0005421FEF767FF3F493B483C4A3F4B0860D8
:1015C0003D490A603A491960531C0365481C10657F
:1015D000012008653B48344A39A1784400F04AFCB0
:1015E00020B9384878440A3800F0E9FC37482F4AD7
:1015F00035A1784400F03EFC20B9344878440A38DC
:1016000000F0DDFC32482A4A2FA1784400F032FC79
:1016100020B92F4878440A3800F0D1FC40232248F2
:10162000DC000021224600F002FC20B1254878446D
:10163000543800F0C4FC1D4822464023002100F02D
:10164000F6FB20B121487844543800F0B8FC184823
:1016500022461023002100F0EAFB002806D01C4897
:101660007844BDE81040563800F0A9BC10BD1048C1
:1016700070B5006D20F001040B4800F071FC0B48C0
:1016800000F06EFC0A4800F06BFC09E0206D20F0D1
:101690000105204600F064FC204600F081F82C464D
:1016A000002CF3D170BD0000A4010020F80100203F
:1016B0004C02002024000020280000202C000020E4
:1016C000720000006A4900007700000056490000DF
:1016D000424900000EB5CDE9000100F029FE02905C
:1016E00069460120ABBE0EBD08B5694600900220D8
:1016F000ABBE08BD1FB58DE8070069460520ABBE2F
:1017000004B010BD1FB58DE80F0069460620ABBEC2
:10171000F6E708B5694600900920ABBE08BD1CB5C8
:10172000CDE9000169460A20ABBE1CBD704708B573
:10173000694600900C20ABBE08BD00000048704711
:10174000A00200207546FFF7F9FFAE460500694686
:10175000534620F00700854618B020B5FEF768FD17
:10176000BDE820404FF000064FF000074FF00008A2
:101770004FF0000B21F00701AC46ACE8C009ACE823
:10178000C009ACE8C009ACE8C0098D46704700004C
:1017900010B5FFF725FC001D10BD00BF953C0000F3
:1017A00070B50446051F00F013FC0068002C14BF40
:1017B000446870BD002C18BFAC423CBF2046646832
:1017C000F8D301680A18AA4218BF456003D12A68F5
:1017D00005461144016028684119A1421CBF6C6094
:1017E00070BD6168696021680844286070BD10B5EB
:1017F000FFF7FAFB006810BD10B50446FFF7F4FBD5
:10180000046010BD2DE9FF4F1F464FF03C0987B023
:101810004FF00042DDE9141001F10108DDF858A095
:1018200002EA405003900020059083460546044696
:101830000490B969461E08988847AAF1010A0290E7
:10184000BAF1000F3BDD02982E2815D0102100F0D0
:101850004CFC00282EDB4FF0010B0599014317D0FB
:10186000B9F1000F0BDB4A46C11700F02BFC054312
:101870000C43A9F1040905E0012004900BE008B134
:1018800045F0010501200590049820B9361D02E0BD
:10189000049800B1361FB969089808F10108884713
:1018A000BBF1000FAAF1010A0290C9D00999C1F851
:1018B0000080C5E70298702808D0502806D0F96942
:1018C00008988847BBF1000F14D04FE00020029029
:1018D0000120BBF1000F049009D0B969089808F104
:1018E00001088847AAF10109B9F1000F07DCF9697D
:1018F000089888476FF001000BB0BDE8F08F2B28E7
:1019000004D02D280CD14FF0FF300490B96908980D
:1019100008F101088847A9F10109B9F1000FE6DDD6
:10192000411CE4D00A2100F0E0FB0028DFDB029933
:1019300008F1010801EB810100EB41000290B96957
:10194000089888470A2100F0D0FB099AA9F10109FB
:10195000B9F1000FC2F8008001DD0028E7DAF9696B
:10196000089888470499029800FB016655EA04002C
:1019700004D004F04041090002D006E0039898E04A
:10198000A40044EA9574AD00B61E04F000410800BE
:1019900002D16D196441761E159810F0240F03D002
:1019A0004FF00B095C4803E04FF028096FF07D0011
:1019B0008246564507DAAAEB06018944B9F1410F80
:1019C00001DD4FF0410901200021A9F1010200F0E1
:1019D00079FB024628400B462140084301D00121F3
:1019E00000E00021501E029143F1FF3128402140C8
:1019F000084301D0012000E000200299834651EA0B
:101A00000B014FD0002108464FF00000039900F46D
:101A1000400039B100EB80004FF4400100EBD07082
:101A200001EA60008015012802DD4FF0FF3000E080
:101A300013D0401C36D0029860B3BBF1000F0CD11C
:101A40004A460120002100F03DFB28402140084388
:101A500001D0012000E00020E0B101204A46002131
:101A600000F030FB034640190A4661412D1A8C41B3
:101A700011D3B9F1400F09DD159810F0240F02D0F1
:101A8000AAF1340603E0AAF1170600E0761C00254F
:101A90004FF0004406E05B1E42F1FF3220EA0305EE
:101AA00021EA0204CAF10100B04206DA1B49039898
:101AB00008430190002000900EE0039AC4F3D32164
:101AC000E80A0A43164940EA44500A433146CDE940
:101AD0000002684603F0A8FA159810F0240F0BD006
:101AE0001598C00715D13868DDE90012031D3B6069
:101AF0000068C0E900120CE002A8694603F02EFA63
:101B00001598C00705D13868029A011D3960006830
:101B100002604046F0E6000002FCFFFF0000F07F9C
:101B20000000F03F2DE9FF4F92461D4685B04FF073
:101B30000041DDE9124BDDE914727F1E01EA4B50D2
:101B4000414940F0FF4940EA0108002122F020000D
:101B50004928049102D04E2828D04CE03BA0012611
:101B600007C88DE80700A9690698641C88477F1E8E
:101B7000014606D41DF8060018B121F0200181426B
:101B80000BD0E96906988847032E34D0082E32D04E
:101B90006FF0010009B0BDE8F08F761C032E01D074
:101BA000082EE0D1601CCAF80000DCE7A96906989D
:101BB000641C88477F1E2AD420F02000412826D1AB
:101BC000A9690698641C88477F1E20D420F0200055
:101BD0004E281CD1A9690698641C88477F1E48F4CA
:101BE000002849F48009CAF8004001D4282806D00A
:101BF000E969069888475FEACB7012D022E0A969AC
:101C00000698641C88477F1E01D4002803DAE9691E
:101C100006988847BCE72928F1D1641CCAF800401F
:101C2000E9E71BF0240F07D028680499031D2B60F7
:101C30000068C0E9001805E02868021D2A600068F5
:101C4000C0F800902046A5E70000F07F494E4649C5
:101C50004E495459000000002DE9F04705460C4656
:101C6000C86820F4201040F48000C860800602D5C7
:101C7000084600F01CFBE06841F282014FF0FF399A
:101C80000140022903D0204600F0BAFAB5E000F482
:101C90002041B1F5004F0FD1C00306D56168E06A5D
:101CA000884200D80846606006E02069E062606013
:101CB0006069FFF73CFDA061A0680022EEB2002839
:101CC0000DDAE1688B050AD4C043A06041F490307E
:101CD0002260E0606068411C61600670A5E0E06819
:101CE0009046226040F40050E060206968BB606963
:101CF000FFF70FFD012704F12405A0B1A08910F41E
:101D0000407F08D0E06900F0AEF9206118B1E068CA
:101D100040F4006016E0E7612561E06820F440705F
:101D200040F480600EE0E06900F09DF90028206139
:101D3000F1D0E06840F4006010F4407FE06002D130
:101D400040F48070E06020696060E06825696FF0B1
:101D5000010AC1051FD56168E06A884200D80846BB
:101D6000411B04D02246284600F054FAF0BBE0683C
:101D7000010203D5E562C4E9015854E0691CE1623F
:101D80006160E16940F48030491EC4E902103046C8
:101D90002E70BDE8F087010202D500F480320AE01F
:101DA0006068411C61600670E0680A2E40F4803073
:101DB000E06006D00022E16A6068814203D90B46E8
:101DC00002E00122F7E70346A7895B1B7F0503D4E6
:101DD000E7699F4200DDE2B1814200D80146E56239
:101DE0000F1AC4E90158002B09DD00E005E0224686
:101DF0001946284600F00EFA08B14846C9E747B12F
:101E0000A069E5626560C01BA061E06840F0100059
:101E1000E060E068000208D56168A069E562491BDE
:101E200008446560A0615046B3E73046B1E770B53D
:101E3000C468A50713D0650211D4B2F5807F09D01C
:101E4000B2F5007F06D0B2F5806F08D1012300F112
:101E5000240106E05D1E6FF07F46B54201D30120EC
:101E600070BD0161C361416024F470611143C160C0
:101E7000002070BD2DE9F0410C460746164610467D
:101E800000F06EF82078611C61280AD0722802D018
:101E900077283CD102E00125002405E00225042436
:101EA00002E0082448F2020511F8010B2B2806D0A5
:101EB000622809D011F8010C74280AD00BE045F013
:101EC000030544F00204EFE745F0040544F0010483
:101ED000EAE744F0100438462146FFF7FBFB411CBB
:101EE00015D00021316171604FF40071F560F1612E
:101EF0007061200704D530460222002100F004F969
:101F0000306D40F0010030653046BDE8F0810020C2
:101F1000FBE72DE9F0410D460646104C206DC10748
:101F200004D0410804D020F00104F7E722460EE077
:101F3000542000F098F807000ED0206D47F0010102
:101F40000843542120653846FEF79CFA3A46294654
:101F50003046BDE8F0418DE70020D6E7A40100201F
:101F60002DE9F04704464FF000094FF0FF37C568F0
:101F7000D4E90486A80707D0204600F075F930465A
:101F8000FFF7B2FB002802DA3846BDE8F0872805E3
:101F900002D54046FFF704FC4C212046FEF772FABA
:101FA000206D20F0010020654846EEE710B504469C
:101FB000AFF300802046BDE81040FEF724B910B50D
:101FC00000F09CF9BDE8104000F092B970470000A5
:101FD00000487047A802002070477047704770475C
:101FE00038B504460A4600206946AFF30080002851
:101FF00008BF38BD02460099204600F0C6F901200E
:1020000038BD012000F015BAF8B5AFF300800546E1
:1020100000200C46102000BF0646A819A0420DD98A
:10202000324669460020AFF30080070008BF00F089
:1020300000FA0098A04218BF0546C419FFF7C8FF70
:1020400005600746F01D20F007004619284600F0FD
:1020500095F9B44208BFF8BDA21B31463868BDE807
:10206000F84000F092B970B50646FFF7B1FF056879
:1020700006F10B0020F00704B4429CBF002070BDA5
:102080002B466A68BAB11068A04210D304F1080167
:1020900088423CBF5068586007D3516810194160AE
:1020A0001168091B016058601460101D70BD134653
:1020B0005268002AE7D121462846FFF791FF002801
:1020C000DED170BDB2F120030AD5C2F1200301FABE
:1020D00002F120FA03F300FA02F041EA030170472B
:1020E00000FA03F14FF0000070473A2800D2303870
:1020F00020F02002412A01D3A2F13700884201D307
:102100004FF0FF30704700002DE9F04104461646BD
:102110000D464769007B80072ED03846FFF7F9FA55
:1021200050BB3EB3012E02D0022E25D104E0204642
:1021300000F045F905441DE03846FFF7F8FAE1687C
:10214000002841F01001E16005DA204600F058F85F
:102150000120BDE8F081C9030BD56268E16A9142B4
:1021600000D81146A26911442269891A814200DD12
:1021700008460544002D01DA0220EAE7E16A6068BA
:10218000E268814206D29103E06203D522F4003175
:1021900041F01002A6690027AE4213DCE16A8142D9
:1021A00001D90B4600E0034603EB060C2369ACEBB8
:1021B000030CAC4506DD814201D98C4600E0844623
:1021C0009C4505D1A760276042F02000A5620DE084
:1021D000AD1BE669AE1B8142A66000D90846C01A55
:1021E000281A20605819606022F020000349084036
:1021F000E060002084F84870ABE70000BFCFD7FF55
:10220000C16821F4001141F08001C16000218160AA
:10221000016070472DE9F047814614460E464FF0A5
:10222000FF383248D5685769054209D03846A16958
:10223000FFF775FA002811DB2C48C0430540E56024
:102240002B46324649463846FFF754FAA16920F03A
:102250000042B21A11440028A16103D02046FFF7C2
:10226000CFFF4046BDE8F08770B504460569C06AF7
:102270006168884200D80846E16821F42011E160D5
:10228000C90312D5A84208D02246411B2846FFF7B1
:10229000C1FF10B14FF0FF3070BD0020E562C4E90E
:1022A0000150E06820F48030E060002070BD10B57F
:1022B0000446C06820F02000E060A16AA06988425E
:1022C0000DD02046FFF7D0FFE06820F4405040F0EA
:1022D0001000E060A06AA0612069E062606044F2E2
:1022E0004001E0688843E06010BD0000100002007B
:1022F000002801D000F03CB87047000010B501463E
:1023000002A000F07DF8012010BD000053494752A3
:10231000545245443A2052656469726563743A20A8
:1023200063616E2774206F70656E3A2000000000B4
:1023300010B5431C02E010F8011B71B18107FAD1FE
:102340004FF0013202C88C1A8C4314EAC211F9D042
:10235000C01A0A0603D0C01E10BDC01A10BD0A0460
:1023600001D0801E10BD0902FCD0401E10BD00002F
:1023700001491820ABBEFEE72600020000210160E3
:10238000C0E90110704710207047034640688C4632
:10239000002818BF88423CBF03464068F8D318683D
:1023A0001844884207D00CF1030020F00700001DFC
:1023B000411A521A0146081D0A60FFF7F1B910B51B
:1023C0000146C268900703D0900607D5886A0AE0E4
:1023D000FEF70AFE01210160881E10BD8B69486866
:1023E00018440B69C01A91F848301BB191F8491094
:1023F000401A10BD1103FCD50028FADD401E10BDA7
:1024000070B505460C460A2000E06D1C00F018F877
:1024100035B128780028F8D102E0641C00F010F8EB
:1024200014B120780028F8D1BDE870400A2000F0EF
:1024300007B810B500F00CF8BDE81040FFF758BF22
:1024400008B569468DF800000320ABBE08BD00004A
:1024500010B5012805D0002103A0FFF7D1FF01200E
:1024600010BD09A1F8E7000053494752544D454DAE
:102470003A204F7574206F662068656170206D6525
:102480006D6F7279000000003A2048656170206D20
:10249000656D6F727920636F727275707465640018
:1024A0005FEA400C08BF91F0000F4FEA8C234FEA1F
:1024B000C12243EA51514FEA1C5018BF00F5F040C9
:1024C0004FEA300018BF41F000415FEA6C5C00F059
:1024D0002980BCF1FF3F08BF40F080407047130CDB
:1024E00006BF12044FF0100C4FF0000C130E04BF87
:1024F00012020CF1080C130F04BF12010CF1040CB2
:10250000930F04BF92000CF1020CD30F04BF5200D2
:102510000CF1010C11464FF00002A0F11F00A0EBDE
:102520000C00704711F0004F08BF704731F00041B8
:102530003FF4D5AF0B0C06BF09044FF0100C4FF061
:10254000000C0B0E04BF09020CF1080C0B0F04BFAA
:1025500009010CF1040C8B0F04BF89000CF1020C73
:10256000CB0F04BF49000CF1010CCCF12003A0EB10
:102570000C0022FA03F302FA0CF241EA030100F123
:102580000100704720F07F4C80EA030023F07F4772
:10259000ACEB070303F57C5300F0004003F1FF03AD
:1025A0002DE980494FEA154B09B44FEA144325EA57
:1025B0000B4E24EA03480FF2042606EB13274908C2
:1025C0003E785FEA320203FB0667C7F5000707FBA8
:1025D00006F64FEA54374FEAD64606F1020607FBE5
:1025E000066CCCF1005C4FEA1C472CEA074C07FB59
:1025F00006F40CFB06F504EB15464FEA961634BFBD
:1026000000204FF000404FEAD13706FB07FC4FEAAD
:102610001C4C0CFB0BF7D21B03FB0CF761EB070107
:102620000CFB0EF7B0EB074072EB17420CFB08F700
:1026300034BFA2EB0742B2EB074261EB17414FEA0E
:102640000C444FEA910706FB07FC4FEA1C4C0CFBBD
:102650000BF7B0EBC74072EB573203FB0CF734BFFC
:10266000A2EBC742B2EBC74261EB57310CFB0EF74E
:10267000B0EBC70072EB57720CFB08F734BFA2EB4C
:10268000C702B2EBC70261EB5771039F4FEA81614A
:1026900041EA921104EBCC044FEAD1374FEA82624F
:1026A00006FB07FC42EA90124FEA80604FEA1C4C9E
:1026B0000CFB0BF7D21B03FB0CF761EB07010CFBC8
:1026C0000EF7B0EB074072EB17420CFB08F734BF74
:1026D000A2EB0742B2EB074261EB17414FEA8C5580
:1026E0004FEA910704EB9C2406FB07FC4FEA1C4CC5
:1026F0000CFB0BF7B0EBC74072EB573203FB0CF748
:1027000034BFA2EBC742B2EBC74261EB57310CFBBF
:102710000EF7B0EBC70072EB57720CFB08F734BF33
:10272000A2EBC702B2EBC70261EB577115EB4C2568
:102730004FEA816141EA92114FEA82624FEAD13752
:1027400042EA901206FB07FC44F100044FEA806065
:102750004FEA1C4C0CFB0BF7D21B03FB0CF761EB95
:1027600007010CFB0EF7B0EB074072EB17420CFBB6
:1027700008F734BFA2EB0742B2EB074261EB174107
:1027800015EB1C154FEA813141EA92414FEA823242
:1027900042EA90424FEA80304FEA0C7644F100045E
:1027A00048EA03434EEA0B484FF0000EB2EB080C28
:1027B00071EB030724BF624639464EEB0E0E4FF015
:1027C000000B0018524149414BEB0B0BB2EB080CCC
:1027D00071EB03077BF1000B24BF624639464EEBD9
:1027E0000E0E4FF0000B0018524149414BEB0B0B02
:1027F000B2EB080C71EB03077BF1000B24BF6246C0
:1028000039464EEB0E0E51EA020718BF46F001069C
:1028100016EB0E7655F1000254F1000103D5BDE828
:102820008901BDE80088BDE88901BDE80048B61906
:10283000524141EB0101A3F10103704780807F7E8B
:102840007D7C7B7A79787776767574737271717026
:102850006F6E6E6D6C6C6B6A6A69686867666665D8
:102860006464636362616160605F5F5E5E5D5D5C66
:102870005C5B5B5A5A5959585857575656555555D7
:102880005454535352525251515050504F4F4F4E37
:102890004E4D4D4D4C4C4C4B4B4B4A4A4A49494985
:1028A00048484847474747464646454545444444C7
:1028B00044434343434242424241414146EA064681
:1028C000A3F570534FEA164646EA42564FEAD22223
:1028D00042EA415210B54FEAD121A3F1010300F0C1
:1028E0002FF820F0004000F1020C00F0004701EB4F
:1028F00000501146BCF5006F40EA070000D210BD41
:10290000BAF1000F0AD01CB503B44FF004004FF029
:1029100004014FF000000FBCBDE810404FF0000173
:10292000BBF1010FB9BF04484FF0FF31034800214C
:1029300040EA070010BD00BFFFFFEF7F0000F07FFF
:10294000002B9C4630D477002BD01CB54FEA3707BC
:1029500003B44FF010004FF01001BAF1000F06D091
:10296000BCF1000FDCBF40F0080040F008014FF060
:1029700000000FBCBDE810400BF1010BBBF1010FD3
:1029800008BF5FEA170722BF12F1010211F101012E
:102990004FF0004143F1000300F0004043EA000023
:1029A0007047F9D35708D0E746EA064613F1400FBF
:1029B0004FEA16461FDD13F1200FDFBF16430A460C
:1029C000002120335B42BED0C3F1200746EA064611
:1029D00002FA07F74FEA164646EA0706C3F1200750
:1029E00022FA03F201FA07F721FA03F14FF000038C
:1029F00042EA0702A7E746EA020646EA06464FEA27
:102A0000164646EA0106BCBF46EA0646360C4FF0BB
:102A100000034FF000024FF0000194E72DE9804CD5
:102A20009A46934670B491E8380007C831EA400CE2
:102A300048BF34EA430C03D5FFF7A4FDFFF780FF3E
:102A4000F0BCBDE8008C2DE9804C9A46934670B4EA
:102A500091E8380007C831EA400C48BF34EA430C1B
:102A600003D5FFF78FFDFFF729FFF0BCBDE8008C11
:102A70002DE9804C9A46934670B491E8380007C817
:102A800010F0804F08BF13F0804F03D100F01AF808
:102A9000FFF756FFF0BCBDE8008C2DE9804C9A464C
:102AA000934670B491E8380007C810F0804F08BF13
:102AB00013F0804F03D100F005F8FFF7FFFEF0BCE4
:102AC000BDE8008C20F07F4780EA030023F07F4CB4
:102AD00007EB0C03A3F57C5300F00040A3F1FE03C9
:102AE00092F0000F00F0B38095F0000F00F07780B7
:102AF0002DE901494FEA11404FEA144621EA004806
:102B000000FB06FC24EA064708FB06F607FB08F86C
:102B100000FB07F718EB06484CEB164C4FEA124B3C
:102B200018EB07484FEA15464CEB174022EA0B4ECC
:102B30000BFB06FC25EA06470EFB06F607FB0EFE1E
:102B40000BFB07F71EEB064E4CEB164C4FF0000646
:102B50001EEB074E4CEB174B18EB0B0840F1000037
:102B600018EB0E0B58EB000840F100008F1A4FF0E5
:102B700000013CBFC943661B14BFB5EB040C002128
:102B80003CBFC943F61B4FEA17444EEA8E0E27EAB4
:102B900004454FEA1C4704FB07622CEA074C05FB7F
:102BA00007F70CFB05F604FB0CFC16EB074642EBA3
:102BB000174216EB0C4642EB1C421BEB060658EB89
:102BC0000202414146EA9E0601D5BDE80189B619D7
:102BD000524141EB0101A3F10103BDE801894FEA34
:102BE00014454FEA114724EA054621EA074C05FB44
:102BF00007F406FB07F70CFB06F105FB0CFC11EBD9
:102C0000074144EB17444FEA124711EB0C4144EBE8
:102C10001C4422EA074C05FB07F206FB07F70CFBF6
:102C200006F605FB0CFC16EB074642EB174216EBCB
:102C30000C4642EB1C456A1854F1000148BF70472E
:102C4000B619524141EB0101A3F10103704795F020
:102C5000000F37D04FEA11424FEA144721EA0246EB
:102C600024EA074C02FB07F106FB07F70CFB06F40E
:102C700002FB0CFC14EB074441EB17414FEA1547EC
:102C800014EB0C4441EB1C4125EA074C02FB07F511
:102C900006FB07F70CFB06F602FB0CFC16EB0746DF
:102CA00045EB174516EB0C4645EB1C42121951F14A
:102CB000000148BF7047B619524141EB0101A3F131
:102CC000010370474FEA14454FEA114724EA0546CD
:102CD00021EA074C05FB07F106FB07F70CFB06F2A0
:102CE0004FF0000605FB0CFC12EB074241EB1741CD
:102CF00012EB0C4251EB1C4148BF7047921841EB5C
:102D00000101A3F101037047FEE77047034900206A
:102D10000860034909684862704700000C00002001
:102D2000DC00002070B500F01DF802F057FE0A4CE0
:102D3000214602F0B3FE094902F072FD084D02E09F
:102D4000214602F0FFFCA842FAD201E002F0A4FF03
:102D500021468842FADA70BD0000B44300D08447AF
:102D60000000808003480068406A034909680844FD
:102D700070470000DC0000200C00002010B590F827
:102D800021100022022905D00421816380F820202F
:102D9000012010BD01680B6823F00E030B60016871
:102DA0000B6823F001030B6090F84030C46B0121E5
:102DB00001FA03F3636080F8211080F820201046A8
:102DC00010BD00002DE9F05F90F8211000240229C9
:102DD00003D004218163012485E001680A6822F0A0
:102DE0000E020A6001680A6822F001020A603F4E82
:102DF0003E4FB215DFF8F4C0DFF8F090DFF8ECA03A
:102E0000DFF8E8B0DFF8E4E00168783F130115026D
:102E1000ACF1640CA9F15009AAF13C0AABF1280B02
:102E2000AEF1140E4FF48018B14227D9B9420ED03A
:102E3000614512D049451DD0514518D0594518D08B
:102E4000714501D1424615E0294EB14201D101221E
:102E500010E0274E1436B14201D110220AE0244E70
:102E60002836B14206D0224A3C32914201D11A465C
:102E700000E02A461E49091F0A602BE0B94213D020
:102E8000614517D0494522D051451DD059451DD027
:102E9000714501D142461AE0B14202D14FF0807231
:102EA00015E0134EB14201D1012210E0104E14364C
:102EB000B14201D110220AE00D4E2836B14206D0AF
:102EC0000B4A3C32914201D11A4600E02A4607499A
:102ED00080394A60012180F82110002180F82010FB
:102EE000416B01B188472046BDE8F09F8000024059
:102EF0000804024070B5044600F010F90546601C55
:102F000002D004480078044400F008F9401BA042B5
:102F1000FAD370BD140000202DE9F84FDFF8C891F6
:102F20000024A9F1040B23460F2709F1040AABF191
:102F3000040ED1E00125A54006EA0502AA4276D199
:102F4000DFF8A8C14E68A6EB0C0866452BD00DDC57
:102F5000032E34D005DC36B3012E19D0022E2FD12A
:102F60001BE0112E16D0122E2AD119E0B8F5881FB9
:102F700019D006DCB8F5803F15D0B8F5801F1FD1F9
:102F800011E0B8F5001F0ED0B8F5041F18D10AE003
:102F9000CB6815E0CB681B1D12E0CB6808330FE04F
:102FA000CB680C330CE08B682BB1012B4FF008037E
:102FB00003D0456104E0042302E0056100E0002342
:102FC000FF2A01D8064601E000F104064FEA840515
:102FD00001D9A5F12005D6F8008007FA05FC28EAFA
:102FE0000C0803FA05F548EA0508C6F800804D68A4
:102FF000ED0070D53E4DAE6946F00106AE61AD699B
:1030000024F0030605F0010500953A4D06EB050C8A
:10301000DCF80850A607360F07FA06F825EA080577
:10302000DFF8D480404503D14FF0000825E052E09E
:10303000DFF8C880404502D14FF001081DE0DFF8FD
:10304000C080404502D14FF0020816E0DFF8B4809E
:10305000404502D14FF003080FE0DFF8AC80404557
:1030600002D14FF0040808E0DFF8A080404502D10B
:103070004FF0050801E04FF0060808FA06F848EAA4
:103080000508CCF808804D68D9F80060ED024D467F
:1030900001D5164300E096432E604D68DAF80060D3
:1030A000AD02554601D5164300E096432E604D68AB
:1030B000DBF80060AD035D4601D5164300E09643A2
:1030C0002E604D68DEF80060ED03754601D51643AD
:1030D00000E096432E60641C0A681646E2407FF4C6
:1030E00029AFBDE8F88F000008040140000011106E
:1030F000001002400000014000080140000C0140A7
:10310000001001400014014000180140001C014063
:103110000AB1016170470904FBE7000001488068BB
:1031200070470000140000200248816802781144B2
:103130008160704714000020074810B5016841F015
:1031400010010160032000F075F80F2000F006F870
:1031500000F024F8002010BD0020024070B50D4D95
:1031600004464FF47A712878B1FBF0F00A490968F7
:10317000B1FBF0F000F0DCFA48B9102C07D20022C5
:103180002146501E00F036F800206C6070BD012012
:1031900070BD000014000020200000200C4808B57D
:1031A000816941F001018161816901F001010091B2
:1031B000C16941F08051C161C06900F08050009048
:1031C0000448416821F0E06141F00071416008BDB0
:1031D0000010024000000140002809DB00F01F023F
:1031E000012191404009800000F1E020C0F8001169
:1031F00070470000F0B40E4B1B680C46C3F302236B
:10320000C3F10705042D00D90425191D072901D292
:10321000002300E0DB1E012606FA05F1491E2140CD
:1032200099409E40761E16403143F0BC01F076BEB8
:103230000CED00E0064900F0070208684FF6FF03B6
:10324000184040EA0220034A10430860704700001B
:103250000CED00E00000FA052DE9F0470F460500EF
:1032600061D0434E306800F00700B84209D23068A0
:1032700020F0070038433060306800F00700B842A3
:1032800051D128683B4C810712D5400703D56068AF
:1032900040F4E06060602878000703D5606840F47F
:1032A000605060606068A96820F0F00008436060CA
:1032B0002878C00728D06868012810D02168022823
:1032C00010D0890700292EDA616821F0030101433B
:1032D0006160FFF723FF804641F288390DE02168E5
:1032E0008903EFE78901EDE7FFF718FFA0EB08017D
:1032F000494502D90320BDE8F0876068696800F09D
:103300000C00B0EB810FEFD1306800F00700B8423D
:103310000BD9306820F0070038433060306800F087
:103320000700B84201D00120E5E72878400705D51D
:103330006068E96820F4E06008436060287800076E
:1033400006D56068296920F4605040EAC1006060D9
:1033500000F038F86168084AC1F30311515CC840B5
:103360000649086006480068FFF7F8FE0020C2E73B
:1033700000200240001002409A5E00082000002059
:10338000180000200448054900684968044AC1F350
:103390000221515CC840704720000020001002400C
:1033A000AA5E00080448054900684968044AC1F358
:1033B000C221515CC840704720000020001002402C
:1033C000AA5E00080E4A51680E4801F00C03042B57
:1033D00011D0082B0FD10C48C1F38343C903C05C43
:1033E0000AD55168084AC1F34041921E515C054A12
:1033F0005043B0FBF1F07047044948437047000068
:103400000010024000127A008A5E000800093D00A8
:103410002DE9F84F040070D02078C04DC00749D086
:103420006868C0F38100012807D06868C0F3810094
:10343000022809D16868C00306D52868800339D5F9
:1034400060680028E7D035E06068B0F5803F0BD0B9
:1034500010B1B0F5A02F11D0286820F4803028607A
:10346000286820F4802002E0286840F4803028603A
:10347000606890B1FFF752FE06460AE0286840F403
:1034800080202860F0E700BFFFF748FE801B64281B
:1034900073D828688003F7D50CE0FFF73FFE064697
:1034A00005E000BFFFF73AFE801B6428F0D82868CB
:1034B0008003F7D420789A4E80074FF001094FF02F
:1034C000000839D5686810F00C0F07D06868C0F3A1
:1034D0008100022809D16868C00306D428688007E3
:1034E00014D52069012808D110E02069B0B1C6F8D0
:1034F0000090FFF713FE074605E00AE1FFF70EFE16
:10350000C01B0228C4D828688007F7D528686169DD
:1035100020F0F80040EAC10028600DE0C6F8008005
:10352000FFF7FCFD074604E0FFF7F8FDC01B02288B
:1035300023D828688007F7D4207800072CD579484D
:10354000A169D9B1C0F80090FFF7E8FD074604E093
:10355000FFF7E4FDC01B02280FD8686A8007F7D583
:1035600071484FF4FA510068B0FBF1F0009000BFD1
:103570000098411E0091FAD20EE080E0C0F8008071
:10358000FFF7CCFD074604E0FFF7C8FDC01B02288B
:1035900075D8686A8007F7D42078400760D5E86955
:1035A0000027C00008D4E86940F08050E861E8696D
:1035B000012700F0805000905C480168C90513D4D1
:1035C0000168834641F480710160FFF7A7FD8246E0
:1035D00006E000BFFFF7A2FDA0EB0A0064284ED86A
:1035E000DBF80000C005F5D5E06801280AD008B175
:1035F000052813D0286A20F001002862286A20F0EC
:10360000040002E0286A40F001002862E06841F20C
:10361000883B98B1FFF782FD82460BE0286A40F0B4
:1036200004002862EEE700BFFFF778FDA0EB0A0177
:1036300059455AD8286A8007F6D50CE0FFF76EFD89
:10364000824605E0FFF76AFDA0EB0A0159454CD818
:10365000286A8007F6D41FB1E86920F08050E8613D
:10366000E06988B36968C1F38101022944D0022866
:10367000C6F8608004D0FFF751FD044638E034E01E
:10368000FFF74CFD074604E0FFF748FDC01B02288A
:103690002BD828688001F7D4206AB0F5803F05D187
:1036A0006868A16820F4003008436860D4E9080124
:1036B0000843696821F4741108436860C6F8609093
:1036C000FFF72CFD044606E025E000BFFFF726FDCE
:1036D000001B022809D828688001F7D51BE000BF2D
:1036E000FFF71CFD001B022802D90320BDE8F88F5C
:1036F00028688001F4D40EE00128F7D06868226AB7
:1037000000F48031914204D1616A00F47010884263
:1037100001D00120EAE70020E8E7000000100240A5
:10372000000042428004424220000020007000401D
:1037300010B5401EB0F1807F01D3012010BD4FF0C5
:10374000E02460610F21601701F0E8FB0020A06118
:1037500007202061002010BD7047704770B590F8B9
:103760003C20012A2CD0012480F83C40022280F821
:103770003D2003685A689D6822F070060A6832434B
:103780005A60104B02689A420ED00F4B9A420BD0EF
:10379000B2F1804F08D00D4B9A4205D00C4B9A42A3
:1037A00002D00C4B9A4204D1496825F0800319439A
:1037B000916080F83D40002180F83C10084670BDC3
:1037C000022070BD002C0140003401400004004084
:1037D00000080040000C00402DE9F0410D460400B7
:1037E00003D094F83D0018B108E00120BDE8F08155
:1037F000002084F83C00204600F040F8022084F8C5
:103800003D002068816844F2070291438160211DD8
:10381000206801F0EFF8226890689169166A2B68B9
:10382000AF69034340F20330814341EA0721A868AE
:10383000EF6908434FF6FC418843E96840EA0720F6
:10384000014328692F6A000140EA0730084369688C
:103850006D6926F0220646EA051529439360226821
:10386000906154F8460B0162012004F81F09E075CD
:103870002076E0762077A0750020B7E700B585B008
:10388000002100910191029103910068164988423C
:1038900027D11648C16941F00201C161C16901F037
:1038A00002010491816941F00801816180696946E2
:1038B00000F008000490302000900D48FFF72CFB2A
:1038C0000C48416821F4406141F0E06141F400613D
:1038D0004160002211461D20FFF78CFC1D20FFF7E0
:1038E0007BFC05B000BD0000000400400010024059
:1038F000000C01400000014070B590F83E600446A5
:1039000090F83F5090F8423090F84320022021B1C7
:10391000042914D0012E25D11EE0012E22D1012B25
:1039200020D184F83E0084F8420001220021206862
:1039300001F0AEF82068C16841F002012FE0012DCE
:1039400010D1012A0ED184F83F0084F843000421ED
:10395000206801F09DF81EE0012D03D1012B01D15B
:10396000012A01D0012070BD84F83E0084F83F0098
:1039700084F8420084F8430001220021206801F00D
:1039800087F801220421206801F082F82068C168CC
:1039900041F00201C1602068C16841F00401C160CA
:1039A0002068016841F001010160002070BD000045
:1039B00000680C49884213D10B4908680269D24358
:1039C000D2070DD1921E026108680068C10607483F
:1039D000816802D5A1F5803101E001F58031816077
:1039E0007047000000040040DC00002000000020C0
:1039F0002DE9F04104460068C66805694FF00007EC
:103A0000A90713D5B10711D5F91E0161012020774F
:103A1000206880698007204602D0FFF7C9FF04E0D4
:103A200000F0A2F8204600F045F92777680716D580
:103A3000700714D521686FF0040008610220207718
:103A40002068806910F4407F204602D0FFF7B0FF65
:103A500004E000F089F8204600F02CF927772807C9
:103A600015D5300713D521686FF0080008610420D0
:103A700020772068C0698007204602D0FFF798FFB2
:103A800004E000F071F8204600F014F92777E8060A
:103A900016D5F00614D521686FF0100008610820D3
:103AA00020772068C06910F4407F204602D0FFF7DD
:103AB0007FFF04E000F058F8204600F0FBF827777D
:103AC000E80708D0F00706D021686FF00100086110
:103AD000204600F04BF9280608D5300606D52168A7
:103AE0006FF0800008612046FFF736FE680608D5B3
:103AF000700606D521686FF040000861204600F08E
:103B000036F9A8060AD5B00608D521686FF020005E
:103B100008612046BDE8F041FFF71FBEBDE8F08117
:103B200000B585B0002100910191029103910068D8
:103B3000B0F1804F11D10A48816941F004018161DF
:103B40008069694600F00400049001200090022082
:103B5000019003900348FFF7DFF905B000BD0000B6
:103B60000010024000080140704770B5044690F80C
:103B70003C0000260D4601280FD0012084F83C00AF
:103B80006AB1042A1DD0082A2FD00C2A3FD0012662
:103B9000002084F83C00304670BD022070BD2068D3
:103BA00000F084FF2068816941F00801816120688C
:103BB000816921F004018161206881692A691143CA
:103BC00011E0206800F0A2FF2068816941F40061E3
:103BD00081612068816921F4806181612068816947
:103BE0002A6941EA02218161D2E7206800F0C4FF1E
:103BF0002068C16941F00801C1612068C16921F0F4
:103C00000401C1612068C1692A69114311E020687B
:103C100000F0E6FF2068C16941F40061C1612068DD
:103C2000C16921F48061C1612068C1692A6941EAE2
:103C30000221C161ACE710B5040003D094F83D0047
:103C400010B107E0012010BD002084F83C002046A0
:103C500000F01EF8022084F83D00211D206800F0CD
:103C6000C9FE012084F8460084F83E0084F83F0035
:103C700084F8400084F8410084F8420084F843004E
:103C800084F8440084F8450084F83D00002010BD0D
:103C900008B50068B0F1804F08D10548C16941F00E
:103CA0000101C161C06900F00100009008BD000081
:103CB000001002407047000010B50446022249B1CE
:103CC00004290ED0082913D094F84100012816D0F9
:103CD000012010BD94F83E000128F9D184F83E205F
:103CE0000FE094F83F000128F2D184F83F2008E06B
:103CF00094F840000128EBD184F8402001E084F8DA
:103D000041200122206800F0C3FE13492068134AB5
:103D1000884201D0904203D1436C43F40043436492
:103D2000206888420DD090420BD0B0F1804F08D06F
:103D30000B49884205D00B49884202D00A49884283
:103D400004D1816801F00701062903D0016841F020
:103D500001010160002010BD002C01400034014031
:103D60000004004000080040000C0040704770470D
:103D700070477047F8B5016804460868CA684B691F
:103D800010F00F0F4FF0000559D003F0010602F4B8
:103D90009077374365D0C10705D0D10503D5616C55
:103DA00041F001016164410705D5D90703D0616C79
:103DB00041F002016164810705D5D90703D0616C28
:103DC00041F004016164010707D502F0200131438D
:103DD00003D0616C41F008016164616C00293AD044
:103DE000800604D5900602D5204600F050FF2068DA
:103DF0004069616CC0F38010090700D460B32046AD
:103E000000F01EFF20684069400621D5206814306C
:103E100050E8001F21F0400140E80012002AF5D1CF
:103E2000E06BA8B16D494163E06BFEF7CBFF002862
:103E300011D0E06B416B01B0BDE8F040084783064C
:103E40000FD593060DD52046BDE8F84000F01FBF02
:103E50002046FFF78EFFF8BD2046FFF78AFF656416
:103E6000F8BD266B2023012E7CD1C6067AD5D60656
:103E700078D508684868009048694FF00206400607
:103E800040D5E16B086840680004000CE8D0A28DC2
:103E90008242E5D9E085886920282DD020680C3041
:103EA00050E8001F21F4807140E80012002AF5D18B
:103EB0002068143050E8001F21F0010140E8001292
:103EC000002AF5D12068143050E8001F21F040018D
:103ED00040E80012002AF5D184F8423025632068BA
:103EE0000C3050E8001F21F0100140E80012002AB9
:103EF000F5D1E06BFEF742FF6663A08DE18D401ABD
:103F000081B22AE0A08DE18D401A81B2E08D0028B7
:103F1000A6D00029A4D022680C3252E8000F20F469
:103F2000907042E80007002FF5D12068143050E867
:103F3000002F22F0010240E80027002FF5D184F87D
:103F40004230256320680C3050E8002F22F0100228
:103F500040E80023002BF5D166632046FFF708FFF9
:103F6000F8BDFFE705062BD5150629D594F84100C5
:103F70002128F5D1A068B0F5805F01D12069B0B1EA
:103F8000206A411C2162216800784860E08C401E54
:103F90000004000CE084E3D12068C16821F08001B6
:103FA000C1602068C16841F04001C160D8E7206A63
:103FB0000088C0F308004860206A801C2062E5E7A2
:103FC0004006CDD55006CBD5CA68204622F0400227
:103FD000CA6084F8413000F0FBF8C1E7314C0008BA
:103FE00070B5040004D094F84100002510B106E03B
:103FF000012070BD84F84050204600F023F82420B2
:1040000084F841002068C16821F40051C160204655
:1040100000F09EFE2068016921F490410161206852
:10402000416921F02A0141612068C16841F40051D1
:10403000C1606564202084F8410084F84200656313
:10404000002070BD30B585B0002400940194029426
:1040500003940068184988422CD11848816941F4BA
:1040600080418161816901F480410491816941F05D
:10407000040181618069124D00F0040004904FF446
:1040800000700090022001900320039069462846AA
:10409000FEF742FF2815CDE9000469462846029440
:1040A000FEF73AFF002211462520FFF7A3F825204E
:1040B000FFF792F805B030BD003801400010024013
:1040C0000008014090F84230202B01D002207047B8
:1040D00021B11AB10023036300F096BE012070479E
:1040E00070B500680F4988421BD1104C0E4D2078E6
:1040F000295C0D290ED00A290CD0632801D2401C5E
:104100002070207801222918BDE870400648F4305C
:10411000FFF7D8BF00262E54034800F0E1F92670BF
:10412000EFE770BD003801403000002000000020A3
:104130002DE9F843044690F84100984616460D468E
:10414000202802D00220BDE8F88385B17EB100208E
:104150006064212084F84100FEF7E0FFA6848146D8
:10416000E684A0682027B0F5805F02D003E001203C
:10417000E9E7206910B12E4600250EE000260CE08C
:104180008021204600F05BFEA8B9C6B116F8010BED
:1041900021684860E08C401EE084E08C4B464FF084
:1041A0000002CDF800800028EAD14FF040012046FF
:1041B00000F045FE40B184F841700320C3E735F8B4
:1041C000020BC0F30800E3E784F841700020BAE76F
:1041D0007047FEE730B585B000241748009401947D
:1041E00002940394816941F020018161816901F0A9
:1041F00020010491816941F004018161816901F02C
:1042000004010491816941F00801816180690B4DCD
:1042100000F008000490002202212846FEF778FFF3
:1042200002210120CDE90010CDE90241694628466E
:10423000FEF772FE05B030BD0010024000080140DC
:1042400010B58AB0002407941C2168460894FCF736
:1042500019F916484FF08041016040F2CF21C0E9C2
:10426000011440F2E731C0E903148461FFF7E3FC75
:1042700008B172B6FEE7079407A90C480894FFF747
:104280006DFA08B172B6FEE76020CDE90004029431
:104290000022694605480494FFF767FC08B172B62E
:1042A000FEE70248FFF73CFC0AB010BD9400002076
:1042B00010B58CB024216846FCF7E4F800241548BA
:1042C000099413490A94C0E900144FF6FF71C0E93C
:1042D0000241046184610120CDE90004CDE90204BA
:1042E0000494CDE90540079469460A480894FFF70D
:1042F00073FA08B172B6FEE7099409A905480A9451
:10430000FFF72CFA002801D072B6FEE70CB010BD02
:1043100000040040DC000020FEE7000006480549DC
:10432000064A01600021C0E9011202228281C18196
:1043300001747047940000206C01002000080140C7
:1043400070B51A4C05464FF47A72A189A06895425F
:1043500001DD154606E0164A954201DA154608E0E9
:10436000002D06DB0022FEF7D3FE00202074A8B249
:1043700006E00122FEF7CCFE01202074684280B2E4
:10438000616841B104290AD00829216809680AD066
:104390000864E58170BD216809684863F9E7216810
:1043A00009688863F5E7C863F3E700006C01002043
:1043B00018FCFFFFFEE700002DE9F0478946314F6A
:1043C00032498246304E3868DFF8C4800C6848B104
:1043D000201A01F01BFB2F4901F022FA0546B0F527
:1043E000000F00DA3546494650463C6001F054FC67
:1043F000814644464946D8F8000001F04FFB064686
:104400002946484601F04AFB216901F09BF92061E9
:10441000616901F00FFC01D2606920616069216966
:1044200080F0004001F006FC03D2606980F000409B
:104430002061A7682169384601F030FB314601F060
:1044400081F906464846E16801F026FC294601F05C
:10445000E7F90146384601F021FB314601F072F9D7
:10446000C4F80C900546A16901F0E4FB00D2A569EF
:10447000E169284601F0DEFA00D2E5692846BDE888
:10448000F0870000100000200AD7233C0400002021
:104490008001002000007A44084807490A4A016068
:1044A0004FF07C514160064981600649C0E906121F
:1044B000416100F00BB80000000070418001002055
:1044C000CDCCCC3D00007A4400007AC402480021E3
:1044D0000161C160016270478001002070470000E7
:1044E0002DE9F04186B00646054600E06D1C2878AF
:1044F0002028FBD004AA55A12846FBF7A5FF564C5F
:1045000001283ED004AA55A12846FBF79DFF0128AB
:104510003FD004AA54A12846FBF796FF012844D0B7
:1045200054A12846FBF7D6FF002846D054A12846C0
:10453000FBF7D0FF002855D054A12846FBF7CAFF4F
:10454000002853D053A12846FBF7C4FF002855D0BC
:1045500052A12846FBF7BEFF002855D051A1304696
:10456000FBF7B8FF514C002868D051A13046FBF74B
:10457000B1FF002866D0294650A0FBF76BFE55A07E
:104580003FE00498206001F0B1F802460B465BA0C2
:1045900006E00498606001F0A9F802460B465CA0B2
:1045A000FBF758FE06B0BDE8F0810498A06001F06A
:1045B0009DF802460B465BA0F2E7A06801F096F872
:1045C00007468846606801F091F805460E46206867
:1045D00001F08CF88DE8E00102460B4656A0FBF78F
:1045E00039FEDFE7FFF772FF5EA00AE0FEF79AFBF5
:1045F00001F07CF802460B465FA0D1E7FEF786FB90
:1046000063A0FBF727FECDE768A0FBF723FE71A0B0
:10461000FBF720FE7AA0FBF71DFE83A0FBF71AFE36
:104620008CA0FBF717FE97A0FBF714FEA2A0FBF7E8
:1046300011FEACA0FBF70EFEB7A0E2E70120207050
:10464000BFA0DEE700202070C5A0DAE77365742004
:104650006B702025660000008001002073657420C7
:104660006B69202566000000736574206B6420254B
:10467000660000007069642073686F7700000000B6
:10468000706964207265736574000000616E676C08
:10469000650000007A65726F0000000068656C704C
:1046A00000000000766F6661206F6E000100002040
:1046B000766F6661206F666600000000556E6B6E57
:1046C0006F776E20636F6D6D616E643A2025730D98
:1046D0000A00000054797065202768656C702720F7
:1046E000666F7220617661696C61626C6520636FD0
:1046F0006D6D616E64732E0D0A0000004B702073A7
:10470000657420746F3A20252E33660D0A00000070
:104710004B692073657420746F3A20252E33660D23
:104720000A0000004B642073657420746F3A2025E2
:104730002E33660D0A00000043757272656E742098
:104740005049443A204B703D252E33662C204B694E
:104750003D252E33662C204B643D252E33660D0AF5
:104760000000000050494420726573657420646F36
:104770006E650D0A0000000043757272656E74204C
:10478000616E676C653A20252E3266C2B00D0A0054
:10479000456E636F646572207A65726F20706F7307
:1047A0006974696F6E207365740D0A003D3D3D208C
:1047B0004D6F746F722050494420436F6E74726F56
:1047C0006C20436F6D6D616E6473203D3D3D0D0A3D
:1047D00000000000736574206B70203C76616C757E
:1047E000653E202020202D205365742070726F704C
:1047F0006F7274696F6E616C206761696E0D0A007B
:10480000736574206B69203C76616C75653E202071
:1048100020202D2053657420696E74656772616C69
:10482000206761696E0D0A00736574206B64203C1B
:1048300076616C75653E202020202D205365742004
:1048400064657269766174697665206761696E0D69
:104850000A0000007069642073686F7720202020B0
:104860002020202020202D2053686F772063757230
:1048700072656E74205049442076616C7565730DC5
:104880000A0000007069642072657365742020203E
:104890002020202020202D2052657365742050494F
:1048A0004420696E74656772616C20616E64206576
:1048B00072726F720D0A0000616E676C65202020B5
:1048C000202020202020202020202D2052656164DF
:1048D0002063757272656E7420616E676C650D0A77
:1048E000000000007A65726F202020202020202008
:1048F0002020202020202D205365742063757272A3
:10490000656E7420706F736974696F6E20617320B7
:104910007A65726F0D0A000068656C702020202097
:10492000202020202020202020202D2053686F7759
:1049300020746869732068656C700D0A00000000BF
:10494000564F46412B206461746120737472656117
:104950006D696E6720454E41424C45440D0A00008A
:10496000564F46412B2064617461207374726561F7
:104970006D696E672044495341424C45440D0A001D
:104980007047FEF7D1BB30B58FB028216846FBF7E2
:1049900079FD14210AA8FBF775FD01210804CDE972
:1049A00000100024029402250491CDE907504FF431
:1049B000E01009906846FEF72BFD08B172B6FEE7DD
:1049C0000F20CDE90A054FF48060CDE90C400221AB
:1049D0000AA80E94FEF740FC002801D072B6FEE74C
:1049E0000FB030BD704700000148FFF701B800006C
:1049F000DC000020F0B50268204C214D214E224FF2
:104A0000224B4FF0804CA04209D0984207D060451D
:104A100005D0A84203D0B04201D0B84204D122F060
:104A2000700E4A6842EA0E02A04209D0984207D0AE
:104A3000604505D0A84203D0B04201D0B84203D1AE
:104A400022F44075CA682A434D6922F080022A4345
:104A500002608A68C2620A688262A04201D09842FB
:104A600001D109690163012141610169C90703D0CD
:104A7000016921F001010161F0BD0000002C01403D
:104A80000004004000080040000C004000340140D9
:104A900010B501F01F030121046A99408C430462A0
:104AA000016A9A401143016210BD0000F0B5036A2B
:104AB000026A22F00102026242688469124E24F006
:104AC00073050C682C4323F002058B682B430D4DB6
:104AD000A84201D0B04205D123F00807CB683B4380
:104AE00023F00403A84201D0B04205D14D6922F45D
:104AF000407215438A692A43426084614968416370
:104B00000362F0BD002C014000340140F0B5026AA0
:104B1000036A23F010030362436884690D6824F478
:104B2000E64444EA05248D6822F0200242EA051298
:104B30000F4D104EA84201D0B04206D1CF6822F0EE
:104B4000800242EA071222F04002A84201D0B0429D
:104B500007D14D6923F4406343EA85038D6943EA35
:104B6000850343608461496881630262F0BD00008F
:104B7000002C014000340140F0B5026A036A23F4BE
:104B8000807303624368C46922F4007224F07305E1
:104B90000C68124E2C438D6842EA05220E4DA84245
:104BA00001D0B04206D1CF6822F4006242EA072267
:104BB00022F48062A84201D0B04207D14D6923F4AB
:104BC000405343EA05138D6943EA05134360C4610A
:104BD0004968C1630262F0BD002C0140003401400D
:104BE00030B5046A026A22F4805202624268C369E4
:104BF0000D6823F4E64343EA05238D6824F400544A
:104C000044EA0534084DA84202D0084DA84204D118
:104C10004D6922F4804242EA85124260C3614968CC
:104C20000164046230BD0000002C014000340140EA
:104C300010B5406A0021C185C184FFF79AF810BD04
:104C400001680C3151E8002F22F4907241E80023F2
:104C5000002BF5D10168143151E8002F22F0010238
:104C600041E80023002BF5D1016B012909D101682E
:104C70000C3151E8002F22F0100241E80023002BF4
:104C8000F5D1202180F8421000210163704708B55A
:104C900090F84210222901D0022008BD82684FF40A
:104CA00080539A4201D1016921B1816A9A421BD095
:104CB0004AB10AE00268816A5268C2F308020A80B7
:104CC000816A891C08E0026972B10268526802F0C8
:104CD0007F020A70816A491C8162C18D491E0904E4
:104CE000090CC18503D01BE002685268F1E7016836
:104CF000CA6822F02002CA600168CA6822F4807281
:104D0000CA6001684A6922F001024A61202180F8E4
:104D1000421000214163026B012A03D0FFF7E0F942
:104D2000002008BD016301680C3151E8002F22F01A
:104D3000100241E80023002BF5D101680A68D20671
:104D400002D50A6849680091818DFFF711F8E7E7FD
:104D500070B5044600680169E26821F440511143CE
:104D600001612169A0680843616908432168CA6834
:104D700041F20C639A430243CA6020684169A26908
:104D800021F44071114341611E492068884202D1DB
:104D9000FEF708FB01E0FEF7F5FA00EBC00101EBBE
:104DA0000012606864218000B2FBF0F3B3FBF1F302
:104DB0006FF018067343B2FBF0F5B2FBF0F605EBAB
:104DC0008305322303EB0515B5FBF1F5B6FBF1F6D0
:104DD00005F0F00505EB0615B2FBF0F6B2FBF0F0BE
:104DE000B0FBF1F06FF01802504306EB800003EBCC
:104DF0000010B0FBF1F0216800F00F00284488603B
:104E000070BD00000038014081628285C2850021AA
:104E10004164222180F84210016921B10168CA6809
:104E200042F48072CA6001684A6942F001024A6134
:104E30000068C16841F02001C160002070472DE981
:104E4000F843984617460D460446089E24E0701C19
:104E500022D0FEF763F9A0EB0800B0421AD8CEB119
:104E60002068C168490717D5802D15D0402D13D073
:104E70000168C94309070FD4016800254068009004
:104E80002046FFF7DDFE0820606484F840500120D2
:104E9000BDE8F8830320FBE72068006835EA0000DE
:104EA00004D00020B842D2D00020F1E70120F9E779
:104EB0000148FEF75FBF000024010020FEE700006C
:104EC0001FB54FF0FF348DE8070008A023460068A7
:104ED00003900C2269460648FFF72AF9234604226C
:104EE00003A90348FFF724F91FBD00000000807FDD
:104EF00024010020490050EAC12018BF04204A0DB7
:104F000018BF40F0010040F2FF72B2EB515F08BFE2
:104F100040F00200012808BF052070470907090E6C
:104F2000002804DB00F1E02080F80014704700F056
:104F30000F0000F1E02080F8141D704740F20132AC
:104F400000204FF0E04100F053BF0000024A002073
:104F5000110700F04DBF000001FDFFFF10B5044632
:104F6000D1E9000100F002F8206010BDF8B5044658
:104F70000D466A4600F078F800987E3000900028D0
:104F80001EDC002213462046294600F0ADFA17D059
:104F9000002140F608004FF0000006462046294652
:104FA00000F05CFA044640F6080006EA00014FF003
:104FB000000034F0004004BF0220FCF71DFC29E093
:104FC0000098FF2828DB002108464FF0000000F47D
:104FD0004006002213462046294600F051FB8CBFB4
:104FE000002501250220FCF707FC4FF0FF4446B1E5
:104FF000002D0CBF4FF400004FF48000B04218BFEA
:10500000084C042108464FF00000002D04BF84F036
:105010000040F8BD2046F8BD20462946BDE8F840CE
:1050200000F01CBAFFFF7F7F10B504460A46D4E9A2
:105030000003194600F044F8C4E9000110BD3038FF
:105040000A2801D201207047002070478A68002A90
:1050500001DCFCF701BE521E8A604A68C0B2531CD4
:105060004B6010707047000010B51446002222609B
:10507000114A21F000439342A8BF10BD53EA000239
:1050800008BF10BDB3F5801FA8BF226807DA36221B
:1050900000F0AEFE6FF0350221F000432260DFF831
:1050A0001CC06FF31E510CEB23531A4441F0FF5107
:1050B00041F00051226010BD0000F07F02FCFFFFB4
:1050C0002DE9F04106460C4640F2FF75174635EAD9
:1050D00014502BD000221346304600F005FA25D09C
:1050E0003A463046214600F083FE06460C4635EA35
:1050F000145010D000221346304600F0F5F915D1B7
:105100000220FCF779FBFFF721FF0A46214662F3F4
:105110001E01BDE8F0810220FCF76EFBFFF70EFFD9
:105120000A46214662F31E01BDE8F0813046214661
:10513000BDE8F08186B0624800252E460490FDF758
:10514000FBFFFFF720FCFFF745F8FFF779F8FFF7C3
:10515000AFF85D485B490C2201604FF4E1314160DA
:1051600000218160C160C0E904128161C161FEF764
:1051700037FF08B172B6FEE7FFF7D0F8FFF78CF9FA
:10518000514800219038FEF797FD4F483C214838A0
:10519000FEF7B2FB4D4C4C4801222178F438014413
:1051A000F430FEF78FFFFDF7B1FD49A0D4F804B04D
:1051B000FBF750F850A0FBF74DF8594B22224FF463
:1051C000FA7158A0FBF746F862A0FBF743F86E4F60
:1051D000B86800F08BFA81468A46786800F086FA53
:1051E00004468846386800F081FA8DE810070246C8
:1051F0000B4666A0FBF72EF8344C00BFFDF792FD7E
:10520000824601460498FFF7D7F8814600F0CAFBB2
:1052100000B2FFF795F8607820B14A4651460498ED
:10522000FFF74EFE56BB6168A1EB0B07B7F5967F03
:1052300024D35146049800F02FFD5F4920F0004030
:1052400088420BDC00F052FA06468846504600F0D1
:105250004DFA02460B46394658480AE000F046FA35
:1052600006468846504600F041FA02460B4654482E
:105270003946CDE90068FAF7EDFF01266768781B2B
:10528000642819D3484600F031FA804689465046D2
:1052900000F02CFA82460D46049800F027FA0DF132
:1052A000040CCDF800A08CE8200302460B463946DA
:1052B00044A0FAF7CFFF65680A20FDF71BFE9DE7C3
:1052C0000000F041003801402401002000000020CF
:1052D0004D6F746F722050494420436F6E74726F2B
:1052E0006C2053797374656D20496E697469616CC3
:1052F000697A65642E0D0A005461726765743A33E9
:1053000030C2B0207374657020726573706F6E73F5
:105310006520696E203330306D730D0A0000000087
:10532000A0090100456E636F646572205050523AC7
:1053300025642C204765617220526174696F3A259B
:10534000642C546F74616C2050756C7365733A25CE
:10535000640D0A00436F6D6D616E64733A7365741A
:10536000206B702F6B692F6B64203C76616C7565C8
:105370003E2C7069642073686F772C7069642072AA
:10538000657365740D0A000080010020496E697420
:1053900069616C205049443A204B703D252E31669E
:1053A0002C204B693D252E31662C204B643D252E4B
:1053B00031660D0A000000009A99993EA45F00082A
:1053C000545F000854696D653A2575206D732C2073
:1053D0005461726765743A252E3266C2B02C204340
:1053E000757272656E743A252E3266C2B02C2050EA
:1053F0004944204F75747075743A252E32660D0A33
:105400000000000010B500290AD00878002807D055
:1054100005487844FBF75EF8002801D0002010BD55
:105420000248784410BD0000120C00000A0C000075
:1054300010B500290AD00878002807D0054878441C
:10544000FBF748F8002801D0002010BD024878443E
:1054500010BD0000020C0000FA0B000021F0004219
:10546000A2F16052B2F5801F01F0004328BFD2F1D3
:105470007F6C0BD95FEA001C43EAC20242EB50701A
:1054800018BF704728BF20F001007047B2F5801F99
:10549000BCBF184670474FEA410C1CF5001F02D2F2
:1054A000084600F0C2BB70B500F096F80000008915
:1054B000FFF7F6BF4FF00040A0F5800070470000F6
:1054C00002494FF0000000F061BC00BF0000F87F0F
:1054D000491058BFC1F140415B1058BFC3F1404370
:1054E0008B42EFF30080704751EA030C17D41CF590
:1054F000801F58BFBCF5801F00F10680994218BF7D
:10550000704708BF9042704707D711F5801F58BFFA
:1055100013F5801F19D499427047894270471CF5D2
:10552000801F08D5BCF5801FF7D58B4218BF704788
:1055300008BF824270474FF4001C1CEB410F38BF7C
:105540001CEB430F01D28B42704770B500F044F85A
:10555000922449004FF000514FF08053FFF7B8BF3D
:1055600051EA030C17D41CF5801F58BFBCF5801FEF
:1055700000F10680994218BF704708BF90427047FB
:1055800007D711F5801F58BF13F5801F19D4994212
:105590007047894270471CF5801F08D5BCF5801FF5
:1055A000F7D58B4218BF704708BF824270474FF44F
:1055B000001C1CEB410F38BF1CEB430F01D28B4288
:1055C000704770B500F008F8922449004FF0005180
:1055D0004FF08053FFF77CBF0EF1020E2EF0030E4A
:1055E0005EF8046B364205D4012A43EB030515F53A
:1055F000001F12D8012841EB010C1CF5001F0CD82C
:105600000ED14FEAD17C15F5001F0CEB4C0C0CF1C0
:10561000020C08BF4CEBD37C04E04FF0080C01E017
:105620004FEAD37C0CEB4C0526FA05F606F007068C
:10563000B6F1040C06D20EEB860CBDE870404CF0BF
:10564000010C6047DFE80CF0090B02024FF000414B
:105650004FF00000A1F5002170BD19461046012849
:1056600051EB010418BFD4F5001484BF002001F0F1
:10567000004170BD0808A0F500114FEA31017047E4
:1056800053EA010C17D41CF5801F58BFBCF5801FCE
:1056900000F106808B4218BF704708BF82427047F6
:1056A00007D713F5801F58BF11F5801F19D48B42FF
:1056B00070479B4270471CF5801F08D5BCF5801FC2
:1056C000F7D5994218BF704708BF904270474FF412
:1056D000001C1CEB430F38BF1CEB410F01D2994259
:1056E00070470FB40CBC03BCFFF76BBF43004FEA1D
:1056F000D30C4FEA3C0C43401FBF40070CF16051F4
:1057000013F0FE4F70471CF0006F03D100200CF027
:10571000004170470CF0004343EA507010B540EA76
:10572000CC0000F03CFA00BF000000924FEA0001FC
:10573000FFF7A0BF4FF000414FF00000A1F500219E
:105740007047000090EA010F48BF81F0004100F16E
:10575000AA82421A3CBF801A89184FEAD0524FF0F1
:105760007F4C1CEA410FA2EBD15318BF9CEA026F99
:1057700000F03B804FF0004C4CEA00204CEA012145
:1057800021FA03FC10EB0C0C1ED202F1FF325FEA8F
:105790001C2040EBC25038BF70471CF07F0F4FEA0F
:1057A000400C18BFBCF17F4F38BF7047C3F12003D6
:1057B000994008BF20F00100BCF17F4F38BF70470F
:1057C000A0F1C04000F031BA4FEA3C00000A40EBC3
:1057D000C25028BF1CF0FF0F4FEA400CE6D018BFA4
:1057E000BCF17F4F38BF7047EAE79CEA026F05D0F3
:1057F00010EA5C0F08BF00F00040704710B500F0E1
:10580000CEF900BF64FBBE3E401058BFC0F140401F
:10581000491058BFC1F140418142EFF30080704709
:105820004FF47F0C1CEAD0121EBF1CEAD11392EA7F
:105830000C0F93EA0C0F00F0858090EA010F48BF2F
:1058400042F4807240F4000C41F400002CF07F41DF
:1058500020F07F4000B58142A2EB03020FF2081C4A
:10586000ACEB504EC0F100009EF800E04FEA4E0E47
:1058700000FB0EFC38BF49004FEA2C1C02F5FA026F
:105880000CFB0EF34FEACE1E4FEA112C4FEAC1215A
:105890000EEB635E42EB22420EFB0CFC4FEA1C5304
:1058A00000FB03114FEA112C4FEA01310EFB0CFCF7
:1058B0004FEADC4C00FB0C11C14228BF09184CEB2D
:1058C00003335DF804EB10EB410143EBC250B2F53A
:1058D0007C0F38BF704729D512F0F00F1CBF00F1C4
:1058E000C04000F000407047008182838485868735
:1058F00088898B8C8D8E8F919293959697999A9C8F
:105900009D9FA0A2A3A5A7A8AAACAEB0B2B3B5B7FD
:10591000B9BCBEC0C2C5C7C9CCCED1D4D7D9DCDFD3
:10592000E2E6E9ECF0F3F7FAFE0000004FEA400C83
:105930000CF1807CBCF17E4F28BF7047B0F1C040B5
:1059400000F073B990EA010F0CEAD11348BF42F49A
:105950008072624538BF634507D213F47F0F16D0BB
:1059600080EA010000F00040704710B500F017F920
:10597000097EFC3E00F005B880EA010000F000401E
:10598000704780EA010000F0004000F04EB912F4C8
:105990007F0F04BF0248704780EA010000F045B95C
:1059A0000000C07F41000B0ED3F19E0208D950F4D5
:1059B00000034FEA032323FA02F048BF4042704736
:1059C00010B500F0ECF800BF499224800020704729
:1059D0006FF0004282EA20007047000010F00041A2
:1059E00048BF4042B0FA80F310FA03F2C3F19D03BE
:1059F0000BD051EAC35101EB1220530638BF704758
:105A000000F1010008BF20F001007047B0FA80F3F8
:105A100010FA03F2C3F19D030AD0D90501EB12205D
:105A2000530638BF704700F1010008BF20F00100A5
:105A30007047000050EA010C00F113801CF5000FC4
:105A400058BFBCF5000F01D48842704707D710F546
:105A5000000F58BF11F5000F15D4884270478942D6
:105A600070471CF5000F04D5BCF5000FF7D5814237
:105A700070474FF0807C1CEB400F38BF1CEB410F90
:105A800001D28142704710B500F089F89224490094
:105A90004FF000504FF08051FFF7B6BE4FF47F0C2F
:105AA0001CEAD0121EBF1CEAD11392EA0C0F93EA33
:105AB0000C0F00F0478090EA010F48BF42F480725B
:105AC0004FF0004C4CEA00204CEA012102EB0302AB
:105AD000A0FB0113A2F50002002918BF43F0010347
