:020000040800F2
:10000000A005002049010008FD270008F925000887
:10001000452700083D1100081133000800000000CA
:10002000000000000000000000000000D52D0008C6
:100030003F1100080000000031290008D72D0008FA
:100040006301000863010008630100086301000800
:1000500063010008630100086301000863010008F0
:1000600063010008630100086301000863010008E0
:1000700063010008630100086301000863010008D0
:1000800063010008630100086301000863010008C0
:1000900063010008630100086301000863010008B0
:1000A00063010008630100086301000863010008A0
:1000B000630100083D2E0008630100086301000889
:1000C0006301000863010008630100086301000880
:1000D000630100080533000863010008630100089C
:1000E0006301000863010008630100086301000860
:1000F0006301000863010008630100086301000850
:10010000630100086301000863010008630100083F
:10011000630100086301000863010008630100082F
:10012000630100086301000863010008630100081F
:10013000DFF810D000F0C0FD004800477D3C00080B
:10014000AFF30080A005002006488047064800471E
:10015000FEE7FEE7FEE7FEE7FEE7FEE7FEE7FEE777
:10016000FEE7FEE7392E000831010008202A04DBF3
:10017000203A21FA02F00021704721FA02F3D04020
:10018000C2F120029140084319467047D2B201E003
:1001900000F8012B491EFBD270470022F6E710B58C
:1001A00013460A4604461946FFF7F0FF204610BDE5
:1001B00010B5002200E0521C835C8C5CA34201D18C
:1001C000002BF8D1D8B2E1B2401A10BD0FB400B57F
:1001D0008DB010A909900B9000914FF0FF300A905C
:1001E00000200C9005480690054807906A4609A82B
:1001F0000F9900F01BFB0DB05DF814FB49080008D7
:10020000670800082DE9FF4F087883B09946FF285A
:1002100005D0491C2D2804D00024002008E000202F
:100220000BE00124F9E700EB800003EB4000491CE0
:100230000B78FF2BF7D104B14042002302931478CE
:1002400019461D462D2C01D02B2C04D1521C2D2CCF
:1002500013D000240294AA461478FF2C0FD00A254C
:10026000A3FB057801FB05814FF0000C03FB0C118B
:10027000521CE3194AEB0101EEE70124EAE781444D
:1002800053EA010002D019F5C87F06DA039800216D
:10029000C0E9001107B0BDE8F08F0025AE4E2F4633
:1002A000DFF8B882184600F0AEFCCDE90001B9F1E4
:1002B000000002DAC9F1000400E004460023A74A66
:1002C0001AEB030B42EB045A12E0E00707D02A4670
:1002D00033463846414600F0B5FB074688462A4675
:1002E00033461046194600F0ADFB05460E46641035
:1002F000002CEAD1DDE90001B9F1000F5A4653465E
:1003000006DA00F011FC3A46434600F00DFC05E029
:1003100000F098FB3A46434600F094FB029A0AB17B
:1003200081F00041039AC2E90001B3E72DE9FF4FD4
:100330001F468DB0D7E901464FF0FF382E204546C5
:100340004FF000090B90B9696D1C0E988847396A07
:10035000824688470028F6D1BAF1FF3F0AD024F43C
:10036000D064002E11DDBAF12B0F08D0BAF12D0F99
:100370000BD102E0404611B08DE744F48064B969C6
:100380006D1C0E9888478246761E6946600501D529
:100390002D2000E02B208DF8000001F1010B0DF164
:1003A000200809E0B9696D1C0E98884782460F98AD
:1003B00044F40074761E0560002E02DDBAF1300FA1
:1003C000F0D00B998A453ED144F0800406E00F99A5
:1003D000681CA9F1010944F400740860B9696D1C36
:1003E000761E0E98884782463028F0D02BE00B9975
:1003F0008A4505D1200603D444F08004761E18E017
:10040000504603F0A5F808B30DF11301761E44F42D
:1004100000748B4508D2AAF130000BF8010B2006BE
:1004200007D5A9F1010003E0200602D409F101007B
:100430008146A00502D50F99681C0860B9696D1C3A
:100440000E9888478246002ED1DC53E0002E51DD05
:10045000BAF1650F02D0BAF1450F4BD1A00549D5CD
:10046000B9696D1C24F44074761E0E988847824644
:10047000002E0CDD2B2804D0BAF12D0F07D144F447
:100480008074B9696D1C0E9888478246761EE00517
:1004900001D52D2100E02B2108F8011BCDF82C807F
:1004A00021E00DF12901761E44F4007488450CD238
:1004B000AAF1300010F0FF0088F8000002D10B997B
:1004C000884509D908F1010806E0E00501D524486E
:1004D00001E042F20F708146B9696D1C0E988847A1
:1004E00082460F980560002E04DD504603F030F878
:1004F0000028D6D1F9690E988847FF208BF80000B4
:1005000088F800000020069007904B466A4608A92C
:1005100006A8FFF777FEA00502D46FF001002AE7D6
:1005200014F0240F0AD0E00714D1DDE90612386870
:10053000031D3B600068C0E900120BE0DDE9060125
:1005400000F09EFB0146E00704D13868021D3A60C6
:100550000068016028460EE7000014400000F03FEC
:10056000F1D8FFFFF0B480EA0102D40F4200B2EBF1
:10057000410F02D20246084611464A0042D0C30D3E
:10058000DDB2C1F3C752AD1A202D35DAC1F3160121
:1005900041F4000204B15242C5F1200602FA06F10C
:1005A0002A411044B3EBD05F23D0C4B1012DA0EB9E
:1005B000C35009DCF0BC4FF0004202EAC352DBB288
:1005C00000F5000000F069B9400000F1807000EB18
:1005D000C350A0F1807040EAD170490009E0490899
:1005E00041EAC071A0EBC35000F50000400800EBE9
:1005F000C350F0BC00F048B96142012202EB410156
:10060000001BF6E7F0BC704781F00041AAE780F0DC
:100610000040A7E780EA010210B502F00043400065
:1006200022D04A001FD0010E01EB1261C0F3560028
:10063000C2F3560240F4000042F40002A0FB022084
:1006400000047F39140400D0401C50EA124001D449
:100650004000491EC2B20C0604EBD010401C4008FA
:10066000802A02D003E0002010BD20F00100002904
:1006700000DA0020184310BD30B480EA010202F015
:10068000004530F0004221F0004013D090B1C30D7E
:10069000D40DC2F31601C0F31600E41A41F40001B0
:1006A00040F400027D34914201D3641C00E0490013
:1006B000002C02DA30BC002070474FF40000002309
:1006C000914201D3891A034340084FEA4101F7D10F
:1006D00051B1914202D14FF0004105E002D24FF0FA
:1006E000010101E06FF0010103EBC450284430BC6C
:1006F00000F0CAB8C10F80EAE0700844CA07962328
:10070000002100F0CAB896230022114600F0C5B8B7
:1007100000F0004220F00040C10DC0F3160040F48C
:1007200000007F2901DA00207047962903DCC1F11F
:100730009601C84001E096398840002AF4D0404232
:10074000704700F0004230F000400AD0C10D01F5C2
:100750006071C0F3160042EA0151C208400711431C
:100760007047002001467047002801DBC0F10040BF
:10077000002901DBC1F1004181427047002801DB03
:10078000C0F10040002901DBC1F1004188427047FF
:1007900030B50B46014600202022012409E021FA51
:1007A00002F59D4205D303FA02F5491B04FA02F54E
:1007B0002844151EA2F10102F1DC30BD2DE9F05FE5
:1007C0000546002092469B468846064681464024C0
:1007D0001BE02846414647462246FFF7C7FC5346E2
:1007E0005A46C01A914110D311461846224600F0CD
:1007F00075FA2D1A67EB01084F46224601200021A9
:1008000000F06CFA17EB00094E41201EA4F1010420
:10081000DFDC484631462A464346BDE8F09F0000EB
:10082000026811441378016018467047D16004498A
:1008300051610449116200211161114600F074BA3E
:10084000210800081F0D0008426842B1016811F834
:10085000013B23B1521EC0E9001218467047012126
:10086000C160881E704742685AB1C368016843B9C5
:1008700083688B4205D0491E521CC0E9001200203B
:1008800070474FF0FF3070470029A8BF7047401CE9
:10089000490008BF20F00100704710B4B0FA80FC96
:1008A00000FA0CF050EA010404BF10BC704749B1D3
:1008B000CCF1200421FA04F411FA0CF118BF012143
:1008C00021430843A3EB0C01CB1D4FEA00614FEA23
:1008D000102042BF002010BC704700EBC3501044F2
:1008E0000029A4BF10BC7047401C490008BF20F07D
:1008F000010010BC70472DE9FE4F804681EA0300DD
:10090000C00F0C46009021F0004123F00045B8EBE9
:100910000200A94105D24046214690461C460B469E
:10092000024623F00040104347D0270DC7F30A00CA
:10093000C3F30A510290401A019040286BDAC3F3C6
:10094000130040F4801B0098924620B10023D2EBA4
:10095000030A63EB0B0B01985946C0F14002504665
:1009600000F0BCF906460D4650465946019A00F083
:10097000C4F910EB08006141002487EA115284EAAF
:10098000E7731A4340D0009A62B3019A012A4FEAF2
:10099000075215DC001B61EB02014FF0004202EA36
:1009A0000752CDE90042001C41F5801132462B462A
:1009B00000F061FB03B0BDE8F08F40462146F9E747
:1009C000001B61EB0201001C41F5801300185B4124
:1009D0002018A2F5001747EB030140EAD570B619BD
:1009E0006D4111E06D084FEA360645EAC0754FEAE1
:1009F0000752001B61EB0201001C41F58011490800
:100A00004FEA30000019514132462B4603B0BDE891
:100A1000F04F00F021BB0098012240000023D0EBF2
:100A2000020263EBE073009821464FEAE074B8EBF2
:100A3000000061EB0401E9E783F000435BE781F02C
:100A4000004158E72DE9FE4F81EA030404F0004419
:100A500021F0004100944FF0000B23F0004350EAD6
:100A600001045ED052EA03045BD0C3F30A54C1F31D
:100A70000A552C44A4F2F3340194A0FB0254C1F3B0
:100A8000130141F48011C3F3130343F4801301FBFA
:100A9000024400FB034E840A970A44EA815447EA61
:100AA0008357A4FB076802958D0A05FB07854FEA6B
:100AB000932C04FB0C542705029D4FEA065847EA85
:100AC0001637B5EB08056EEB070C870E920E47EA5A
:100AD000811742EA8312A7FB0201B6EB0B0164EB1C
:100AE00000042B0D43EA0C335E1844EB1C50DA462D
:100AF0005146E7FB0201C5F313044FEA0B3343EA07
:100B000014534FEA0432019C43EA0603A4F10C0497
:100B10000294009CCDE900B400F0ADFA03B0BDE84A
:100B2000F08F00200146F9E72DE9F04D81EA03043A
:100B300004F0004B21F0004514464FF0000A23F06A
:100B4000004150EA050220D054EA01021DD0C5F34D
:100B50000A570246C5F31303C1F31300C1F30A5643
:100B600040F4801543F48013A7EB0608101BD6460B
:100B700008F2FD3873EB050002D308F1010801E02B
:100B800092185B41B8F1000F03DA00200146BDE87E
:100B9000F08D00204FF48011064684460EE0171BAE
:100BA00073EB050705D3121B63EB050306434CEA01
:100BB000010C49084FEA300092185B4150EA0107E6
:100BC000EDD152EA030012D082EA040083EA050163
:100BD000084305D0101BAB4106D20122002306E0DA
:100BE00000224FF0004302E06FF0010253101AEBB5
:100BF00006004CEB085110EB0A0041EB0B01BDE87D
:100C0000F04D00F029BA0EB540F2334202920022B4
:100C1000CDE90022134600F02EFA03B000BDC1F367
:100C20000A52C1F3130140F2FF3341F480119A429A
:100C300002DA00200146704740F233439A42A2F2A2
:100C4000334202DC5242FFF791BA00F047B800008D
:100C500030B5041E71F1000404DB4FF00044404243
:100C600064EB0101141E73F1000405DB1C464FF018
:100C70000043524263EB0403994208BF904230BDE7
:100C800001F0004330B421F0004150EA010206D0E7
:100C90000A0DA2F56072C1F31301002A02DC30BC18
:100CA00000207047440F44EAC104C100E01830BC82
:100CB00000EBC250FFF7E8BD064C074D06E0E068C8
:100CC00040F0010394E8070098471034AC42F6D393
:100CD000FFF732FA8C400008AC400008202A04DB01
:100CE000203A00FA02F1002070479140C2F120033F
:100CF00020FA03F3194390407047202A06DBCB17F4
:100D0000203A41FA02F043EAE07306E041FA02F3C6
:100D1000D040C2F120029140084319467047C0B24A
:100D20004FF4F05100F0F6B92DE9F34F8BB04FF0CE
:100D3000000801F10C000C464FF0010B46460DF186
:100D4000080A01906269012101989047051E2DD083
:100D5000252D2CD0216A8847C0B1626901210198F4
:100D60009047216A88470028F7D1411E626901989F
:100D7000904700E0761CA1690B988847216A884754
:100D80000028F7D1E1690B988847DBE7A1690B9848
:100D900088470746A84201D1761CD3E7E1690B9842
:100DA00088477F1C02D1B8F1000F6FD047E10027C0
:100DB00062693D463946019890472A2804D1626904
:100DC0000121019890470125DFF88892626901218D
:100DD00001989047A0F130010A290AD24F45E5DC7D
:100DE00007EB870100EB4107303FDFD445F01005EA
:100DF000ECE7E90601D46FF000476C280AD04C28D4
:100E000014D0682815D06A280DD074281CD07A28F0
:100E10001AD01DE062690121019890476C2802D028
:100E200045F0040514E045F002050DE045F020050D
:100E30000AE06269012101989047682802D045F0D4
:100E4000080505E045F400656269012101989047B5
:100E5000C4E9015765283DD019DC58287AD00CDC4C
:100E6000452837D004DC252826D0412831D131E06F
:100E700046282FD047282CD12CE05B2877D061283A
:100E800028D063287CD0642823D15AE0D1E06F2891
:100E900048D008DC66281DD067281BD0692821D0DF
:100EA0006E2816D127E0702845D0732868D07528A1
:100EB00047D078280DD14DE0A1690B9888470546A9
:100EC00025283FF469AFE1690B9888476D1C3FF412
:100ED0006AAFB4E023466A466FF001000B99FFF752
:100EE00025FA9FE045F040006060A80723464FF0D8
:100EF000000236D43EE0E8077FF447AF2068011DCA
:100F000021600068290501D506701BE7290701D576
:100F1000068017E7A90703D5F117C0E9006111E7BB
:100F200006600FE745F040006060A80723464FF0D9
:100F3000080216D41EE040F60E0125EA01006060AA
:100F400016E045F040006060A80723464FF00A0213
:100F500007D40FE045F040006060A80708D523469D
:100F600010226FF001000B99AFF300805AE007E008
:100F7000234610226FF001000B99AFF3008051E07F
:100F80004FF000094F464B46632802D05B2807D03C
:100F900041E02079C00601D40120A06001273AE099
:100FA00062690121019890475E2805D14FF001093F
:100FB0006269494601989047216939B900210A467A
:100FC000534643F82120491C0829FADBB0B32169B4
:100FD00069B9C11700EBD16253110AEB830122F00A
:100FE0001F02821A01200B68904003430B60626964
:100FF0000121019890475D28E8D1B9F1000F09D08F
:101000000020514651F82020D24341F82020401CB6
:101010000828F7DB02AB224600976FF001000B991E
:10102000AFF3008000280CDA401C08D1BBF1000FA0
:1010300005D04FF0FF300DB0BDE8F08FFFE7404620
:10104000F9E7E90701D108F1010806444FF0000B68
:1010500078E60000CCCCCC0C10B5141E73F1000463
:1010600008DA401C41F1000192185B411A4301D19A
:1010700020F0010010BD2DE9F04D92469B4611B1C4
:10108000B1FA81F202E0B0FA80F220329046FFF726
:1010900025FE04460F4640EA0A0041EA0B0153468A
:1010A0005A46084313D0114653EA010019D0C8F13B
:1010B00040025046FFF75AF805460E46504659463C
:1010C0004246FFF70BFE084305D0012004E020460E
:1010D0003946BDE8F08D0020054346EAE0762C4312
:1010E00037430A986305E40AA0EB08000022FD0AD2
:1010F00044EA47540A3002D500200146E9E70105D9
:1011000010196941DDE9084500196941BDE8F04D54
:10111000A2E700007F2801D9002208E0064A02EB7E
:101120005002C007127800D1120902F00F0201200C
:101130009040084070470000AA3F0008FEE7704753
:1011400003490020086003490968486270470000AD
:10115000000000200C01002070B500F01DF8FFF722
:10116000C9FA0A4C2146FFF755FA0949FFF784FAF4
:10117000084D02E02146FFF7F5F9A842FAD201E056
:10118000FFF742FA21468842FADA70BD0000B44304
:1011900000D084470000808003480068406A03490B
:1011A00009680844704700000C010020000000207E
:1011B00010B590F821100022022905D00421816386
:1011C00080F82020012010BD01680B6823F00E0379
:1011D0000B6001680B6823F001030B6090F840304E
:1011E000C46B012101FA03F3636080F8211080F8D9
:1011F0002020104610BD00002DE9F05F90F821106E
:101200000024022903D004218163012485E00168C0
:101210000A6822F00E020A6001680A6822F00102E0
:101220000A603F4E3E4FB215DFF8F4C0DFF8F09091
:10123000DFF8ECA0DFF8E8B0DFF8E4E00168783F21
:1012400013011502ACF1640CA9F15009AAF13C0A92
:10125000ABF1280BAEF1140E4FF48018B14227D930
:10126000B9420ED0614512D049451DD0514518D024
:10127000594518D0714501D1424615E0294EB14279
:1012800001D1012210E0274E1436B14201D11022C3
:101290000AE0244E2836B14206D0224A3C3291421E
:1012A00001D11A4600E02A461E49091F0A602BE0B8
:1012B000B94213D0614517D0494522D051451DD0C0
:1012C00059451DD0714501D142461AE0B14202D1C3
:1012D0004FF0807215E0134EB14201D1012210E0AF
:1012E000104E1436B14201D110220AE00D4E2836BC
:1012F000B14206D00B4A3C32914201D11A4600E07D
:101300002A46074980394A60012180F821100021CE
:1013100080F82010416B01B188472046BDE8F09F5E
:10132000800002400804024070B5044600F010F945
:101330000546601C02D004480078044400F008F917
:10134000401BA042FAD370BD100000202DE9F84FD9
:10135000DFF8C8910024A9F1040B23460F2709F1F7
:10136000040AABF1040ED1E00125A54006EA05020E
:10137000AA4276D1DFF8A8C14E68A6EB0C086645F4
:101380002BD00DDC032E34D005DC36B3012E19D062
:10139000022E2FD11BE0112E16D0122E2AD119E0C9
:1013A000B8F5881F19D006DCB8F5803F15D0B8F520
:1013B000801F1FD111E0B8F5001F0ED0B8F5041F33
:1013C00018D10AE0CB6815E0CB681B1D12E0CB6892
:1013D00008330FE0CB680C330CE08B682BB1012B8A
:1013E0004FF0080303D0456104E0042302E00561E7
:1013F00000E00023FF2A01D8064601E000F10406C0
:101400004FEA840501D9A5F12005D6F8008007FA36
:1014100005FC28EA0C0803FA05F548EA0508C6F8B1
:1014200000804D68ED0070D53E4DAE6946F0010676
:10143000AE61AD6924F0030605F0010500953A4D53
:1014400006EB050CDCF80850A607360F07FA06F87D
:1014500025EA0805DFF8D480404503D14FF00008A5
:1014600025E052E0DFF8C880404502D14FF0010886
:101470001DE0DFF8C080404502D14FF0020816E0C1
:10148000DFF8B480404502D14FF003080FE0DFF8E9
:10149000AC80404502D14FF0040808E0DFF8A0809E
:1014A000404502D14FF0050801E04FF0060808FA68
:1014B00006F848EA0508CCF808804D68D9F80060BD
:1014C000ED024D4601D5164300E096432E604D686F
:1014D000DAF80060AD02554601D5164300E09643A8
:1014E0002E604D68DBF80060AD035D4601D5164304
:1014F00000E096432E604D68DEF80060ED0375460F
:1015000001D5164300E096432E60641C0A68164617
:10151000E2407FF429AFBDE8F88F000008040140E5
:1015200000001110001002400000014000080140BE
:10153000000C01400010014000140140001801405F
:10154000001C01400AB1016170470904FBE700007B
:101550000148806870470000100000200248816840
:10156000027811448160704710000020074810B5D0
:10157000016841F010010160032000F075F80F20B0
:1015800000F006F800F024F8002010BD0020024012
:1015900070B50D4D04464FF47A712878B1FBF0F028
:1015A0000A490968B1FBF0F000F0DCFA48B9102CE8
:1015B00007D200222146501E00F036F800206C6051
:1015C00070BD012070BD0000100000201C00002034
:1015D0000C4808B5816941F001018161816901F020
:1015E00001010091C16941F08051C161C06900F001
:1015F000805000900448416821F0E06141F00071A2
:10160000416008BD0010024000000140002809DBD5
:1016100000F01F02012191404009800000F1E0200C
:10162000C0F8001170470000F0B40E4B1B680C4668
:10163000C3F30223C3F10705042D00D90425191DA6
:10164000072901D2002300E0DB1E012606FA05F17E
:10165000491E214099409E40761E16403143F0BC01
:1016600001F094BE0CED00E0064900F007020868A6
:101670004FF6FF03184040EA0220034A1043086077
:10168000704700000CED00E00000FA052DE9F0477E
:101690000F46050061D0434E306800F00700B842A5
:1016A00009D2306820F0070038433060306800F01D
:1016B0000700B84251D128683B4C810712D540073A
:1016C00003D5606840F4E06060602878000703D5C7
:1016D000606840F4605060606068A96820F0F000C5
:1016E000084360602878C00728D06868012810D0B7
:1016F0002168022810D0890700292EDA616821F0BC
:10170000030101436160FFF723FF804641F28839FE
:101710000DE021688903EFE78901EDE7FFF718FF86
:10172000A0EB0801494502D90320BDE8F0876068B5
:10173000696800F00C00B0EB810FEFD1306800F069
:101740000700B8420BD9306820F0070038433060FA
:10175000306800F00700B84201D00120E5E72878A2
:10176000400705D56068E96820F4E06008436060E0
:101770002878000706D56068296920F4605040EA9F
:10178000C100606000F038F86168084AC1F30311D5
:10179000515CC8400649086006480068FFF7F8FE3B
:1017A0000020C2E70020024000100240923F0008E3
:1017B0001C00002014000020044805490068496806
:1017C000044AC1F30221515CC84070471C0000204C
:1017D00000100240A23F000804480549006849681B
:1017E000044AC1F3C221515CC84070471C0000206C
:1017F00000100240A23F00080E4A51680E4801F056
:101800000C03042B11D0082B0FD10C48C1F38343D8
:10181000C903C05C0AD55168084AC1F34041921E11
:10182000515C054A5043B0FBF1F07047044948430E
:10183000704700000010024000127A00823F00084A
:1018400000093D002DE9F84F040070D02078C04D0C
:10185000C00749D06868C0F38100012807D06868D4
:10186000C0F38100022809D16868C00306D5286842
:10187000800339D560680028E7D035E06068B0F5AE
:10188000803F0BD010B1B0F5A02F11D0286820F404
:1018900080302860286820F4802002E0286840F426
:1018A00080302860606890B1FFF752FE06460AE07B
:1018B000286840F480202860F0E700BFFFF748FE6A
:1018C000801B642873D828688003F7D50CE0FFF7E5
:1018D0003FFE064605E000BFFFF73AFE801B642886
:1018E000F0D828688003F7D420789A4E80074FF00C
:1018F00001094FF0000839D5686810F00C0F07D0C7
:101900006868C0F38100022809D16868C00306D462
:101910002868800714D52069012808D110E02069C3
:10192000B0B1C6F80090FFF713FE074605E00AE1E4
:10193000FFF70EFEC01B0228C4D828688007F7D521
:101940002868616920F0F80040EAC10028600DE0D5
:10195000C6F80080FFF7FCFD074604E0FFF7F8FD3E
:10196000C01B022823D828688007F7D420780007F6
:101970002CD57948A169D9B1C0F80090FFF7E8FDEE
:10198000074604E0FFF7E4FDC01B02280FD8686A91
:101990008007F7D571484FF4FA510068B0FBF1F0B9
:1019A000009000BF0098411E0091FAD20EE080E046
:1019B000C0F80080FFF7CCFD074604E0FFF7C8FD44
:1019C000C01B022875D8686A8007F7D420784007C2
:1019D00060D5E8690027C00008D4E86940F080506D
:1019E000E861E869012700F0805000905C480168D8
:1019F000C90513D40168834641F480710160FFF783
:101A0000A7FD824606E000BFFFF7A2FDA0EB0A009B
:101A100064284ED8DBF80000C005F5D5E068012841
:101A20000AD008B1052813D0286A20F001002862E6
:101A3000286A20F0040002E0286A40F001002862D1
:101A4000E06841F2883B98B1FFF782FD82460BE0E7
:101A5000286A40F004002862EEE700BFFFF778FD37
:101A6000A0EB0A0159455AD8286A8007F6D50CE040
:101A7000FFF76EFD824605E0FFF76AFDA0EB0A0165
:101A800059454CD8286A8007F6D41FB1E86920F080
:101A90008050E861E06988B36968C1F38101022977
:101AA00044D00228C6F8608004D0FFF751FD0446F8
:101AB00038E034E0FFF74CFD074604E0FFF748FD4F
:101AC000C01B02282BD828688001F7D4206AB0F503
:101AD000803F05D16868A16820F400300843686041
:101AE000D4E908010843696821F474110843686067
:101AF000C6F86090FFF72CFD044606E025E000BF25
:101B0000FFF726FD001B022809D828688001F7D5B9
:101B10001BE000BFFFF71CFD001B022802D90320B9
:101B2000BDE8F88F28688001F4D40EE00128F7D0D2
:101B30006868226A00F48031914204D1616A00F43D
:101B40007010884201D00120EAE70020E8E7000099
:101B50000010024000004242800442421C0000206B
:101B60000070004010B5401EB0F1807F01D301200D
:101B700010BD4FF0E02460610F21601701F006FCFA
:101B80000020A06107202061002010BD7047704731
:101B900070B590F83C20012A2CD0012480F83C40FC
:101BA000022280F83D2003685A689D6822F0700682
:101BB0000A6832435A60104B02689A420ED00F4BAB
:101BC0009A420BD0B2F1804F08D00D4B9A4205D00B
:101BD0000C4B9A4202D00C4B9A4204D1496825F032
:101BE00080031943916080F83D40002180F83C104B
:101BF000084670BD022070BD002C01400034014039
:101C00000004004000080040000C00402DE9F041B5
:101C10000D46040003D094F83D0018B108E00120FF
:101C2000BDE8F081002084F83C00204600F040F838
:101C3000022084F83D002068816844F20702914345
:101C40008160211D206801F0FFF822689068916989
:101C5000166A2B68AF69034340F20330814341EABF
:101C60000721A868EF6908434FF6FC418843E968FB
:101C700040EA0720014328692F6A000140EA073043
:101C8000084369686D6926F0220646EA051529436E
:101C900093602268906154F8460B0162012004F8B9
:101CA0001F09E0752076E0762077A0750020B7E761
:101CB00000B585B000210091019102910391006867
:101CC0001649884227D11648C16941F00201C16115
:101CD000C16901F002010491816941F0080181614B
:101CE0008069694600F008000490302000900D489B
:101CF000FFF72CFB0C48416821F4406141F0E061A2
:101D000041F400614160002211461D20FFF78CFC68
:101D10001D20FFF77BFC05B000BD00000004004063
:101D200000100240000C01400000014070B590F826
:101D30003E60044690F83F5090F8423090F84320BF
:101D4000022021B1042914D0012E25D11EE0012E3C
:101D500022D1012B20D184F83E0084F842000122D8
:101D60000021206801F0BEF82068C16841F002013E
:101D70002FE0012D10D1012A0ED184F83F0084F804
:101D800043000421206801F0ADF81EE0012D03D1CD
:101D9000012B01D1012A01D0012070BD84F83E0041
:101DA00084F83F0084F8420084F8430001220021B7
:101DB000206801F097F801220421206801F092F8D0
:101DC0002068C16841F00201C1602068C16841F02B
:101DD0000401C1602068016841F001010160002038
:101DE00070BD70472DE9F04104460068C66805697A
:101DF0004FF00007A90713D5B10711D5F91E0161EE
:101E000001202077206880698007204602D0FFF7F4
:101E1000E8FF04E000F0A2F8204600F045F927773B
:101E2000680716D5700714D521686FF004000861A3
:101E3000022020772068806910F4407F204602D07D
:101E4000FFF7CFFF04E000F089F8204600F02CF9FE
:101E50002777280715D5300713D521686FF00800BC
:101E60000861042020772068C0698007204602D0DE
:101E7000FFF7B7FF04E000F071F8204600F014F916
:101E80002777E80616D5F00614D521686FF0100004
:101E90000861082020772068C06910F4407F204640
:101EA00002D0FFF79EFF04E000F058F8204600F053
:101EB000FBF82777E80708D0F00706D021686FF015
:101EC00001000861204600F04BF9280608D53006CD
:101ED00006D521686FF0800008612046FFF756FEA6
:101EE000680608D5700606D521686FF040000861C5
:101EF000204600F036F9A8060AD5B00608D52168B4
:101F00006FF0200008612046BDE8F041FFF73FBEBA
:101F1000BDE8F08100B585B00021009101910291EA
:101F200003910068B0F1804F11D10A48816941F0F6
:101F3000040181618069694600F004000490012079
:101F400000900220019003900348FFF7FFF905B0CD
:101F500000BD00000010024000080140704770B54D
:101F6000044690F83C0000260D4601280FD00120C1
:101F700084F83C006AB1042A1DD0082A2FD00C2A0C
:101F80003FD00126002084F83C00304670BD02207E
:101F900070BD206800F0B4FF2068816941F008013D
:101FA00081612068816921F0040181612068816973
:101FB0002A69114311E0206800F0D2FF206881698E
:101FC00041F4006181612068816921F4806181614F
:101FD000206881692A6941EA02218161D2E720688B
:101FE00000F0F4FF2068C16941F00801C161206878
:101FF000C16921F00401C1612068C1692A691143E6
:1020000011E0206801F016F82068C16941F4006110
:10201000C1612068C16921F48061C1612068C16922
:102020002A6941EA0221C161ACE710B5040003D07E
:1020300094F83D0010B107E0012010BD002084F8A5
:102040003C00204600F01EF8022084F83D00211DCF
:10205000206800F0F9FE012084F8460084F83E0074
:1020600084F83F0084F8400084F8410084F842007E
:1020700084F8430084F8440084F8450084F83D0067
:10208000002010BD08B50068B0F1804F08D10548A8
:10209000C16941F00101C161C06900F00100009017
:1020A00008BD0000001002407047000010B5044653
:1020B000022249B104290ED0082913D094F8410016
:1020C000012816D0012010BD94F83E000128F9D156
:1020D00084F83E200FE094F83F000128F2D184F804
:1020E0003F2008E094F840000128EBD184F840201C
:1020F00001E084F841200122206800F0F3FE13493A
:102100002068134A884201D0904203D1436C43F4C3
:1021100000434364206888420DD090420BD0B0F158
:10212000804F08D00B49884205D00B49884202D025
:102130000A49884204D1816801F00701062903D0C9
:10214000016841F001010160002010BD002C014038
:10215000003401400004004000080040000C004032
:102160007047704770477047F8B5016804460868C3
:10217000CA684B6910F00F0F4FF0000559D003F0FB
:10218000010602F49077374365D0C10705D0D10529
:1021900003D5616C41F001016164410705D5D907A0
:1021A00003D0616C41F002016164810705D5D90754
:1021B00003D0616C41F004016164010707D502F0AE
:1021C0002001314303D0616C41F008016164616C0E
:1021D00000293AD0800604D5900602D5204600F0AA
:1021E00080FF20684069616CC0F38010090700D44B
:1021F00060B3204600F04EFF20684069400621D5BC
:102200002068143050E8001F21F0400140E800121F
:10221000002AF5D1E06BA8B16D494163E06BFEF790
:10222000EBFF002811D0E06B416B01B0BDE8F0403E
:10223000084783060FD593060DD52046BDE8F84024
:1022400000F04FBF2046FFF78EFFF8BD2046FFF796
:102250008AFF6564F8BD266B2023012E7CD1C6065B
:102260007AD5D60678D508684868009048694FF056
:102270000206400640D5E16B086840680004000C87
:10228000E8D0A28D8242E5D9E085886920282DD04A
:1022900020680C3050E8001F21F4807140E80012E3
:1022A000002AF5D12068143050E8001F21F0010108
:1022B00040E80012002AF5D12068143050E8001FD1
:1022C00021F0400140E80012002AF5D184F84230A4
:1022D000256320680C3050E8001F21F0100140E811
:1022E0000012002AF5D1E06BFEF762FF6663A08D55
:1022F000E18D401A81B22AE0A08DE18D401A81B2B1
:10230000E08D0028A6D00029A4D022680C3252E823
:10231000000F20F4907042E80007002FF5D12068EC
:10232000143050E8002F22F0010240E80027002F6F
:10233000F5D184F84230256320680C3050E8002F36
:1023400022F0100240E80023002BF5D166632046FE
:10235000FFF708FFF8BDFFE705062BD5150629D5C1
:1023600094F841002128F5D1A068B0F5805F01D133
:102370002069B0B1206A411C216221680078486060
:10238000E08C401E0004000CE084E3D12068C168AA
:1023900021F08001C1602068C16841F04001C16046
:1023A000D8E7206A0088C0F308004860206A801CD3
:1023B0002062E5E74006CDD55006CBD5CA68204659
:1023C00022F04002CA6084F8413000F014F9C1E7FD
:1023D0008530000870B5040004D094F84100002551
:1023E00010B106E0012070BD84F84050204600F096
:1023F00023F8242084F841002068C16821F40051AA
:10240000C160204600F0CEFE2068016921F49041B1
:1024100001612068416921F02A0141612068C16899
:1024200041F40051C1606564202084F8410084F8C3
:1024300042006563002070BD30B585B00024009473
:102440000194029403940068184988422CD11848DA
:10245000816941F480418161816901F48041049185
:10246000816941F0040181618069124D00F004002E
:1024700004904FF40070009002200190032003901C
:1024800069462846FEF762FF2815CDE90004694633
:1024900028460294FEF75AFF002211462520FFF736
:1024A000C3F82520FFF7B2F805B030BD0038014071
:1024B000001002400008014090F84230202B01D06B
:1024C0000220704721B11AB10023036300F0C6BE99
:1024D0000120704770B500680F4988421BD1104C2D
:1024E0000E4D2078295C0D290ED00A290CD06328C6
:1024F00001D2401C2070207801222918BDE87040CC
:102500000648F430FFF7D8BF00262E54034800F0E9
:1025100011FA2670EFE770BD00380140600000201E
:10252000080000202DE9F843044690F84100984641
:1025300016460D46202802D00220BDE8F88385B15A
:102540007EB100206064212084F84100FFF700F88C
:10255000A6848146E684A0682027B0F5805F02D07B
:1025600003E00120E9E7206910B12E4600250EE0C6
:1025700000260CE08021204600F08BFEA8B9C6B1F1
:1025800016F8010B21684860E08C401EE084E08C66
:102590004B464FF00002CDF800800028EAD14FF002
:1025A0004001204600F075FE40B184F841700320E0
:1025B000C3E735F8020BC0F30800E3E784F8417085
:1025C0000020BAE790F84130202B01D0022070475C
:1025D00079B172B101628284C284002141642121F7
:1025E00080F841100068C16841F08001C16000209E
:1025F0007047012070477047FEE7000030B585B096
:10260000002418480094019402940394816941F0D5
:1026100020018161816901F020010491816941F00B
:1026200004018161816901F004010491816941F033
:102630000801816180690C4D00F0080004900022BF
:1026400006212846FEF77EFF062000900120CDE9F6
:1026500001040220039069462846FEF777FE05B084
:1026600030BD0000001002400008014010B58AB0E3
:10267000002407941C2168460894FDF78EFD164837
:102680004FF08041016040F2CF21C0E9011440F2D7
:10269000E731C0E903148461FFF7C7FC08B172B6E3
:1026A000FEE7079407A90C480894FFF771FA08B1F0
:1026B00072B6FEE76020CDE900040294002269466C
:1026C00005480494FFF74BFC08B172B6FEE70248D8
:1026D000FFF720FC0AB010BDC400002010B58CB07C
:1026E00024216846FDF759FD002415480994134933
:1026F0000A94C0E900144FF6FF71C0E90241046179
:1027000084610120CDE90004CDE902040494CDE9FF
:102710000540079469460A480894FFF777FA08B11C
:1027200072B6FEE7099409A905480A94FFF730FA42
:10273000002801D072B6FEE70CB010BD00040040C6
:102740000C010020FEE7000008480749084A016024
:102750000021C0E9011202230382C26004224282E6
:102760008182817570470000C40000202400002091
:102770000008014070B51F4C05464FF47A72218A5B
:10278000A068954201DD154606E01B4A954201DA34
:1027900015460DE0002D0BDB0022FEF7D3FE618A0B
:1027A0000122E068FEF7CEFE0020A075A8B20BE083
:1027B0000122FEF7C7FE618A0022E068FEF7C2FE32
:1027C0000120A075684280B2616841B104290AD035
:1027D0000829216809680AD00864A58270BD2168AB
:1027E00009684863F9E7216809688863F5E7C86301
:1027F000F3E700002400002018FCFFFFFEE70000C4
:102800002DE9F0478946314F32498246304E3868CB
:10281000DFF8C4800C6848B1201AFDF774FF2F4917
:10282000FDF72AFF0546B0F5000F00DA35464946A8
:1028300050463C60FDF7E8FE814644464946D8F8DC
:102840000000FDF7E7FE064629464846FDF7E2FE92
:102850002169FDF787FE20616169FDF78FFF01D2D5
:10286000606920616069216980F00040FDF786FFA2
:1028700003D2606980F000402061A7682169384672
:10288000FDF7C8FE3146FDF76DFE06464846E16895
:10289000FDF7BAFE2946FDF7EFFE01463846FDF783
:1028A000B9FE3146FDF75EFEC4F80C900546A169FD
:1028B000FDF764FF00D2A569E1692846FDF754FFE2
:1028C00000D2E5692846BDE8F0870000040000203A
:1028D0000AD7233C0C0000203C00002000007A4472
:1028E0000848074901604FF07C514160064981600A
:1028F000064981610649C1610649416100F00CB891
:10290000000070413C000020CDCCCC3D00007A435B
:1029100000007AC300007A44034900200861C860BF
:1029200008620249086070473C0000200000002057
:10293000704700002DE9F04186B00646054600E0EC
:102940006D1C28782028FBD004AA55A12846FDF745
:102950003DFC564C01283ED004AA55A12846FDF75F
:1029600035FC01283FD004AA54A12846FDF72EFCCF
:10297000012844D054A12846FDF71AFC002846D06F
:1029800054A12846FDF714FC002855D054A1284630
:10299000FDF70EFC002853D053A12846FDF708FC94
:1029A000002855D052A12846FDF702FC002855D03A
:1029B00051A13046FDF7FCFB514C002868D051A1D5
:1029C0003046FDF7F5FB002866D0294650A000F000
:1029D000CDFC55A03FE004982060FDF7B2FE024612
:1029E0000B465BA006E004986060FDF7AAFE024675
:1029F0000B465CA000F0BAFC06B0BDE8F08104987C
:102A0000A060FDF79EFE02460B465BA0F2E7A068C1
:102A1000FDF797FE074688466068FDF792FE05467B
:102A20000E462068FDF78DFE8DE8E00102460B465C
:102A300056A000F09BFCDFE7FFF76EFF5EA00AE008
:102A4000FEF78AFBFDF77DFE02460B465FA0D1E74D
:102A5000FEF776FB63A000F089FCCDE768A000F0EC
:102A600085FC71A000F082FC7AA000F07FFC83A0BE
:102A700000F07CFC8CA000F079FC97A000F076FCC4
:102A8000A2A000F073FCACA000F070FCB7A0E2E7DD
:102A900001202070BFA0DEE700202070C5A0DAE78B
:102AA000736574206B702025660000003C000020D8
:102AB000736574206B6920256600000073657420BF
:102AC0006B642025660000007069642073686F776E
:102AD0000000000070696420726573657400000076
:102AE000616E676C650000007A65726F000000001F
:102AF00068656C7000000000766F6661206F6E0084
:102B000009000020766F6661206F66660000000095
:102B1000556E6B6E6F776E20636F6D6D616E643A8C
:102B20002025730D0A000000547970652027686520
:102B30006C702720666F7220617661696C61626CCF
:102B40006520636F6D6D616E64732E0D0A00000069
:102B50004B702073657420746F3A20252E33660DF8
:102B60000A0000004B692073657420746F3A2025B9
:102B70002E33660D0A0000004B64207365742074C8
:102B80006F3A20252E33660D0A00000043757272DD
:102B9000656E74205049443A204B703D252E3366B3
:102BA0002C204B693D252E33662C204B643D252E71
:102BB00033660D0A000000005049442072657365B9
:102BC0007420646F6E650D0A000000004375727218
:102BD000656E7420616E676C653A20252E3266C280
:102BE000B00D0A00456E636F646572207A65726F7E
:102BF00020706F736974696F6E207365740D0A00BD
:102C00003D3D3D204D6F746F722050494420436F0D
:102C10006E74726F6C20436F6D6D616E6473203DD6
:102C20003D3D0D0A00000000736574206B70203C70
:102C300076616C75653E202020202D205365742020
:102C400070726F706F7274696F6E616C206761690A
:102C50006E0D0A00736574206B69203C76616C759B
:102C6000653E202020202D2053657420696E7465F8
:102C70006772616C206761696E0D0A00736574206C
:102C80006B64203C76616C75653E202020202D20F1
:102C9000536574206465726976617469766520672E
:102CA00061696E0D0A0000007069642073686F77B7
:102CB000202020202020202020202D2053686F77E6
:102CC0002063757272656E74205049442076616C81
:102CD0007565730D0A000000706964207265736584
:102CE000742020202020202020202D205265736574
:102CF000742050494420696E74656772616C20616C
:102D00006E64206572726F720D0A0000616E676CEE
:102D100065202020202020202020202020202D2061
:102D2000526561642063757272656E7420616E67AE
:102D30006C650D0A000000007A65726F202020206B
:102D4000202020202020202020202D2053657420AA
:102D500063757272656E7420706F736974696F6EDB
:102D6000206173207A65726F0D0A000068656C70CF
:102D700020202020202020202020202020202D2046
:102D800053686F7720746869732068656C700D0AEA
:102D900000000000564F46412B206461746120738F
:102DA000747265616D696E6720454E41424C4544C1
:102DB0000D0A0000564F46412B2064617461207358
:102DC000747265616D696E672044495341424C4598
:102DD000440D0A007047FEF7C1BB30B58FB0282103
:102DE0006846FDF7DAF914210AA8FDF7D6F90121A2
:102DF0000804CDE900100024029402250491CDE9D5
:102E000007504FF4E01009906846FEF71BFD08B12B
:102E100072B6FEE70F20CDE90A054FF48060CDE9D8
:102E20000C4002210AA80E94FEF730FC002801D0C5
:102E300072B6FEE70FB030BD704700000148FEF7E4
:102E4000D1BF00000C010020F0B50268204C214DDC
:102E5000214E224F224B4FF0804CA04209D0984285
:102E600007D0604505D0A84203D0B04201D0B84297
:102E700004D122F0700E4A6842EA0E02A04209D044
:102E8000984207D0604505D0A84203D0B04201D097
:102E9000B84203D122F44075CA682A434D6922F032
:102EA00080022A4302608A68C2620A688262A04283
:102EB00001D0984201D10969016301214161016991
:102EC000C90703D0016921F001010161F0BD0000D3
:102ED000002C01400004004000080040000C0040AD
:102EE0000034014010B501F01F030121046A99402C
:102EF0008C430462016A9A401143016210BD0000D4
:102F0000F0B5036A026A22F0010202624268846933
:102F1000124E24F073050C682C4323F002058B68D5
:102F20002B430D4DA84201D0B04205D123F0080734
:102F3000CB683B4323F00403A84201D0B04205D143
:102F40004D6922F4407215438A692A4342608461C4
:102F5000496841630362F0BD002C01400034014028
:102F6000F0B5026A036A23F01003036243688469C0
:102F70000D6824F4E64444EA05248D6822F020021A
:102F800042EA05120F4D104EA84201D0B04206D1C0
:102F9000CF6822F0800242EA071222F04002A842E3
:102FA00001D0B04207D14D6923F4406343EA850361
:102FB0008D6943EA850343608461496881630262E5
:102FC000F0BD0000002C014000340140F0B5026A61
:102FD000036A23F4807303624368C46922F40072B5
:102FE00024F073050C68124E2C438D6842EA0522CA
:102FF0000E4DA84201D0B04206D1CF6822F4006243
:1030000042EA072222F48062A84201D0B04207D1EE
:103010004D6923F4405343EA05138D6943EA0513D0
:103020004360C4614968C1630262F0BD002C014085
:103030000034014030B5046A026A22F48052026210
:103040004268C3690D6823F4E64343EA05238D68AB
:1030500024F4005444EA0534084DA84202D0084D37
:10306000A84204D14D6922F4804242EA85124260AE
:10307000C36149680164046230BD0000002C014056
:103080000034014010B5406A0021C185C184FFF7BA
:103090006AF810BD01680C3151E8002F22F49072DB
:1030A00041E80023002BF5D10168143151E8002FCD
:1030B00022F0010241E80023002BF5D1016B012928
:1030C00009D101680C3151E8002F22F0100241E8CB
:1030D0000023002BF5D1202180F84210002101634C
:1030E000704708B590F84210222901D0022008BD8F
:1030F00082684FF480539A4201D1016921B1816AFB
:103100009A421BD04AB10AE00268816A5268C2F34F
:1031100008020A80816A891C08E0026972B10268AB
:10312000526802F07F020A70816A491C8162C18D77
:10313000491E0904090CC18503D01BE002685268CE
:10314000F1E70168CA6822F02002CA600168CA6813
:1031500022F48072CA6001684A6922F001024A6161
:10316000202180F8421000214163026B012A03D024
:10317000FFF7B0F9002008BD016301680C3151E888
:10318000002F22F0100241E80023002BF5D1016846
:103190000A68D20602D50A6849680091818DFEF757
:1031A000E1FFE7E770B5044600680169E26821F4D1
:1031B0004051114301612169A068084361690843D6
:1031C0002168CA6841F20C639A430243CA602068CE
:1031D0004169A26921F44071114341611E4920688F
:1031E000884202D1FEF7F8FA01E0FEF7E5FA00EBBB
:1031F000C00101EB0012606864218000B2FBF0F3B3
:10320000B3FBF1F36FF018067343B2FBF0F5B2FBBA
:10321000F0F605EB8305322303EB0515B5FBF1F55D
:10322000B6FBF1F605F0F00505EB0615B2FBF0F67E
:10323000B2FBF0F0B0FBF1F06FF01802504306EB78
:10324000800003EB0010B0FBF1F0216800F00F00EC
:103250002844886070BD000000380140816282858A
:10326000C28500214164222180F84210016921B108
:103270000168CA6842F48072CA6001684A6942F013
:1032800001024A610068C16841F02001C16000206C
:1032900070472DE9F843984617460D460446089EA8
:1032A00024E0701C22D0FEF753F9A0EB0800B042D6
:1032B0001AD8CEB12068C168490717D5802D15D01E
:1032C000402D13D00168C94309070FD401680025B8
:1032D000406800902046FFF7DDFE0820606484F817
:1032E00040500120BDE8F8830320FBE72068006818
:1032F00035EA000004D00020B842D2D00020F1E727
:103300000120F9E70148FEF72FBF0000540100201B
:10331000FEE7000010B588B08DE807000F4801688F
:10332000039141680491806805900D480068FDF79D
:10333000E1F906900BA04FF0FF3400680790234698
:103340001C2269460848FFF7EDF82346042207A926
:103350000548FFF7E7F808B010BD00003C0000206A
:10336000000000200000807F540100200FB4054BB6
:1033700010B503A9044A029800F0F2F810BC5DF8F9
:1033800014FB0000693C0008200000200907090E1A
:10339000002804DB00F1E02080F80014704700F002
:1033A0000F0000F1E02080F8141D704702E008C80B
:1033B000121F08C1002AFAD170477047002001E0AF
:1033C00001C1121F002AFBD1704700002DE9FF5FE9
:1033D00082B00021DDE90430020DDDF840B0034386
:1033E00018D044F61050A2F2FF324243151411983F
:1033F00001281FD0A5EB0B00401C5FEA000A4FF02C
:1034000000064E4FDFF83891B046504615D5CAF148
:10341000000413E0119801244AA3012801D16FEAA6
:103420000B010298119AC0E90031C0E9024206B0CE
:10343000BDE8F09FCBF10000DFE704460021404AE1
:10344000491842EB0450CDE9001012E0E00707D024
:1034500032463B4640464946FDF7F4FA80468946E7
:1034600032463B4610461946FDF7ECFA06460F4633
:103470006410002CEAD1DDE90401DDE90023BAF192
:10348000000F06DAFDF7DEFA42464B46FDF7DAFAA0
:1034900005E0FDF749FB42464B46FDF745FB044678
:1034A0000E460022284BFDF7D3FB03D84FF0FF3028
:1034B000014607E00022254B20463146FDF71BFA66
:1034C000FDF7ADFB102409E0002C0ADB0A220023E3
:1034D000FDF774F9039B30321A55641E50EA01025D
:1034E000F2D1641C039AC4F111031444119A012A05
:1034F00003D0012208430DD10AE0084304D0002084
:103500004FF0110B119072E7A3EB0B056D1E0DE050
:103510005B4504DD4FF0000205F1010504E003DA2C
:103520004FF00002A5F10105002AECD00298119994
:10353000C0E90231C0E9004579E70000000014400D
:103540000000F03F300000000000F0430000E03FCA
:1035500030380A2801D2012070470020704700004F
:103560002DE9FF4F95B09A46884606460025EEE1C4
:10357000252877D100242746F94A0121039400E049
:10358000044316F8013F203B01FA03F01042F7D143
:1035900030782A2811D06FF02F033078A0F1300254
:1035A000092A16D8039A44F0020402EB820203EBC4
:1035B00042021044761C0390EFE758F8042B039264
:1035C000002A03DA504244F40054039044F0020409
:1035D000761C30782E2816D116F8010F44F004041A
:1035E0002A280DD06FF02F023078A0F13003092B7C
:1035F00009D807EB870302EB4303C718761CF3E7F0
:1036000058F8047B761C30786C280FD006DC4C28E8
:1036100017D068280DD06A2814D104E0742810D07F
:103620007A280FD10DE044F400140AE044F4801429
:1036300001E044F440147278824202D104F580140F
:10364000761C761C307866280BD013DC582877D08F
:1036500009DC002875D04528F6D04628F4D0472844
:103660001AD193E118E0632835D0642879D0652811
:1036700012D18BE1702873D008DC6728F1D069285B
:103680006FD06E280DD06F2806D1ACE073282CD0F7
:10369000752874D0782853D05246179990476D1CDE
:1036A00054E1C4F30250022809D003280DD0D8F801
:1036B000001004280DD00D6008F1040846E1D8F888
:1036C0000010EA17C1E90052F6E7D8F800100D80A3
:1036D000F2E70D70F0E718F8041B8DF800100020D9
:1036E0008DF80100EB46012003E058F804BB4FF0D1
:1036F000FF3061074FF0000102D40DE009F1010134
:103700008946B9420FDA8145F8DB1BF80910002918
:10371000F4D108E009F1010189468142FADB1BF886
:1037200009100029F6D103985346A0EB090721465A
:103730003846179A00F080FA284400EB090507E0A4
:1037400044E008E10DE01BF8010B52461799904741
:10375000B9F10109F7D2534621463846179AF2E0EB
:1037600039E00A21C4F302524FF0000B0091022A03
:1037700006D058F8040BC117032A09D00AE023E049
:1037800008F1070020F00702F2E80201904605E088
:1037900000B2C117042A01D140B2C117002906DACC
:1037A0000A460021404261EB02012D2202E022057F
:1037B00004D52B228DF80420012203E0E20701D07A
:1037C0002022F7E7914657E00A2100E010214FF050
:1037D000000B00910BE010214FF0000B44F00404AB
:1037E0000827009103E008204FF0000B0090C4F37D
:1037F0000252022A05D058F8040B0021032A08D0EF
:1038000008E008F1070020F00702F2E80201904604
:1038100003E080B2042A00D1C0B24FF000092207B1
:103820002AD53278702A07D0DDF800C08CF0100C51
:103830005CEA0B0C05D00EE040228DF8042001223A
:1038400008E050EA010306D030238DF804308DF8EB
:10385000052002229146009B83F0080353EA0B03E4
:103860000AD150EA010201D1620705D530228DF854
:1038700004204FF001097F1E3278582A04D039A263
:103880000C920CAA02920BE03BA2F9E75B46009A6D
:10389000FCF794FF0C9B9B5C029A521E02921370E1
:1038A00050EA0102F2D1029804A9081A00F1200B93
:1038B000600702D524F4803400E001275F4502DD73
:1038C000A7EB0B0000E0002000EB0B010090039839
:1038D0004944401A0390E00306D453462146179A00
:1038E000039800F0A9F90544002706E001A8524614
:1038F000C05D179990476D1C7F1C4F45F6DBE003B8
:103900000CD553462146179A039800F095F90544C3
:1039100004E030205246179990476D1C0099481ECC
:1039200000900029F5DC08E00298029952460078E0
:10393000491C0291179990476D1CBBF10001ABF136
:10394000010BF1DC5BE100F065F90544761C307891
:1039500000287FF40DAE19B02846BDE8F08F0000B6
:103960000928010030313233343536373839616255
:103970006364656600000000303132333435363719
:10398000383941424344454600000000600700D4F6
:10399000062708F1070020F00700F0E80223804620
:1039A00003F0004C5FEA0C0001D097A009E020056D
:1039B00001D596A005E0E00701D095A001E0AFF2A7
:1039C0004C001390307823F0004365280CD006DCBF
:1039D000452809D046281DD047287FD13BE06628DE
:1039E00018D067287AD136E00021112F01DB112091
:1039F00000E0781CCDE9000104A90CA8FFF7E6FC63
:103A0000DDE90D010C9A4FF0000B07F1010910924E
:103A100000914EE04FF000400097CDE9011004A95D
:103A20000CA8FFF7D3FCDDE90D020C9B0F994FF0BA
:103A3000000B91461093009211B9791C00EB01091B
:103A4000B7EB090003D4C0F1FF3B07F10109A9EB73
:103A50000700019042E0012F00DA01270021112F19
:103A600001DD112000E03846CDE9000104A90CA8D1
:103A7000FFF7ACFCDDE90D010C9A00914FF0000B53
:103A8000B946109221070FD4009A4A4503DA9146AD
:103A900001E0A9F10109B9F1010F05DD109AA9F1C1
:103AA0000101515C3029F4D0B84202DA10F1040F60
:103AB00003DA0121CDE9011010E0002803DC834482
:103AC000A9EB000102E0411C494500DD8946A0EB5D
:103AD0000B00401C01904FF000400290200705D4DD
:103AE0000198484502DB4FF0FF30019000208DF82F
:103AF0004B0002980DF14B07B0F1004F25D002208A
:103B00000C902B200D90029800280CDA4042029075
:103B10002D200D9007E00A210298FCF739FE303184
:103B2000029007F8011D0C99481E0C900029F2DC48
:103B300002980028EFD1791E0D980870307800F0B7
:103B4000200040F0450007F8020D11A8C01BC01D61
:103B500002901398007800B1012000EB0901019850
:103B600001EBE071029801440398401A401E039053
:103B7000E00306D453462146179A039800F05CF8F8
:103B800005441398007818B15246179990476D1C58
:103B9000E00323D553462146179A039800F04CF8CA
:103BA00005441BE0BBF1000F07DB0098584504DD1E
:103BB0001098179910F80B0001E017993020524621
:103BC000904701980BF1010B401E05F10105019092
:103BD00004D12E205246179990476D1CB9F100016F
:103BE000A9F10109DEDC05E017F8010B524617992F
:103BF00090476D1C0299481E02900029F4DC534640
:103C00002146179A03989EE62D0000002B00000025
:103C1000200000002DE9F041044600251E4617460D
:103C2000880404D405E039462020B0476D1C641E8A
:103C3000F9D52846BDE8F0812DE9F041044600257C
:103C40001E469046C80301D5302700E0202788048F
:103C500004D505E041463846B0476D1C641EF9D5D1
:103C60002846BDE8F081000013B5012269460248EC
:103C7000FEF7A8FC00981CBD5401002086B06D48DA
:103C800000252E460490FDF771FCFFF7A6F8FEF71D
:103C9000B5FCFEF7EBFCFEF721FD684866490C22F7
:103CA00001604FF4E131416000218160C160C0E9F1
:103CB00004128161C161FEF78DFB08B172B6FEE7A7
:103CC000FEF742FDFEF70CFE5C4800219038FEF73F
:103CD000EDF95A483C214838FEF728F8584C574827
:103CE00001222178F4380144F430FEF7E5FBFDF7BA
:103CF00027FA54A0D4F804B0FFF738FB0A20FDF7E8
:103D000013FB5AA0FFF732FB0A20FDF70DFB614BB6
:103D100022224FF4FA7160A0FFF728FB0A20FDF77A
:103D200003FB69A0FFF722FB0A20FDF7FDFA744FA1
:103D3000B868FCF706FD81468A467868FCF701FD05
:103D4000044688463868FCF7FCFC8DE810070246FC
:103D50000B466CA0FFF70AFB0A20FDF7E5FA384C8A
:103D6000FDF7FAF9014602900498FEF749FD8146F5
:103D7000FCF7CEFC00B2FEF7FDFC607820B14A46AD
:103D800002990498FFF7C6FA56BB6168A1EB0B07CE
:103D9000B7F5967F24D302990498FCF735FC644963
:103DA00020F0004088420BDCFCF7CBFC064688463E
:103DB0000298FCF7C6FC0B46024639465D480AE00D
:103DC000FCF7BFFC064688460298FCF7BAFC0246A0
:103DD0000B4659483946CDE90068FFF7C7FA012676
:103DE0006768781B642815D34846FCF7AAFC81460F
:103DF0008A460298FCF7A5FC054688460498FCF71D
:103E0000A0FC8DE8200702460B4639464BA0FFF781
:103E1000ADFA65680A20FDF787FA08484838016856
:103E2000486A02B2554803681A440260002048629A
:103E300096E700000000F0410038014054010020E6
:103E4000080000204D6F746F722050494420436F6A
:103E50006E74726F6C2053797374656D20496E694E
:103E60007469616C697A65642E0D0A005461726729
:103E700065743A3330C2B020737465702072657314
:103E8000706F6E736520696E203330306D730D0A6C
:103E900000000000A0090100456E636F6465722098
:103EA0005050523A25642C2047656172205261744B
:103EB000696F3A25642C546F74616C2050756C7373
:103EC00065733A25640D0A00436F6D6D616E64730E
:103ED0003A736574206B702F6B692F6B64203C768E
:103EE000616C75653E2C7069642073686F772C7007
:103EF00069642072657365742C68656C700D0A00C6
:103F00003C000020496E697469616C205049443A54
:103F1000204B703D252E31662C204B693D252E31DE
:103F2000662C204B643D252E31660D0A00000000F2
:103F30009A99993E3C400008EC3F000854696D6531
:103F40003A2575206D732C205461726765743A258B
:103F50002E3266C2B02C2043757272656E743A259B
:103F60002E3266C2B02C20504944204F75747075B3
:103F7000743A252E32660D0A000000000000002071
:103F8000010202030405060708090A0B0C0D0E0FB7
:103F900010100000000000000000010203040607EA
:103FA00008090000000001020304DDDDDDDDDCBBEB
:103FB000BBDDDDDDDDDDDDDDDDDD98888888888841
:103FC00088887777777777888888855555566666A5
:103FD0006666666666666668888883333332222240
:103FE0002222222222222228888D0000537465700A
:103FF00020526573706F6E7365205465737420462C
:1040000061696C6564212054696D653A20257520CD
:104010006D732C2046696E616C20416E676C653A49
:1040200020252E3266C2B02C204572726F723A2063
:10403000252E3266C2B00D0A000000005374657070
:1040400020526573706F6E736520546573742050D1
:104050006173736564212054696D653A202575206C
:104060006D732C2046696E616C20416E676C653AF9
:1040700020252E3266C2B02C204572726F723A2013
:10408000252E3266C2B00D0A00000000AC400008C8
:104090000000002024000000AC330008D0400008DD
:1040A000240000207C050000BC3300080000000054
:1040B00000000000000100000000000001000000FE
:1040C000100000000000000000127A000000000054
:0400000508000131BD
:00000001FF
